:020000040800F2
:10000000B02A0024390300084F280008912700086F
:100010004D2800080B050008F54800080000000006
:100020000000000000000000000000000D2C00088F
:100030008105000800000000CB290008192C0008E9
:100040005303000853030008530300085303000838
:100050005303000853030008530300085303000828
:100060005303000853030008530300085303000818
:100070005303000853030008530300085303000808
:1000800053030008530300085303000853030008F8
:1000900053030008530300085303000853030008E8
:1000A00053030008530300085303000853030008D8
:1000B00053030008530300085303000853030008C8
:1000C00053030008530300085303000853030008B8
:1000D00053030008530300085303000853030008A8
:1000E00053030008530300080000000053030008F6
:1000F0005303000853030008530300085303000888
:100100005303000853030008530300085303000877
:100110005303000853030008530300085303000867
:100120005303000853030008530300085303000857
:100130005303000853030008530300085303000847
:1001400000000000000000000000000000000000AF
:100150005303000853030008530300085303000827
:100160005303000853030008530300085303000817
:100170005303000853030008530300085303000807
:1001800053030008530300085303000853030008F7
:1001900053030008530300085303000853030008E7
:1001A00053030008530300085303000853030008D7
:1001B00053030008530300085303000853030008C7
:1001C00053030008530300085303000853030008B7
:1001D0005303000851280008530300085303000884
:1001E0005303000853030008530300085303000897
:1001F0005303000853030008530300085303000887
:100200005303000853030008530300085303000876
:100210005303000853030008530300085303000866
:1002200053030008530300085303000800000000B4
:1002300053030008530300080000000053030008A4
:100240005303000853030008530300085303000836
:100250005303000853030008530300085303000826
:100260005303000853030008530300085303000816
:100270005303000853030008530300080000000064
:100280005303000853030008530300080000000054
:10029000000000005303000800F002F800F03CF8F2
:1002A0000AA090E8000C82448344AAF10107DA45D1
:1002B00001D100F031F8AFF2090EBAE80F0013F0E7
:1002C000010F18BFFB1A43F0010318472C47000029
:1002D0004C470000103A24BF78C878C1FAD85207BA
:1002E00024BF30C830C144BF04680C6070470000B0
:1002F0000023002400250026103A28BF78C1FBD82F
:10030000520728BF30C148BF0B6070471FB504F0CB
:1003100065FB1FBD10B510BD00F0BDF81146FFF71D
:10032000F5FF04F0F9FA00F0DBF803B4FFF7F2FF91
:1003300003BC00F0E3F80000094880470948004783
:10034000FEE7FEE7FEE7FEE7FEE7FEE7FEE7FEE785
:10035000FEE7FEE704480549054A064B70470000E2
:10036000C52C000899020008B01D0024B02A002402
:10037000B0220024B02200240FB41CB5074B06AAFB
:100380007B4469460090059800F059F800206946C2
:1003900000F068F81CBC5DF814FB0000E1000000F0
:1003A00010B5431C02E010F8011B71B18107FAD1AE
:1003B0004FF0013202C88C1A8C4314EAC211F9D0F2
:1003C000C01A0A0603D0C01E10BDC01A10BD0A0410
:1003D00001D0801E10BD0902FCD0401E10BD4FF0A0
:1003E000000200B5134694469646203922BFA0E885
:1003F0000C50A0E80C50B1F12001BFF4F7AF090791
:1004000028BFA0E80C5048BF0CC05DF804EB890081
:1004100028BF40F8042B08BF704748BF20F8022BC4
:1004200011F0804F18BF00F8012B704770477047DC
:100430007047000001694A1C02610878704700B5E6
:100440008FB0CDE901310021059105497944CDE90D
:1004500003101146684600F00AF80FB000BD000016
:10046000E5FFFFFF0A6802F8010B0A6070472DE9FB
:10047000F04106460024D6E90170F5688046304612
:1004800003E04146B847641C3046A8470028F8D12D
:100490002046BDE8F081754600F02CF8AE46050018
:1004A0006946534620F00700854618B020B5FFF78F
:1004B00051FFBDE820404FF000064FF000074FF01D
:1004C00000084FF0000B21F00701AC46ACE8C00972
:1004D000ACE8C009ACE8C009ACE8C0098D4670477B
:1004E00010B50446AFF300802046BDE81040FFF78A
:1004F0001CBF000000487047501D0024014918200F
:10050000ABBEFEE7260002007047FEE70020704702
:100510000020704705490022054810B502F026FE6C
:100520000449034802F015FE002010BD4C0E0024C3
:10053000700100244C0600240146044810B502F066
:1005400008FE024802F0DEFD002010BD700100240C
:1005500000207047094A10B5D2F8BC22D2F8142204
:100560000AB1012010BD0A460146044802F0FEFD12
:10057000BDE81040014802F06FBE00007001002489
:10058000704772B6FEE7000070B5044600F02AF925
:100590000546601C02D004480078044400F022F9AB
:1005A000401BA042FAD370BD680000242DE9F84F2B
:1005B00003247D4D00234FF001094FF0B04B4FF065
:1005C0000F0AE9E009FA03F73A4076D00E7906F00F
:1005D0000306012E01D0022E18D1D0F808C04FEA30
:1005E000430ECE6804FA0EF82CEA080C06FA0EF652
:1005F00046EA0C068660D0F804C00E792CEA070C97
:10060000C6F300169E4046EA0C0646600E79F64395
:10061000B6070BD0C6684FEA43088F6804FA08FC97
:1006200026EA0C0607FA08F73743C7600E7906F08A
:100630000306022E12D1DE080F694FEA437C00EB5D
:100640008606B646366A4FEADC6C0AFA0CF807FAF8
:100650000CF726EA08063743CEF820700F790668B3
:100660004FEA430807F0030704FA08FC07FA08F703
:1006700026EA0C06374307604E6816F4403F1CD04C
:100680004A4E376847F00207376036689F0706F022
:100690000206009623F0030606F1B046B6463F0F69
:1006A000D6F80864DFF808810AFA07FC404526EA14
:1006B0000C0603D14FF0000C41E06CE0DFF8F4C011
:1006C000604502D14FF0010C39E0DFF8ECC0604525
:1006D00002D14FF0020C32E0DFF8E0C0604502D1F9
:1006E0004FF0030C2BE0DFF8D8C0604502D14FF08B
:1006F000040C24E0DFF8CCC0604502D14FF0050CBB
:100700001DE0DFF8C4C0604502D14FF0060C16E0D2
:10071000DFF8B8C0604502D14FF0070C0FE0DFF8FA
:10072000B0C0604502D14FF0080C08E0DFF8A4C06B
:10073000604502D14FF0090C01E04FF00A0C0CFAB1
:1007400007FC4CEA060CCEF808C44F68DBF80060E2
:10075000FF0226EA020600D516435F46CBF800608A
:10076000D1F804C0DBF804605FEA8C2C26EA0206AC
:1007700000D516437E606E684F6826EA0206BF0306
:1007800000D516436E602E684F6826EA0206FF0306
:1007900000D516432E605B1C0A6832FA03F67FF41C
:1007A00011AFBDE8F88F000080000058F4440258F3
:1007B000000002580004025800080258000C0258B9
:1007C000001002580014025800180258001C025869
:1007D000002002580024025801480068000C7047AD
:1007E0000010005C01488068704700006800002429
:1007F00002488168027811448160704768000024D3
:10080000032010B500F086F801F052FC0F4A1049A1
:1008100014681368C4F3032203F00F038A5CC95CF5
:1008200002F01F0201F01F01D0400A4A20FA01F134
:100830001160094908600F2000F010F808B101208C
:1008400010BD00F02BF8002010BD00001844025825
:10085000E6490008780000247400002470B50D4DAE
:1008600004462878A0B14FF47A71B1FBF0F00A4940
:100870000968B1FBF0F001F078FF48B9102C07D2FD
:1008800000222146501E00F025F800206C6070BD4B
:10089000012070BD6800002474000024054808B5DC
:1008A000016841F002010160006800F00200009060
:1008B00008BD0000F4440258002809DB410900F09B
:1008C0001F028900012001F1E0219040C1F80001E0
:1008D000704700000E4BF0B41B680D46C3F30223B3
:1008E000C3F10706042E00D90426191D072901D2D9
:1008F000002300E0DB1E012404FA06F19C40491E9F
:100900002940641E994014402143F0BC03F0F3BF1A
:100910000CED00E0064900F0070210B54FF6FF04A9
:100920000868044B204040EA02201843086010BDCC
:100930000CED00E00000FA0501680123C0F8D8348E
:10094000002280F8CC248869044A40F00060886165
:10095000486D1043486500207047000003000010F8
:1009600070470068416200207047F0B503685D6A17
:1009700039B19F6A4C1E00204FF4827605EB174573
:100980000BE045EA0240986210E0471C06EB80004D
:1009900053F800C0F8B205EB1C45A042F5D34FF464
:1009A000807000EB810045EA02421A500020F0BD41
:1009B000D0F8E00402F0F1BE01EBC10200EB8202CC
:1009C000D0F8E004126A02F044BE01EBC10200EB71
:1009D0008202D0F8E004D2F8602202F096BED0F88D
:1009E000E00402F0DCBE0A0601F00F0101EBC101D8
:1009F00000EB810101D5143101E001F515710068AA
:100A000003F0C4BD01F00F020B0670B502EBC2018A
:100A100004464FF001004FF0000504EB810102D5C0
:100A20004875143103E081F8555201F515710A70CB
:100A300094F89424012A08D084F89404206803F0E0
:100A4000C7FA002084F8945470BD022070BD70B5C0
:100A50000279044601F00F00904201D9012070BDD7
:100A600001F00F024FF000050B0602EBC2014FF040
:100A7000010204EB810102D54A75143103E081F8CB
:100A8000555201F515718D70087094F89404012881
:100A900008D084F89424206803F004FC002084F833
:100AA000945470BD022070BD01F00F0101EBC10133
:100AB00000EB8100D0F8680270472DE9F04101F0A9
:100AC0000F0604460D064FF0010006EBC6014FF07D
:100AD000000504EB810102D54875143103E081F86B
:100AE000555201F515714F788A600B710E7007B180
:100AF0004E83022B00D14D7194F89424012A09D021
:100B000084F89404206803F0ABF9284684F89454E0
:100B1000BDE8F0810220FBE770B501F00F0500246D
:100B200005EBC50100EB810101F5187181E81C009E
:100B300001F80B4C01F80C5D8379012B00D1CA61DF
:100B40008279006803F006FC002070BD70B50D4688
:100B50000179044605F00F00884201D9012070BDDB
:100B600029064FF000064FF0010206D500EBC00148
:100B700004EB81014A75143107E005EBC50104EB74
:100B8000810181F8556201F515718A70087094F839
:100B90009404012807D084F89424206803F0AEFB65
:100BA000280702D007E0022070BDA17904F29C4220
:100BB000206803F04BFB002084F8946470BD70B58E
:100BC00001F00F04002504EBC401012600EB8101B4
:100BD000203181E82C0001F80B6C01F80C4D837971
:100BE000012B00D1CA618279006803F0B3FB0020B9
:100BF00070BD00002DE9FC5F05680446284603F03F
:100C000061FD00287ED1206803F088FD002879D09E
:100C1000D5F80808C0F30D20C4F8D404206803F008
:100C20007DFD800704D52068416901F00201416122
:100C3000206803F073FDC10604F29C40009035D596
:100C40002068816921F0100181612F6A07F00F018E
:100C5000C7F3434001EBC101022804EB810606F50E
:100C6000157602D0062812D01BE047F6F070074236
:100C700017D0C7F30A12F1681746284603F052FD51
:100C80007169F068394471613844F06009E0009995
:100C90000822284603F046FD7069C7F30A1108448C
:100CA00070612068816941F010018161206803F062
:100CB00035FD00034FF0080B4FF0000A4FF001091B
:100CC0007CD52068002603F008FD074674E0F8078D
:100CD00070D02068F1B203F019FD8046C00707D03C
:100CE00005EB4611C1F8089B3146204601F0B6FDE0
:100CF0005FEA087024D505EB4611C1F808BBFA4934
:100D0000206800E03EE2026C00EB461001928A424D
:100D1000D0F8081B05D9090403D54FF40041C0F8E9
:100D2000081B204600F02BFBEF490198884207D9A9
:100D3000A079012804D120680121009A03F086FAE5
:100D40005FEAC86004D505EB46111020C1F8080B16
:100D50005FEA88701DD56869000605D5D5F80408D6
:100D600040F48061C5F8041806EBC60004EB80006F
:100D700090F8571200F51570012905D180F803A0ED
:100D80002046F1B200F004FA05EB46110220C1F84A
:100D9000080B5FEA886004D505EB46112020C1F8F6
:100DA000080B5FEA884005D505EB46114FF400506B
:100DB000C1F8080B7F08761C002F88D1206803F04B
:100DC000ADFC40036ED5206803F080FC002607468A
:100DD00066E0F80762D02068F1B203F085FC804637
:100DE000C00723D0D5F8342806F00F0105EB4613D1
:100DF00009FA01F18A43C5F83428C3F80899A079A3
:100E000001280FD106EBC60004EB8000D0E90721D2
:100E10001144016236B9606A20B920680121009A44
:100E200003F014FA2046F1B2FFF7C6FD5FEA08703E
:100E300003D505EB4611C1F808B95FEAC86004D5CF
:100E400005EB46111020C1F808095FEA486004D597
:100E500005EB46114020C1F808095FEA887016D5F5
:100E60003146284603F003FC06EBC60004EB800085
:100E7000C17D1430012905D180F803A02046F1B2CC
:100E800000F082F905EB46110220C1F808095FEA7B
:100E9000086003D53146204601F046FD7F08761CE8
:100EA000002F96D1206803F039FC002811DAD5F81C
:100EB000040820F00101C5F8041894F8CC040128B6
:100EC0003BD0204600F040FA2068416901F0004123
:100ED0004161206803F022FC00050BD5D5F8080815
:100EE000C00702D0204600F073FA2068416901F47F
:100EF00000614161206803F011FC00010AD52068FF
:100F0000416901F00061416194F8CC04E0B12046F0
:100F100000F05EFA206803F001FCC00472D5D5F839
:100F2000040820F00101C5F804182068102103F01E
:100F30009EFB00214FF67F322DE00021204684F8F1
:100F4000CCA4FFF70DFDBFE784F8CC942068406D7A
:100F50000121C0F38300C4F8D0042046FFF700FD50
:100F6000D8E700BF05EB4110C0F80829D0F80039D8
:100F700023F40013C0F80039C0F8082BD0F8003B68
:100F800023F40013C0F8003BD0F8003B43F00063AB
:100F9000C0F8003B491C20798842E3D8D5F81C08EA
:100FA00040F00111C5F81C18E07B68B1D5F8840841
:100FB00040F00B01C5F88418D5F8440840F00B0147
:100FC0002846C5F844180DE0D5F8140842F22B0164
:100FD0000843C5F81408D5F8100840F00B0128465E
:100FE000C5F81018D0F8000820F4FE61C5F8001804
:100FF000A1792068009A03F029F92068416901F479
:1010000080514161206803F089FB800415D5206878
:1010100002F066FF206803F048FBE07101F026F85B
:10102000E2790146206803F0DDFB204600F076F906
:101030002068416901F400514161206803F06EFBB2
:10104000000707D5204600F083F92068416901F0C8
:1010500008014161206803F061FB000616D5A8690C
:10106000012620F08001A9610DE000BF06EBC6005B
:1010700004EB800090F85702012803D12046F1B21A
:10108000FFF7B1FC761C2079B042EFD8206803F05E
:1010900045FBC0021FD501264F4614E006EBC601F2
:1010A00005EB461004EB8101D0F800090A7E012A05
:1010B00008D1002806DAF0B2CF7540F08001204652
:1010C000FFF791FC761C2079B042E7D8206841698F
:1010D00001F480114161206803F020FB800234D5C7
:1010E00001204B4629E000000A30544F00EBC002BB
:1010F00005EB401104EB8202D1F8001B92F8586214
:10110000012E19D1002917DA94F8D46401F4803142
:1011100006F00106B1420FD182F85732A96941F0B9
:101120008002AA616969090606D4D5F8040840F46A
:101130000070C5F8040803E0401C21798142D5D82D
:101140002068416901F400114161206803F0E6FA6A
:10115000400007D52046FFF72BFC2068416901F0CD
:1011600080414161206803F0D9FA40070AD5206820
:101170004568680702D52046FFF731FC20684168C2
:1011800029434160BDE8FC9FD0F8E00402F05DBB5C
:10119000D0F8E00402F06DBBF8B5040004D094F878
:1011A0009504002510B106E00120F8BD204684F822
:1011B000945400F057F8032084F89504206803F055
:1011C0003FF8207C8DF8000094E80F0002F096FEB6
:1011D0000226B0BB2068002103F0C4FA88BB0020BF
:1011E00001270CE000EBC001421C04EB81014F75AC
:1011F0000D76CD610D624D620875C885D0B221793A
:101200008142EFD8002011E000EBC001421C04EB4A
:10121000810181F8555281F85852C1F85C52C1F8E9
:101220006052C1F8645281F85402D0B221798142EF
:10123000EAD8207C8DF8000094E80F0002F04AFF05
:1012400010B184F89564AFE7207B657484F89574D9
:10125000012802D12046FFF76FFB206802F02CFF27
:101260000020F8BDF0B5B7B00446142130A8FFF750
:10127000B6F8C0216846FFF7B2F8254920688842D1
:1012800043D1002111914FF480200D460224CDE975
:1012900000010AA968460522602304260C274FF4A2
:1012A000806C4FF4001ECDF888E081E8DC1000F07F
:1012B000D9F808B1FFF765F900F0CCF815480168D6
:1012C00041F00101016000680A22032100F00100E1
:1012D0003590CDE9331230A94FF4C05081E8310088
:1012E0000D48FFF763F90B480838016841F00061C9
:1012F000016000680022114600F000603590652012
:10130000FFF7E8FA6520FFF7D7FA37B0F0BD000025
:1013100000000840E04402580000025870B504463E
:10132000C079012570B1022801D0FFF72AF9D4F85D
:10133000E004294602F00CFBD4F8E004BDE870405C
:1013400002F0C0BA0025F2E7D0F8E00402F0E9BAF2
:10135000D0F8E00402F0EFBA10B5044690F8940417
:1013600001280AD00120617484F89404206803F0F5
:1013700028FA002084F8940410BD022010BDD0F893
:10138000E02400F29C41104602F0EEBA10B590F84D
:10139000941404460068012909D0012184F89414AA
:1013A000C168490609D5617B012902D005E0022008
:1013B00010BD816B41F480318163206803F035F901
:1013C000206802F06BFE002084F8940410BD000039
:1013D00010B50446D0F8E00402F008FB2068D0F80D
:1013E000001E41F00101C0F8001EE07A002804D080
:1013F0000248016841F00601016010BD10ED00E0F7
:10140000134970B50A68D243520705D5096801F03F
:101410000701814213D118E00A6822F00702024353
:101420000A60FFF7DFF90A4D4FF47A760446083D6B
:1014300007E000BFFFF7D6F9001BB04201D9012039
:1014400070BD2868C0438004F4D4002070BD000043
:101450000C4802580248016841F0807101607047F1
:101460000C4802582DE9FE4F0546DFF8E48350F89A
:10147000081B0024F64FC943019005F128002646B9
:1014800008F12408009008011DD4A86E50B1B0F5F1
:10149000801F0CD0B0F5001F0ED0B0F5401F1ED03D
:1014A00001240FE0386840F40030386017E00198FC
:1014B000022101F08BFA03E00098022101F016FBF3
:1014C00004000CD026462888C043C00523D4A86D4C
:1014D00005281ED2DFE800F00C11161B1B00AA6EB7
:1014E000D8F8001021F440111143C8F80010EAE7C1
:1014F000386840F40030386009E00198002101F0BC
:1015000065FA03E00098002101F0F0FA044674B196
:1015100000E0012426462888C043800528D4E86DD1
:1015200080281ED00CDC90B140280ED114E0AA6DAA
:10153000D8F8001021F007011143C8F80010EAE7BD
:10154000C02813D0B0F5807F10D001240FE0386898
:1015500040F40030386009E00198002101F036FACB
:1015600003E00098002101F0C1FA04469CB1264630
:101570002888DFF8DC92C04309F12C0940052CD4FF
:10158000D5F8A800B0F5800F20D00DDCA0B1B0F5E3
:10159000001F0FD115E0EA6DD8F8001021F4E071BA
:1015A0001143C8F80010E3E7B0F5C00F13D0B0F551
:1015B000000F10D001240FE0386840F4003038608C
:1015C00009E00198002101F001FA03E000980021F0
:1015D00001F08CFA04467CB126462888C0430005F9
:1015E0002DD4D5F8AC00B0F1007F21D00EDCA8B12D
:1015F000B0F1807F10D116E0D5F8A820D9F80010FE
:1016000021F460011143C9F80010E6E7B0F1407F12
:1016100013D0B0F1806F10D001240FE0386840F48F
:101620000030386009E00198002101F0CFF903E0B3
:101630000098002101F05AFA044674B12646286841
:10164000C04380011FD4E86CD8B110280FD02028E7
:1016500012D0302815D0012414E0D5F8AC20D9F8E8
:10166000001021F0E0611143C9F80010E7E7386885
:1016700040F40030386004E00198022101F0A6F93E
:10168000044674B126462888C043C0042BD4286E73
:10169000B0F5005F20D00DDCA0B1B0F5805F0FD1B8
:1016A00015E06B48EA6C2030016821F030011143ED
:1016B0000160E8E7B0F5405F13D0B0F5804F10D07F
:1016C00001240FE0386840F40030386009E00198E8
:1016D000002101F07BF903E00098002101F006FAF7
:1016E00004468CB126462888C043800429D4686EFD
:1016F000B0F5403F23D010DC08B3B0F5803F14D0E4
:10170000B0F5003F0FD115E02A6ED8F8001021F493
:10171000E0411143C8F80010E5E7B0F5802F0ED086
:10172000B0F5A02F0BD001240AE00198012101F0AF
:101730004DF903E00098012101F0D8F9044694B175
:1017400026462888C04340042AD4D5F8B000B0F11A
:10175000405F23D010DC08B3B0F1805F14D0B0F14B
:10176000005F0FD115E06A6ED8F8001021F4E02177
:101770001143C8F80010E4E7B0F1804F0ED0B0F18B
:10178000A04F0BD001240AE00198012101F01EF9BD
:1017900003E00098012101F0A9F9044674B126463E
:1017A0002888C04300041FD4286FD8B1B0F1805FEF
:1017B0000ED0B0F1005F10D0012414E0D5F8B020B5
:1017C000D9F8001021F0E0411143C9F80010E7E713
:1017D000386840F40030386004E00198012101F0DD
:1017E000F5F8044674B126462868C043C0011ED4EB
:1017F000A86CD0B101280ED0022811D0032814D033
:10180000012413E02A6FD8F8001021F04051114351
:10181000C8F80010E8E7386840F40030386004E0A9
:101820000198022101F0D2F80446ACB1264628689E
:10183000DFF81CB0C043ABF11C0B400252D405488A
:10184000016841F480710160FEF7CCFF824611E02F
:101850002C44025800480258FA48AA6C016821F04A
:10186000030111430160E2E7FEF7BCFFA0EB0A00B1
:10187000642835D8F4480068C005F5D58CBBDFF87E
:10188000C4A3B5F8B4100AF1240ADAF8000001F490
:10189000407100F44070884211D0DAF80010DAF894
:1018A000002021F4407142F48032CAF80020DAF8B6
:1018B000002022F48032CAF80020CAF80010D5F8BF
:1018C000B400B0F5807F1AD1FEF78CFF029012E0D1
:1018D000FEF788FF0299411A41F2883081420AD905
:1018E000032426462878DFF85CA3C0430AF1080ADF
:1018F000C00721D03CE0DAF800008007E8D5D5F831
:10190000B410C1F30120032858460DD0016821F41A
:101910007C510160B5F8B420DAF80010C2F30B0274
:101920001143CAF80010DDE7C84A036802EA111241
:1019300023F47C511143ECE7E86F182816D005DC3E
:10194000A0B1082808D0102804D10AE020280DD022
:1019500028280BD001240AE00198012101F036F873
:1019600003E00098012101F0C1F8044664B1264665
:101970002878C04380071ED4A86F062819D2DFE854
:1019800000F0160C11161616EA6FDAF8001021F0A6
:1019900038011143CAF80010EAE70198012101F06B
:1019A00015F803E00098012101F0A0F804467CB18D
:1019B00000E0012426462878C04340071FD4D5F80C
:1019C0009400062819D2DFE800F0160C111616163E
:1019D000AA6FDAF8001021F007011143CAF80010CD
:1019E000E9E70198012100F0F1FF03E000980121EF
:1019F00001F07CF80446A4B100E0012426462878D2
:101A0000C04380062BD4D5F89000B0F1405F24D0BD
:101A100011DC10B3B0F1805F15D0B0F1005F10D1D0
:101A200016E0D5F89420D9F8001021F007011143F1
:101A3000C9F80010E3E7B0F1804F0ED0B0F1A04F2D
:101A40000BD001240AE00198002100F0BFFF03E061
:101A50000098022101F04AF8044694B126462878FD
:101A6000C04340062BD4D5F89C00B0F5406F24D07D
:101A700011DC10B3B0F5806F15D0B0F5006F10D148
:101A800016E0D5F89020DAF8001021F0E04111437B
:101A9000CAF80010E3E7B0F5805F0ED0B0F5A05FA4
:101AA0000BD001240AE00198002100F08FFF03E031
:101AB0000098022101F01AF8044694B126462878CD
:101AC000C04300062BD4D5F8A000B0F5C04F24D0F9
:101AD00011DC10B3B0F5005F15D0B0F5804F10D118
:101AE00016E0D5F89C20D9F8001021F4E0511143FC
:101AF000C9F80010E3E7B0F5004F0ED0B0F5204F65
:101B00000BD001240AE00198002100F05FFF03E000
:101B10000098022100F0EAFF044654B126462878D6
:101B2000C04300071ED4D5F88400B0F5805F0AD00A
:101B30000FE0D5F8A020D9F8001021F4604111433E
:101B4000C9F80010EBE70098022100F0CFFF00B1C8
:101B50000126D5F88420DAF8001021F44051114311
:101B6000CAF800102878C043C00613D4D5F89800EE
:101B7000B0F5807F05D10098022100F0B7FF00B1D9
:101B80000126D5F89820D9F8001021F440711143AE
:101B9000C9F800102868C043000316D4D5F8A40083
:101BA00038B1B0F5803F09D0B0F5003F0BD001242B
:101BB0000AE00198002100F009FF03E000980221EB
:101BC00000F094FF04468CB126462868C0434003C9
:101BD00022D4D5F88800B0F5801F11D0B0F5001FD1
:101BE00013D0B0F5401F15D0012414E0D5F8A4207F
:101BF000D9F8001021F440311143C9F80010E4E78E
:101C0000386840F40030386004E00098012100F0AA
:101C10006DFF04465CB126462868C043C00323D448
:101C2000286DA8B1B0F5803F17D001241BE0D5F88E
:101C30008820DAF8001021F440111143CAF800108E
:101C4000EAE700004C44025800480258CFFFFF006A
:101C5000386840F40030386004E00198022100F058
:101C6000B5FE0446E4B126462868C043800005D48A
:101C70000098022100F03AFF00B101262868C04315
:101C800080031BD4D5F88000B0B1B0F5807F0FD0B1
:101C9000B0F5007F10D0B0F5407F0DD001240CE0EE
:101CA0005A482A6D016821F4803111430160DBE755
:101CB000386840F400303860ECB326462868C043EA
:101CC000C00207D46A6FD8F8001021F00041114318
:101CD000C8F800102868C043C00008D4D5F8B82060
:101CE000DBF8001021F480411143CBF80010286884
:101CF000C043800207D4EA6ED8F8001021F080714A
:101D00001143C8F800102868C04340000CD4DBF829
:101D1000001021F40041CBF80010DBF80010D5F8DA
:101D2000BC201143CBF800102868C04308D43748C2
:101D30006A6D016800E018E021F040511143016034
:101D40002868C043000208D4D5F88C20DAF80010C7
:101D500021F440011143CAF8001028790024C0433F
:101D600000F0010020430AD00FE0D5F88020DAF817
:101D7000001021F440711143CAF800109EE7019849
:101D8000002100F023FE00B106462879C04300F090
:101D90000200204305D10198012100F017FE00B197
:101DA00006462879C04300F00400204305D101987D
:101DB000022100F00BFE00B106462879C04300F076
:101DC0000800204305D10098002100F08FFE00B1EB
:101DD00006462879C04300F01000204305D1009842
:101DE000012100F083FE00B106462879C04300F0CF
:101DF0002000044304D10098022100F077FE00B9CE
:101E000016B10120BDE8FE8F0020FBE74C440258CC
:101E10002DE9F05F04000F467ED0DFF83882D8F855
:101E2000000000F00F00B8420CD2D8F8001021F0EA
:101E30000F013943C8F80010D8F8000000F00F0077
:101E4000B84269D12078844D40070AD520692968B5
:101E500001F07001884204D9296821F07001014322
:101E6000296020787C4E361D00070AD560693168EC
:101E700001F07001884204D9316821F070010143FA
:101E800031602078C0060AD5A069316801F4E061AC
:101E9000884204D9316821F4E0610143316020783F
:101EA000DFF8B4B180060BF1080B0CD5E169584698
:101EB000DBF8002002F07002914204D9026822F09F
:101EC00070020A430260207880070AD5E06829681A
:101ED00001F00F01884204D9296821F00F01014364
:101EE00029602078C0073ED05B49A268286818396D
:101EF00020F47060104328606068022818D003281E
:101F000019D00968012819D0490700294ADADFF8F1
:101F100048A1AAF1080A00E044E0DAF8002022F023
:101F200007020243CAF80020FEF75CFC814612E07B
:101F300009688903E9E709688901E6E7C905E4E773
:101F4000FEF750FCA0EB090141F28830814202D932
:101F50000320BDE8F09F6168DAF8000000F0380067
:101F6000B0EBC10FECD1207880070AD5E068296872
:101F700001F00F01884204D2296821F00F010143CA
:101F80002960D8F80010404601F00F01B9420BD982
:101F9000016821F00F0139430160006800F00F0073
:101FA000B84201D00120D4E7207840070AD5206943
:101FB000296801F07001884204D2296821F070017B
:101FC00001432960207800070AD56069316801F073
:101FD0007001884204D2316821F070010143316000
:101FE0002078C0060AD5A069316801F4E061884212
:101FF00004D2316821F4E061014331602078800629
:102000000CD5E1695846DBF8002002F070029142DD
:1020100004D2026822F070020A43026000F048F81D
:102020000E492A682B68C2F3032203F00F038A5C6F
:10203000C95C02F01F0201F01F01D040084A20FADB
:1020400001F111600749086007480068BDE8F05FCA
:10205000FEF704BC0020005218440258E64900086C
:1020600078000024740000246C00002430B500F0D7
:102070001FF80B4A0B490C4B15681468C5F3032273
:1020800004F00F048A5C095D02F01F0201F01F01D9
:10209000D040064A20FA01F119601060084630BDB0
:1020A00018440258E649000878000024740000240F
:1020B000454970B545480968434B103B11F038025B
:1020C00008D00111082A03D0102A0BD0182A0BD0EF
:1020D000084670BD19688906FBD51968C1F3C101AE
:1020E000C84070BD3A4870BD3749374D18310C1D96
:1020F00024350A68096826682D6802F0030406F092
:102100000102C1F30511C5F3CC0515FB02F200EE87
:10211000102AB8EE400AE9B32F4ADFED2E0AB7EED7
:10212000001A6CB1DFED2D1A012C01D0022C43D026
:1021300002EE101A1068F8EE422A81EEA22A1EE082
:102140001C68A40611D51B6801EE901A1168C3F330
:10215000C103F8EE612AD84001EE900AC1F30800ED
:10216000F8EE611A81EEA22A0BE001EE901ADFED83
:102170001C2A00BFF8EE611A106882EEA12AC0F393
:10218000080001EE900AF8EE611A40EE201A31EED6
:10219000810A00E015E022EE000A1068C0F3462034
:1021A000401C00EE900AF8EE600A80EE201ABCEEA9
:1021B000C10A10EE100A70BD01EE901ADFED092A77
:1021C000D8E7002070BD0000104402580090D003F2
:1021D0008096980000000039304402580024744A68
:1021E0000024744C8096184B2DE9F05F04007DD0DC
:1021F000FF4F2078FE4D1837DFF8F493103DC007ED
:1022000048D0D9F80000396800F03800102815D0FF
:10221000182803D101F0030002280FD06068B0F540
:10222000803F12D010B1B0F5A02F18D0286820F44C
:1022300080302860286820F4802009E02868800326
:1022400028D560680028D2D024E0286840F4803087
:102250002860606888B1FEF7C5FA064609E028687C
:1022600040F480202860F0E7FEF7BCFA801B642869
:102270006FD828688003F7D50CE0FEF7B3FA06465E
:1022800005E000BFFEF7AEFA801B6428F0D828688E
:102290008003F7D4207841F20308D54E0C3E800726
:1022A00069D5D9F80000396810F038000ED0182828
:1022B00001D188070AD0E06890B3296821F019019C
:1022C00001432960FEF78EFA824631E02868400714
:1022D00002D5E06800288AD0E168286820F019005B
:1022E00008432860FEF77EFA824607E0DFE000BF81
:1022F000FEF778FAA0EB0A000228B9D82868400750
:10230000F6D500BFFEF768FA40451BD82069402883
:1023100012D0316821F47C3141EA003030602AE08B
:1023200018E000BFFEF75EFAA0EB0A0002289FD873
:1023300028684007F6D5E5E7306820F47C3040F4A3
:102340000030EBE7207C316821F0FE4141EA00607B
:10235000E4E70DE1286820F001002860FEF742FA6A
:10236000824605E0FEF73EFAA0EB0A0002288DD86F
:1023700028684007F6D42078C0065DD5D9F800005B
:10238000DFF86CB2396800F03800ABF1040B0828B4
:1023900010D0182803D101F0030001280AD0E06909
:1023A0000028286838D040F080002860FEF71AFA2C
:1023B000824623E02868C00523D5E069802876D1CD
:1023C0001FE0206A202821D0316821F0F84141EA3D
:1023D0008060306030E000BF94F82010DBF800200F
:1023E00022F07C5242EA0161CBF8001024E000BFE9
:1023F000FEF7F8F9A0EB0A00022898D82868C00573
:10240000F6D5FEF7E9F94045E6D8DAE7306820F07E
:10241000F84040F08040DCE720F080002860FEF7C4
:10242000E1F9064605E000BFFEF7DCF9801B022853
:102430009DD82868C005F7D42078000729D56C48B6
:102440006169643000298046016811D041F00101C2
:102450000160FEF7C7F9064605E000BFFEF7C2F9C6
:10246000801B0228C9D8D8F800008007F6D510E0F4
:1024700021F001010160FEF7B5F9064605E000BF55
:10248000FEF7B0F9801B022872D8D8F80000800748
:10249000F6D42078800623D5A0690028286810D0BB
:1024A00040F480502860FEF79DF9064605E036E1CD
:1024B000FEF798F9801B02285AD828688004F7D5BF
:1024C0000EE020F480502860FEF78CF9064604E008
:1024D000FEF788F9801B02284AD828688004F7D4C0
:1024E000207840074FD5DFF80C81D8F8001041F470
:1024F0008071C8F80010FEF775F9064605E000BFC8
:10250000FEF770F9801B642832D8D8F80000C005A7
:10251000F6D5374EA068603601280AD008B10528E4
:1025200013D0306820F001003060306820F00400E3
:1025300002E0306840F001003060A06841F2883A63
:1025400090B1FEF74FF980460AE0306840F0040091
:102550003060EEE7FEF746F9A0EB0801514507D8D9
:1025600030688007F6D50EE0FEF73CF9804607E0BC
:1025700084E000BFFEF736F9A0EB080151457DD895
:1025800030688007F6D4606AB0B3DFF86480D9F8A9
:10259000001008F120084FF6F87B08F10409C1F398
:1025A000C2010329A8F1040A69D00228286820F092
:1025B0008070286003D0FEF715F9044684E0FEF72A
:1025C00011F9064605E000BFFEF70CF9801B022852
:1025D00077D828688001F7D4E26A40F2F33138688E
:1025E00054F8283F884340EA02101843386004E05A
:1025F0001044025800480258B5E0217B4346228926
:102600004FF4FE0C208A4FF0FE474902267D521EF1
:10261000401EA1F50071C2F308088AB2761E0CEACA
:10262000004042EA08020243504607EA06610A43B4
:102630001A60DAF8002022F00102CAF80020D9F866
:102640000020266A22EA0B0242EAC602C9F80020EC
:10265000DAF80010A26921F00C011143CAF8001049
:102660000168E26921F0020111430160016841F44F
:1026700080310160016841F4003101E021E027E090
:102680000160016841F480210160016841F00101AD
:102690000160286840F080702860FEF7A3F80446C7
:1026A00005E000BFFEF79EF8001B022809D8286845
:1026B0008001F7D557E000BFFEF794F8001B022811
:1026C00002D90320BDE8F09F28688001F4D44AE0D5
:1026D00039680128D8F8000021D0A26A01F003036C
:1026E00093421CD1E26AC1F305118A4217D1216BD2
:1026F000C0F30802491E8A4211D1616BC0F3462221
:10270000491E91420BD1A16BC0F30642491E914272
:1027100005D1E16BC0F30660491E814201D0012062
:10272000D0E7A16C4E46D9F80000C0F3CC0081423E
:1027300019D0DAF80000554620F00100CAF8000070
:10274000FEF750F84FEA0007FEF74CF8B842FBD00E
:10275000A26C306820EA0B0040EAC20030602868B2
:1027600040F0010028600020ACE7401EB0F1807FFF
:1027700010B501D3012010BD4FF0E02460610F219E
:10278000601702F0B8F80020A0610721216110BD98
:10279000FEE70000F0B500230A251C463026372747
:1027A00011E000BFB5EB107F02D906EB107C01E011
:1027B00007EB107C01F813C001EB430C00015B1C1C
:1027C0008CF80140DBB29342ECD3F0BD094808B568
:1027D000016841F001010160016801F0010100910F
:1027E000016841F080010160006800F08000009005
:1027F00008BD0000E044025810490022104810B5FE
:1028000000F002FF08B1FDF7BCFE0E490C4801F0D4
:1028100018F908B1FDF7B5FE0B49094800F08EFC28
:1028200008B1FDF7AEFE064801F090F908B1FDF7DA
:10283000A8FEBDE81040FEF70DBE00000000002419
:1028400070010024D400002454000024FEE7FEE7B9
:102850000148FEF7CFB900006C1800242DE9F041C3
:10286000044680790D462027236801284FF400464E
:1028700004F29C4203EB4511D3F840C0D1F8080B99
:1028800009D0DFF89CE0F4453AD1020433D500BF0B
:10289000C1F8086B40E0234B5FEA007E04D59C45FD
:1028A0003AD90004F4D437E05FEA806E02D5C1F86B
:1028B000087B31E010F0280F2ED19C4501D900048F
:1028C000E6D4D1F8101B05EBC50004EB8000C1F382
:1028D0001201D0F87432A3EB0101C0F8681200F5C0
:1028E0001570ADB903691BB1C2681144C1600FE036
:1028F000206801210AE080060AD5C1F8087B07E0BC
:1029000035B9D4F8640218B90021184601F09EFCCC
:102910002046E9B2FEF759F80020BDE8F08100003A
:102920000A31544F0A30544F2DE9F84F0E460568CE
:10293000814601EBC60100EB8104D4E9092014347F
:10294000904202D90120BDE8F88FA168101A814297
:1029500000D20846C01C05EB461887081BE000BFE4
:10296000A268A0EB010A524500D2924699F80610DF
:102970000AF1030000911FFA8AF3E16887082846EC
:10298000F2B201F0A3FFE16801EB0A00E0606169C7
:1029900001EB0A006061D8F8180980B2B84205D38B
:1029A000D4E90401814201D20028D9D1D4E904013B
:1029B000884208D8D5F83418012006F00F0290405C
:1029C0008143C5F834180020BDE770472DE9F04772
:1029D000454D044689464FF0000A2868C0438007E9
:1029E0000AD0414E283E306820F080603060FDF70C
:1029F000F9FE0746B04608E00120BDE8F08700BFB9
:102A0000FDF7F0FEC01B022867D8D8F800000001CF
:102A1000F6D4206829684FF4FE0721F47C313E0289
:102A200041EA00302860207AA389B4F804C040024B
:102A30002D4D2D495B1E227CACF1010C1035091D7A
:102A4000A0F5007080B2521ECCF3080C07EA0343D5
:102A500040EA0C00184306EA026210432860086846
:102A6000626920F0C000104308600A68A06922F083
:102A7000200202430A60281D0A6822F010020A6040
:102A800002684FF6F873E4699A4342EAC4020260AE
:102A90000868B9F1000F40F010020A6011D0086810
:102AA000B9F1010F11D040F400100860D8F800000F
:102AB000444640F08060C8F80000FDF793FE0546EC
:102AC0000DE0086840F40020EFE740F48010ECE7E8
:102AD000FDF788FE401B022801D903208DE72068FE
:102AE0000001F5D5504688E7284402582DE9F04703
:102AF000454D044689464FF0000A2868C0438007C8
:102B00000AD0414E283E306820F080503060FDF7FA
:102B100069FE0746B04608E00120BDE8F08700BF27
:102B2000FDF760FEC01B022867D8D8F800008000BF
:102B3000F6D4208829684FF4FE0721F07C713E020C
:102B400041EA00502860207AA389B4F804C040020A
:102B50002D4D2D495B1E227CACF1010C1835091D51
:102B6000A0F5007080B2521ECCF3080C07EA0343B4
:102B700040EA0C00184306EA026210432860086825
:102B8000626920F44060104308600A68A06922F47A
:102B9000007202430A60281D0A6822F480720A60EB
:102BA00002684FF6F873E4699A4342EAC40202608D
:102BB0000868B9F1000F40F480720A6011D008680B
:102BC000B9F1010F11D040F080700860D8F8000012
:102BD000444640F08050C8F80000FDF703FE05466B
:102BE0000DE0086840F48000EFE740F40000ECE7F7
:102BF000FDF7F8FD401B022801D903208DE720686E
:102C00008000F5D5504688E728440258704701787F
:102C1000407841EA00207047FDF7EABD70B59CB0EE
:102C20004C216846FDF7DBFB202113A8FDF7D7FBFD
:102C30000220FEF7E5FB2149002421480A6822F022
:102C400001020A600968016841F4404101600168BD
:102C500001F440411B9101688904FCD54FF4A02385
:102C60000DF1280C0220099004219E128CE84300EB
:102C700008250FAE0122CDE90D0586E81300CDE948
:102C8000002368461294FFF7AFFA08B172B6FEE768
:102C900040201A903F210301CDE916500322CDE9CF
:102CA000180313AB13A883E816000221FFF7B0F84E
:102CB000002801D072B6FEE71CB070BD2C0400588D
:102CC000184802582C48F0B52C4A016841F47001AC
:102CD0000160106800F00F00072804D2106820F08F
:102CE0000F00C01D106026490020254C10340B68D1
:102CF000244D43F001030B6020600B682B400B60F8
:102D0000136803F00F03072B04D9136823F00F0394
:102D1000DB1D13601A4C1C4A18341C4B261D371D32
:102D20002060174C1A4D28343060261D3860371D3E
:102D300023603B1D35601C1D3A60251D2E1D18604B
:102D4000331D22602860326018600A680C4B114CF9
:102D500022F4802260330A60186020686FF30F004D
:102D6000B0F1005F03D20C490120C1F8080143F221
:102D7000D2000A490860F0BD88ED00E00020005252
:102D8000004402587FEDF6EA8002010100020202CF
:102D90000000FF010010005C008000510040005264
:102DA0002DE9F0410C46D0F8D412D0F8C83200EB2F
:102DB0008101D1F8C01229B304F00F02002702EB01
:102DC000820500EB8506B5694DB102EBC20203EB4B
:102DD0008202D269B5FBF2F302FB1352A2B1C1F831
:102DE0001472D0F8D42200EB8200D0F8C402036938
:102DF0002BB1D1F8080201F5047122469847002052
:102E0000BDE8F0810320FBE7002321461A46B761A5
:102E100000F0F9FDF3E770B50546D0F8D40205EBF4
:102E20008000D0F8C04294B1284600F0C8FCC4F835
:102E30000C02D5F8D40205EB8000D0F8C412D4F807
:102E40000402CA6804F503719047002070BD032096
:102E500070BD000070B5224D0446297800F0F0FBEB
:102E60002878002600F00F0000EB800004EB8000C3
:102E700086842046697800F0E3FB687800F00F0054
:102E800000EB800004EB8000A0F864612046A97884
:102E900000F0D6FBA87800F00F0000EB800004EBF8
:102EA00080008684C684D4F8D40204EB8000D0F875
:102EB000C01299B1D0F8C40240688047D4F8D40257
:102EC00004EB8000D0F8C00200F0C5FFD4F8D402B3
:102ED00004EB8000C0F8C062C4F8BC62002070BD82
:102EE0008000002410B5D0F8D41200EB8100D0F897
:102EF000C04284B1D0F8C41259B194F80002FF283E
:102F000007D08B68214694F801229847FF2084F867
:102F10000002002010BD032010BD00000A21018026
:102F2000004870478400002470B5822106460D4891
:102F300000F009FB012105460A4800F004FB81214D
:102F40000446084800F0FFFA0DB11021A9714FF0B6
:102F5000400104B1A18000B181804320308001484C
:102F600070BD00009000002470B5822106460D4817
:102F700000F0E9FA012105460A4800F0E4FA81214F
:102F80000446084800F0DFFA0DB11021A9714FF492
:102F9000007104B1A18000B18180432030800148DC
:102FA00070BD00009000002470B5822106460D48D7
:102FB00000F0C9FA012105460A4800F0C4FA81214F
:102FC0000446084800F0BFFA0DB11021A9714FF076
:102FD000400104B1A18000B18180432030800148CC
:102FE00070BD0000900000242DE9F0474FF40775F4
:102FF0000446284600F030FF06004FF0000965D077
:103000002946FDF7ECF9D4F8D40201273C4D4FF4E2
:10301000007A4FF0100804EB8000C0F8C062C4F8DA
:10302000BC62207CF0B3297840230222204600F0C5
:1030300034FC2878402300F00F0000EB800004EB04
:103040008000878402226978204600F026FC697897
:1030500008230322204601F00F0101EB810104EB5C
:103060008101A1F86471A97801F00F0101EB8101E0
:1030700004EB8101A1F82680A97800F00EFCA97864
:10308000C84601F00F0101EB810104EB81018F843F
:10309000C6F80492D4F8D40204EB8000D0F8C4023D
:1030A000006800E01AE006F501768047C6F8108057
:1030B000C6F8148032687AB1207CF8B14023697870
:1030C000204600F0F6FB0020BDE8F087D4F8D412CB
:1030D00004EB8101C1F8C0920220F5E729780222B1
:1030E0005346204600F0D9FB2878534600F00F00E5
:1030F00000EB800004EB80008784A3E75346DEE703
:103100008000002410B5D0F8D41200EB8101D1F872
:10311000C01259B1027C084C002AD1F8042207D011
:103120004023617800F0C5FB002010BD032010BDD6
:103130004FF40073F5E700008000002439B1D0F8A7
:10314000D42200EB8200C0F8C41200207047032094
:103150007047D0F8D42200EB8200D0F8C00218B13A
:10316000C0F804120020704703207047D0F8D43212
:1031700000EB8300D0F8C00228B1C0F81022C0F8DC
:10318000081200207047032070472DE9FC410646D5
:10319000D0F8D4020C46002106EB80000D46D0F892
:1031A000C0728DF80010ADF8041037B1217811F01D
:1031B00060022CD0202A48D102E00320BDE8FC8127
:1031C000E288E2B109060BD5D0F8C402394683681B
:1031D00060789847E288072A00D9072239462CE010
:1031E000607887F80002E088402800D34020394604
:1031F000C2B2304687F8012200F07FF82AE0D0F80A
:10320000C4020022214683686078984722E06078F3
:1032100030B101281ED00A2809D00B2815D110E0A2
:1032200096F89C02032810D1022201A905E096F825
:103230009C02032809D101226946304600F077F844
:1032400008E096F89C02032804D02146304600F09E
:1032500049F803252846B1E710B5D0F8D41200EBA1
:1032600081020121D2F8C0221AB1D2F8143213B16E
:1032700016E0032010BD0B490123C2F81432D2F826
:103280001032097801F00F0404EB840400EB84048D
:10329000A361D2F81032D2F8082200F0B4FB00216A
:1032A000084610BD8000002410B5D0F8B8220024D4
:1032B0005268904700B10324204610BD002070479B
:1032C0000020704713460A46002110B500F0F1FABD
:1032D000002010BD13460A46002110B500F093FBF4
:1032E000002010BD10B58021044600F06DFB204683
:1032F000BDE81040002100F067BB10B5C0F85821B0
:103300000323C0F89432C0F85C2113460A4600211A
:1033100000F0CFFA002010BD10B50521C0F89412BE
:1033200000231A46194600F0C4FA002010BD10B55B
:1033300082610223C0F89432C26113460A4600211A
:1033400000F061FB002010BD10B50421C0F89412FC
:1033500000231A46194600F056FB002010BD00005D
:1033600004A00A46024910B500F01BF9004810BD40
:103370004C04002443444320436F6E666967000099
:1033800012200880004870472400002404A00A4648
:10339000024910B500F005F9004810BD4C040024A6
:1033A00043444320496E74657266616365000000A2
:1033B00004200880004870472000002404A00A462A
:1033C000024910B500F0EDF8004810BD4C0400248F
:1033D00053544D6963726F656C656374726F6E6987
:1033E0006373000004A00A46024910B500F0D9F842
:1033F000004810BD4C04002453544D33322056690C
:10340000727475616C20436F6D506F7274000000B0
:1034100010B51A2008800B480A490830021F0968B5
:1034200000681468081809D007490822FFF7B2F9A4
:103430000549042220461031FFF7ACF90248801EEE
:1034400010BD000000E8F11F3A000024F8B5044662
:103450000D460020ADF800004888010A062947D033
:1034600006DC01290FD0022912D0032962D11DE008
:10347000072946D00F295DD1D4F8B402C26920E0F3
:10348000694690473BE0D4F8B412207C0A68F7E71D
:10349000207C02260028D4F8B80205D0C16A68460C
:1034A00088470146467036E0816AF8E7C0B20628D0
:1034B00040D2DFE800F003090D111519D4F8B40269
:1034C0004268B2B3207CDBE7D4F8B4028268F8E744
:1034D000D4F8B402C268F4E7D4F8B4020269F0E7A1
:1034E000D4F8B4024269ECE7D4F8B4028269E8E7A0
:1034F000207CF0B9D4F8B802416B68468847014691
:1035000009E0207CA8B9D4F8B802016B6846884766
:10351000014607204870EA888AB1BDF8000040B132
:10352000824200D902462046ADF80020FFF7FFFE98
:10353000F8BDFFE729462046FFF7D4FEF8E720460E
:10354000FFF702FFF4E778B542880D4601780026C0
:1035500004468A4212D9ADF800100AE0694600F02C
:1035600019F84178052904D181780646A94205D089
:1035700000266188BDF800209142EFD8304678BD22
:10358000002102E0491C401CC9B20278002AF9D18E
:10359000084670470A8803781A440A80017808446C
:1035A000704770B5002816460D4620D00446FFF738
:1035B000E7FF02220146100202EB4101814204D8DA
:1035C0002046FFF7DDFF4000801C30803378032168
:1035D00002202B700022697006E0431C2954D8B2E7
:1035E000411C641C2A54C8B221780029F5D170BD51
:1035F00001004FF0000004D0012901D0022901D0C0
:10360000032070470120704778B10023C0F8B8321A
:10361000C0F8C432C0F8D03209B1C0F8B4120121E8
:10362000027080F89C1200F0CFB80320704710B5EC
:10363000D0F8C802FDF70BFABDE81040FFF7D8BF7D
:1036400010B5D0F8C802FDF7DDF9BDE81040FFF76E
:10365000CFBF2DE9F041174604464FF0000521B1D8
:1036600094F89C02032842D04CE0D4F8941204F160
:103670001400022935D1D0E902639E4206D9F21A1C
:10368000394682602046FFF725FE0FE0B34214D191
:103690004068984211D3D4F8981288420DD2002283
:1036A00020461146FFF716FEC4F8985200231A462A
:1036B0001946204600F0FDF813E094F89C02032818
:1036C00008D1D4F8B802C16821B1C4F8D452C16895
:1036D000204688478021204600F076F92046FFF7F3
:1036E0001BFE94F8A00268B184F8A0520AE0D4F856
:1036F000B802426932B1C4F8D452426920469047B8
:10370000002800D10020BDE8F08170B513460446C2
:103710004FF0000221B194F89C02032830D03AE027
:10372000D4F8941204F5AA70032934D1D0E90251D7
:103730008D420AD96A1A82600846824200D3024644
:1037400019462046FFF7BEFD25E094F8AA0210F0C6
:103750001F0003D0012802D0022800D0002294F8D4
:103760009C02032808D1D4F8B802016921B1C4F839
:10377000D4220169204688472046FFF7E5FD0AE08C
:10378000D4F8B802836933B1C4F8D42282692046E0
:103790009047002800D1002070BD0020704710B570
:1037A000D0F8B812012280F89C22002429B10379B4
:1037B0004A68D9B2904700B10324204610BDD0F822
:1037C000C802FDF771B9000070B5017839BB154921
:1037D0000925154C02230022C1F8E004C0F8C812E4
:1037E00008460C600D71CB718A714B728A72CA7275
:1037F0000A734A738A73CA73FDF7CEFC08B1FCF7EB
:10380000C0FE08488021FDF7ACF8064840220021A0
:10381000FDF7ABF8034880220121FDF7A6F8002050
:1038200070BD00006C18002400000840D0F8C822C9
:1038300001F07F000B0600EBC00002EB800001D519
:10384000807D704790F85602704710B5D0F8D422AA
:1038500000EB8202D2F8B82222B190F89C32032BFE
:1038600002D004E0032010BD126A02B1904700208C
:1038700010BD10B5D0F8D42200EB8202D2F8B822E5
:1038800022B190F89C32032B02D004E0032010BD3B
:10389000526A02B19047002010BD10B51C46D0F806
:1038A000C80213462246FDF708F9BDE81040FFF7AD
:1038B0009FBE10B5D0F8C802FDF72EF9BDE8104044
:1038C000FFF796BE2DE9F041044601250020D4F80B
:1038D000B812064684F89C52C4F894026060C4F89A
:1038E000A40284F8A00231B14A6822B10021204626
:1038F000904700B103262046002240231146FFF7DF
:10390000CCFF4027A4F8645100223B46802120468A
:10391000C4F86071FFF7C1FFA58430462762BDE897
:10392000F08190F89C12042903D190F89D1280F840
:103930009C120020704710B590F89C12032905D105
:10394000D0F8B81211B1C96901B18847002010BD83
:1039500001740020704710B5D0F8C802FDF7FCFCD8
:10396000BDE81040FFF744BE70B5044600F2AA203F
:10397000054600F051F894F8AA020123B4F8B012F9
:1039800010F01F02C4F89432C4F898120AD0012A29
:103990000ED0022A12D000F080012046BDE870400F
:1039A00000F012B829462046BDE8704000F0D0B8BB
:1039B00029462046BDE8704000F013BA294620464B
:1039C000BDE8704000F05BB910B5D0F8C802FDF753
:1039D000BDF8BDE81040FFF70BBE10B5D0F8C80227
:1039E000FDF7D4FCBDE81040FFF702BE90F89C1232
:1039F000042903D090F89C1280F89D12042180F8CD
:103A00009C120020704710B5D0F8C802FDF7D7F817
:103A1000BDE81040FFF7ECBD70B5054608788C1C7A
:103A20002870487868702046FFF7F1F8A41C688079
:103A30002046FFF7ECF8A880A01CFFF7E8F8E88024
:103A400070BD38B504460020ADF80000A1B1C4F83F
:103A5000B812D4F8D40204EB8000D0F8B802C16ADE
:103A600019B168468847C4F8D002D4F8D802401C7F
:103A7000C4F8D802002038BD032038BDD0F8B832D1
:103A800002460020002B02D01B68104618477047E2
:103A90002DE9F0412C4E0446887800258846C1B2B5
:103AA0000129317006D941462046FFF71BFC03204F
:103AB000BDE8F08194F89C02022702280CD003286C
:103AC0001DD041462046FFF70DFC31782046FFF718
:103AD000EBFB03252846EBE789B320466160FFF73F
:103AE000CDFF050004D041462046FFF7FBFB1DE05B
:103AF0002046FFF729FC032084F89C02EAE7C1B1C5
:103B0000606888421BD0C1B22046FFF7CDFB3178F8
:103B100020466160FFF7B2FF050010D04146204605
:103B2000FFF7E0FB21792046FFF7BEFB84F89C728B
:103B3000D0E7616084F89C722046FFF7B5FB204611
:103B4000FFF702FCC6E700007C000024FFF745BF3A
:103B50002DE9F0410A784FF0000512F060020CD018
:103B6000202A01D0402A7DD1D0F8D42200EB820255
:103B7000D2F8B8229268904731E04B7800220126B3
:103B80000A2B6FD2DFE803F041666E586E08056EAF
:103B90002D29FFF75BFC67E004468888D8B9C88800
:103BA000C8B94888802816D294F89C2200F07F0774
:103BB000032A10D03946204684F89E72FFF7CBFEC8
:103BC0002046FFF7C1FB1FB1022084F89C024BE0A6
:103BD00084F89C6248E0204644E0FFF759FF054620
:103BE00042E0CB88012B3DD190F89C32012B04D0D0
:103BF000022B02D0032B35D104E000F108018260D2
:103C0000012216E00122011D13E090F89C22012AF6
:103C100003D0022A01D0032A24D1CA88022A21D142
:103C2000D0F8A412C66009B10321C160022200F1DC
:103C30000C01FFF77CFB17E04A88012A02D0022A18
:103C400003D00FE0C0F8A46216E08988090A80F862
:103C5000A01211E090F89C32012B08D0022B06D064
:103C6000032B04D0FFF73EFB2846BDE8F0814988CE
:103C70000129F9D1C0F8A422FFF766FBF4E72DE98A
:103C8000F0410A780E460979054612F060004FF0BF
:103C90000008CCB20BD0202801D040286AD12146A0
:103CA0002846FFF70BFBFF2800D0D8B396E07078CA
:103CB000C8B3012824D003285CD195F89C020228BF
:103CC00002D0032856D10CE0002C53D0802C51D0C8
:103CD00021462846FFF778FE80212846FFF774FE2C
:103CE0007CE0708840B93CB1802C05D0F08818B9D0
:103CF00021462846FFF768FE2846FFF725FB6DE0C2
:103D000095F89C020228DFD0032863D1708880BB1D
:103D1000600603D021462846FFF789FC2846FFF7B6
:103D200013FBBCE700E00AE0C5F8D402D5F8B802FE
:103D30008268F2B131462846904780464EE095F8B9
:103D40009C020027022802D0032843D113E00CB1C3
:103D5000802C3FD1200604F07F0000EB800005EBB3
:103D6000800101D5143101E001F5AA7102220F6032
:103D70002CE033E02EE0200604F00F0000EB800082
:103D800005EB800009D5808C20B304F07F0000EBA8
:103D9000800005EB800614360AE0B0F86401C8B173
:103DA00004F07F0000EB800005EB800606F5AA76A4
:103DB0004CB1802C07D021462846FFF737FD10B1C3
:103DC0000120306000E03760022231462846FFF7CC
:103DD000AEFA03E031462846FFF784FA4046BDE8D4
:103DE000F08170B5054608780E464FF0000410F0DB
:103DF000600003D0202801D0402827D195F89C02EC
:103E0000012803D0022801D003281FD1B088C1B2F5
:103E100001291AD8C1B22846FFF752FAFF280CD060
:103E200058B9D5F8B8128A683AB1C5F8D40228460C
:103E30008A6831469047044600E00324F088204316
:103E400007D12846FFF780FA03E031462846FFF7FE
:103E500049FA204670BD7047004870474C16002450
:103E600070B54D7801230A78012D1C4C02F00F0526
:103E700003FA05F3D0F81C5817D000EB421245EABC
:103E80000343C0F81C38D2F8000B00040BD40B8994
:103E90000979D2F8000BC3F30A03184344EA8141BD
:103EA0000843C2F8000B002070BD9EB23543C0F835
:103EB0001C5800EB4213D3F800090004F3D40D8919
:103EC0000979D3F80009C5F30A058904284341EAB2
:103ED000825108432043C3F80009E4E70080001042
:103EE000D0F800196FF30A01C0F80019D0F80418CF
:103EF00041F48071C0F804180020704770B50D4679
:103F00000446C2F307211E460498012922D0E06826
:103F100040F04000E060204600F03CF8C6F3072186
:103F20000029A16B2ED021F48031A163C5F3074194
:103F300001290ED1E16D154A89B2E165E16D1143A8
:103F4000E165A16841F00601A160A16841F020018E
:103F5000A16070BDA26BC3B20D49012B22F4803069
:103F6000A063E06800EA0100E060E06820F440102F
:103F7000E06003D1E06840F48010E060204600F08B
:103F800009F8D3E741F48031CFE700000000EE03E9
:103F9000BFFFBDFF08B500214FF070620091009B8C
:103FA0005B1C009393420CD80369002BF7DA009155
:103FB000016941F0010101610099491C00919142A0
:103FC00001D9032008BD0169C907F5D1002008BD4A
:103FD00070B50A7801234C78012C00EB42122CD0EA
:103FE000D2F8004B002C0BDAD2F8004B44F00064FE
:103FF000C2F8004BD2F8004B44F08044C2F8004BAA
:104000000C78D0F83C5804F00F0403FA04F425EAC5
:104010000444C0F83C480978D0F81C4801F00F016E
:104020008B401C4924EA0343C0F81C38D2F8000B2B
:104030000840C2F8000B002070BDD2F80049002CE7
:104040000BDAD2F8004944F00064C2F80049D2F813
:10405000004944F08044C2F800490D78D0F83C484B
:1040600005F00F050C4E03FA05F5ADB2AC43C0F8F0
:104070003C48D0F81C48097801F00F018B4099B2F8
:104080008C43C0F81C48D2F800093040C2F800093F
:10409000D1E700000078F3EF007833ECD0F8001E91
:1040A00021F00301C0F8001ED0F8041821F002012D
:1040B000C0F8041800207047D0F8001E21F003015A
:1040C000C0F8001ED0F8041841F00201C0F804182E
:1040D000002070472DE9F04F00250F46904604461A
:1040E0002E46284604EB8001C1F80451401C0F28DD
:1040F000F8D3C3F307405FEA0009204610D0806B75
:1041000040F40011C4F83810C8F30720C4F8005E6A
:104110000128204617D0D0F8001841F0030119E01B
:10412000D0F8040840F00201C4F80418A06B20F491
:104130000011A163206840F040012160206840F038
:1041400080012160E0E7D4F80018380E204601D045
:1041500041F00101C0F80018102100F088FA00B108
:104160000126204600F067FA00B101264FF67F3A9B
:104170004FF0006CC4F810584FF0904BC4F814582E
:10418000C4F81C580020FAB214E000BF04EB401140
:10419000D1F80039002B06DA10B1C1F800B904E0FB
:1041A000C4F800C901E0C1F80059C1F81059C1F8BC
:1041B00008A9401C8242E9D8002013E004EB40111A
:1041C000D1F8003B002B06DA10B1C1F800BB04E0C7
:1041D000C4F800CB01E0C1F8005BC1F8105BC1F886
:1041E00008AB401C8242E9D8D4F81008C7F3074254
:1041F000002A6FF0804120F48072C4F81028A56175
:10420000616103D1A06940F01000A061A069C8F30A
:104210000741094A1043A06119B1A06940F00800A4
:10422000A061B9F1010F03D1A06904490843A0615D
:104230003046BDE8F08F000000383C8004000040AC
:10424000816821F0010181600020704710B5144C95
:10425000036CA34203D9D0F8003B002B1EDB0023E4
:10426000C0F8103B0129D0F8101B41F40021C0F820
:10427000101BD0F8101B41F01801C0F8101BD0F82B
:10428000101B41F0C041C0F8101B07D1C0F8142B1F
:10429000D0F8001B41F08021C0F8001B002010BDA9
:1042A0000A30544F0B784A78012A00EB43100BD0A8
:1042B000D0F8002B22F40012C0F8002B0979032952
:1042C00014D0022912D017E0D0F8002922F40012ED
:1042D000C0F800290979032901D002290CD1D0F8AE
:1042E000001941F08051C0F8001905E0D0F8001B1A
:1042F00041F08051C0F8001B002070470A784B78CD
:10430000D1B2012B00EB421012D0D0F8002B002AC2
:1043100006DB29B1D0F8001B21F08041C0F8001B5A
:10432000D0F8001B41F40011C0F8001B00207047BA
:10433000D0F80029002A06DB29B1D0F8001921F0B5
:104340008041C0F80019D0F8001941F40011C0F8FC
:104350000019EBE7F8B50B786FF060464F788A4D9F
:10436000DCB2012F00EB43132BD0D3F8107B002CD1
:1043700007EAC544C3F8104BD3F8104B04EA050410
:10438000C3F8104B7ED00D69002D7CD08C6825447D
:104390006D1EB5FBF4F5ADB26C430C6206EAC54583
:1043A000D3F8104B2C43C3F8104BD3F8104B0D6AC5
:1043B000C5F3120554EA0504C3F8104B012A6ED068
:1043C000C9E00F6937B3D3F810796FF31207C3F858
:1043D0001079D3F8107907EA0507C3F810794CB3C0
:1043E0000F698D68D3F810C92F447F1EB7FBF5F510
:1043F00006EAC54545EA0C05C3F810590E69D3F81D
:104400001059C6F312063543C3F810590D79012D22
:104410001CD027E0D3F810692E40C3F81069D3F8F8
:10442000105945F40025C3F81059D3F810596FF30B
:10443000120515E00E698D68AE4200D90D61D0F805
:10444000106946F40026C0F81069D7E7D3F8105970
:1044500025F0C045C3F81059D3F8105945F0005560
:10446000C3F81059012A1BD000EB4413D3F80049BC
:1044700044F00444C3F800490C79012C31D00A6996
:1044800072B301E042E055E00B78D0F83418012215
:1044900003F00F039A401143C0F8341871E056E05E
:1044A000CA691AB100EB4413C3F814290979012928
:1044B0000ED1D0F80818C90500EB4411D1F8002935
:1044C00002D442F0005201E042F08052C1F80029CB
:1044D00000EB4410D0F8001941F00441C0F8001975
:1044E0004FE0D0F80848E405D3F8004902D444F07E
:1044F000005401E044F08054C3F8004900920B8A54
:104500000A78C9689BB200F0E1F93AE00C690CB195
:104510008C680C618C680C62C4F31205D0F8104BE7
:104520002C43C0F8104BD0F8104B44F40024C0F8D2
:10453000104B43E78D68D3F8104BC5F312052C439D
:10454000C3F8104BD3F8104B44F4002434E7CA6886
:104550000AB1C3F8142B097901290CD1D0F8080845
:10456000C005D3F8000B02D440F0005001E040F049
:104570008050C3F8000BD3F8000B40F00440C3F8A0
:10458000000B0020F8BD0000FFFF07E038B5002257
:1045900042F21074002300920A784D78012D00EB4E
:1045A000421219D0D2F8005B002D3CDAD2F8005B41
:1045B00045F00065C2F8005B0A7800EB4212D2F8C1
:1045C000005B45F08045C2F8005B009A521C0092E7
:1045D000A24221D9012326E0D2F80059002D22DA87
:1045E000D2F8005945F00065C2F800590A7800EB8E
:1045F0004212D2F8005945F08045C2F80059009A9D
:10460000521C0092A242E5D80A7800EB4212D2F87E
:104610000029002AF3DB06E00A7800EB4212D2F808
:10462000002B002AD1DB184638BD816841F001011A
:1046300081600020704708B500214FF07062009142
:10464000009B5B1C009393420AD80369002BF7DAA6
:104650000091102303610099491C0091914201D9F6
:10466000032008BD0169C906F5D4002008BD18B5AE
:1046700000224FF070630092009C641C00949C42E6
:104680000CD80469002CF7DA2024009244EA811146
:1046900001610099491C0091994201D9032018BD7C
:1046A00001698906F5D4002018BDD0F8080810F07B
:1046B000060004D0022803D0062801D00F2070473E
:1046C00002207047406900F001007047D0F81818C8
:1046D000D0F81C08084080B27047D0F81818D0F8FD
:1046E0001C080840000C704710B5D0F8102801F0E5
:1046F0000F0300EB4114D0F83418D4F80809D9405E
:1047000001F0010142EAC111084010BD00EB411166
:10471000D1F8081BD0F81408084070474169806937
:10472000084070470346084630B5940802F003017C
:10473000002203F5805303E01D68521C40F8045B1F
:10474000A242F9D300290CD01C680023491EDD00C9
:10475000090403F10103090C24FA05F200F8012B06
:10476000F4D130BD70B50446C06801294FF0000592
:1047700020F0C040E06001D079B120E0E06840F076
:104780000050E0600A20FBF7FFFE60690A3510F078
:10479000010F10D1C82DF5D30DE0E06840F0804046
:1047A000E0600A20FBF7F0FE60690A3510F0010FA7
:1047B00001D0C82DF5D3C82D01D0002070BD012037
:1047C00070BDD0F800284FF4FE6303EA011322F411
:1047D000FE62C0F80028D0F800181943C0F800188D
:1047E00000207047022A3ED1264A274B0A449A42AB
:1047F00001D20F2138E0254A254B0A449A4201D2C2
:104800000E2131E0234A244B0A449A4201D20D2161
:104810002AE0224A224B0A449A4201D20C2123E088
:10482000204B214A0B44934201D20B211CE01F4B29
:104830001F4A0B44934201D20A2115E01D4B1E4A28
:104840000B4493420FD31D4B1D4A0B44934201D29C
:10485000082109E01B4B1C4A1944914201D207214F
:1048600002E0062100E00921C2684FF4705322F4EF
:104870007052C26003EA8123C1681943C1600020FD
:1048800070470000405327FF00350C00401E1BFFFF
:1048900040420F0000DC0BFF804F1200808CF9FEBD
:1048A00020D6130060B6E5FE60E3160000D3CEFE0E
:1048B00040771B00C05BB3FEC091210000CA91FE8F
:1048C00020753800E05459FEE09C410010B5029C70
:1048D00074B900EB0232DB1C00209B0802F5805209
:1048E00004E000BF51F8044B1460401C9842F9D317
:1048F000002010BDFEE7090700284FEA116104DB24
:1049000000F1E02080F80014704700F00F0000F183
:10491000E02080F8141D7047294B00201968890396
:1049200011D4BFF34F8FBFF36F8F26490860BFF3D9
:104930004F8FBFF36F8F196841F400311960BFF3D7
:104940004F8FBFF36F8F1968C90322D41C49703190
:104950000860BFF34F8F081F43F6FF740068194DBE
:104960001035C0F34E31C0F3C90204EA41161046B7
:1049700046EA80772F60401EFAD2491EF5D2BFF377
:104980004F8F186840F480301860BFF34F8FBFF32B
:104990006F8FFBF735FFFEF741F9FDF717FFFDF7C6
:1049A0002BFF0D4808A1FBF7E7FC0B48FBF7F8FCD1
:1049B00081B20948FBF7CEFD6420FBF7E5FDF0E787
:1049C00014ED00E050EF00E055534220544553549D
:1049D000202E2E2E0A0000000C0100244FF0407003
:1049E000E1EE100A7047000000000102030401021A
:1049F0000304060708090000184A00080000002404
:104A00000C010000D4020008244B00080C01002413
:104A1000A4290000F002000881330008B133000827
:104A2000BD330008E5330008113400086133000885
:104A30008D33000800000000040309041201000285
:104A400002020040830440570002010203010000FB
:104A50001A03000000000000000000000000000039
:104A60000000000000000000000000001505000824
:104A7000110500080D05000839050008510500085A
:104A80000100000010000000000000000090D003B2
:104A90000090D00300000000810182000A0600029D
:104AA000000000400100000009024300020100C0B4
:104AB0003209040000010202010005240010010572
:104AC00024010001042402020524060001070582D6
:104AD0000308001009040100020A00000007050194
:104AE000024000000705810240000000E92F000895
:104AF000552E00088B31000800000000E52E00084C
:104B0000A12D0008172E0008000000000000000082
:104B100000000000692F0008292F0008A92F0008B5
:044B20001D2F00083D
:040000050800029954
:00000001FF
