:020000040800F2
:1000000068DD0024D10300081F370008CB31000849
:100010001D370008C312000829390008000000003D
:10002000000000000000000000000000653700082C
:10003000C5120008000000002137000867370008DB
:10004000EF030008EF030008EF030008EF030008C8
:10005000EF030008EF030008EF030008EF030008B8
:10006000EF030008EF030008EF030008EF030008A8
:10007000EF030008EF030008EF030008EF03000898
:10008000EF030008EF030008EF030008EF03000888
:10009000EF030008EF030008EF030008EF03000878
:1000A000EF030008EF030008EF030008EF03000868
:1000B000EF030008EF030008EF030008EF03000858
:1000C000EF030008EF030008EF030008EF03000848
:1000D000EF030008EF030008EF030008EF03000838
:1000E000EF030008EF03000800000000EF03000822
:1000F000EF030008EF030008EF030008EF03000818
:10010000EF030008EF030008EF030008EF03000807
:10011000EF030008EF030008EF030008EF030008F7
:10012000EF030008EF030008EF030008EF030008E7
:10013000EF030008EF030008EF030008EF030008D7
:1001400000000000000000000000000000000000AF
:10015000EF030008EF030008EF030008EF030008B7
:10016000EF030008EF030008EF030008EF030008A7
:10017000EF030008EF030008EF030008EF03000897
:10018000EF030008EF030008EF030008EF03000887
:10019000EF030008EF030008EF030008EF03000877
:1001A000EF030008EF030008EF030008EF03000867
:1001B000EF030008EF030008EF030008EF03000857
:1001C000EF030008EF030008EF030008EF03000847
:1001D000EF030008EF030008EF030008EF03000837
:1001E000EF030008EF030008EF030008EF03000827
:1001F000EF030008EF030008EF030008EF03000817
:10020000EF030008EF030008EF030008EF03000806
:10021000EF030008EF030008EF030008EF030008F6
:10022000EF030008EF030008EF03000800000000E0
:10023000EF030008EF03000800000000EF030008D0
:10024000EF030008EF030008EF030008EF030008C6
:10025000EF030008EF030008EF030008EF030008B6
:10026000EF030008EF030008EF030008EF030008A6
:10027000EF030008EF030008EF0300080000000090
:10028000EF030008EF030008EF0300080000000080
:1002900000000000EF03000800F002F800F06EF824
:1002A0000AA090E8000C82448344AAF10107DA45D1
:1002B00001D100F063F8AFF2090EBAE80F0013F0B5
:1002C000010F18BFFB1A43F00103184748C900008B
:1002D00068C900000A444FF0000C10F8013B13F00D
:1002E000070408BF10F8014B1D1108BF10F8015B8F
:1002F000641E05D010F8016B641E01F8016BF9D182
:1003000013F0080F1EBF10F8014BAD1C0C1B09D1D8
:100310006D1E58BF01F801CBFAD505E014F8016B4A
:1003200001F8016B6D1EF9D59142D6D370470000DC
:100330000023002400250026103A28BF78C1FBD8EE
:10034000520728BF30C148BF0B607047642900F0D6
:10035000CD80732900F04D82002070471FB50CF04E
:1003600037FB9DE8030000F0A1FD00F010F900F05C
:10037000A9FA1FBD10B500F00EFB10BD00F071FB17
:100380001146FFF7EBFF05F00DFD00F061FD03B432
:10039000FFF7F0FF03BC00F003FF00000B49D1F8AA
:1003A00000C04A685CF8043B1068184442F8040B2B
:1003B0008C4528BFA1F1DC0C8A4228BFA1F1DC02E8
:1003C000C1F800C04A6020F000407047047C00245F
:1003D0000A4880470A4880470A480047FEE7FEE788
:1003E000FEE7FEE7FEE7FEE7FEE7FEE7FEE7FEE7E5
:1003F00005480649064A074B70470000411A0008A5
:100400003138000899020008687D002468DD002466
:10041000689D0024689D00240FB4044910B503AA08
:10042000029800F0EBF910BC5DF814FB607C00242E
:100430002DE9F0410E460446002020622046E16886
:10044000884730B3252805D0D4E901219047206A98
:10045000401CF2E7E168204600278847050018D0D5
:10046000A5F14100192802D820354FF40067324623
:10047000294620462760FFF769FF40B1012804D0D4
:10048000F61D26F007060836D8E7361DD6E72846BB
:10049000DAE7206ABDE8F08170B50C460546012A0E
:1004A00005D02878800600D5EA69002302E0012300
:1004B00005E05B1C934202D2E05C0028F9D1A869F8
:1004C000E618C01AA861286A184428622846AFF3C3
:1004D000008004E0D5E9012114F8010B9047B442F3
:1004E000F8D32846AFF3008070BD00002DE9F0413D
:1004F0000646002410687529314616A510D0AFF3C2
:100500000080002802DA404213A507E031688A071C
:1005100001D512A502E0490704D511A5012401E087
:10052000AFF3008000210A2206F1240709E0B0FBA6
:10053000F2FCB0FBF2F302FB1C003030785418469A
:10054000491C0028F3D123462A463046BDE8F04135
:1005500000F0E4B8000000002D0000002B000000B7
:10056000200000000B4910B5A1F17C020A4CC2E941
:100570003712372106E000EB104342F82130074BD9
:1005800000FB03400B1EA1F10101F4DC10BD0120B2
:10059000E8E70000A47B0024E119D666CD0D010038
:1005A00040EA010310B59B070FD1042A0DD310C8F0
:1005B00008C9121F9C42F8D020BA19BA884201D942
:1005C000012010BD4FF0FF3010BD1AB1D30703D08A
:1005D000521C07E0002010BD10F8013B11F8014B40
:1005E0001B1B07D110F8013B11F8014B1B1B01D15C
:1005F000921EF1D1184610BD10B5431C02E010F850
:10060000011B71B18107FAD14FF0013202C88C1A77
:100610008C4314EAC211F9D0C01A0A0603D0C01ED6
:1006200010BDC01A10BD0A0401D0801E10BD090201
:10063000FCD0401E10BD032A40F2308010F0030CA5
:1006400000F0158011F8013BBCF1020F624498BF25
:1006500011F801CB00F8013B38BF11F8013BA2F1C2
:10066000040298BF00F801CB38BF00F8013B11F03D
:10067000030300F0D580083AC0F0088051F8043B2D
:10068000083A51F804CBA0E80810F5E7121D5CBF4A
:1006900051F8043B40F8043BAFF30080D20724BF7D
:1006A00011F8013B11F801CB48BF11F8012B24BF11
:1006B00000F8013B00F801CB48BF00F8012B704760
:1006C0004FF0000200B5134694469646203922BFEB
:1006D000A0E80C50A0E80C50B1F12001BFF4F7AF36
:1006E000090728BFA0E80C5048BF0CC05DF804EB18
:1006F000890028BF40F8042B08BF704748BF20F886
:10070000022B11F0804F18BF00F8012B7047704783
:100710007047704700487047087D00242DE9F04776
:100720000D4699469246044600F124080168880661
:1007300004D5E06921F01001216000E00120A84209
:1007400001DD471B00E00027A1697A1902EB0900CF
:10075000081AA0612078C00602D42046AFF30080BA
:10076000002608E0D4E901211AF806009047206A23
:10077000401C761C20624E45F4DB2078C0060AD56A
:100780002046AFF3008006E0D4E9012130209047F5
:10079000206A401C2062381EA7F10107F4DC07E044
:1007A000D4E9012118F805009047206A401C206216
:1007B000281EA5F10105F3DC2046AFF30080207868
:1007C000000602D50220BDE8F0870120FBE710B546
:1007D000436913B1AFF3008001E0FFF75DFE012034
:1007E00010BD127800F124010A7000224A70012223
:1007F000EDE711684FF0FF32E9E70000074B70B5F5
:100800000D467B4400F047F80446284600F056F8B1
:1008100010B14FF0FF3070BD204670BDBF400000EA
:1008200010B5203AC0F00B80B1E81850203AA0E88B
:100830001850B1E81850A0E81850BFF4F5AF5FEABF
:10084000027C24BFB1E81850A0E8185044BF18C972
:1008500018C0BDE810405FEA827C24BF51F8043B19
:1008600040F8043B08BF7047D20728BF31F8023B6D
:1008700048BF11F8012B28BF20F8023B48BF00F801
:10088000012B704700487047087D002401694A1C0D
:1008900002610878704700B58FB0CDE901310021C1
:1008A000059105497944CDE9031011466846FFF7E3
:1008B000BFFD0FB000BD0000E5FFFFFF007B00F0B3
:1008C0008000704710B542485421FFF7F9FE4148B7
:1008D0005421FFF7F5FE40485421FFF7F1FE3F4950
:1008E0003B483C4A3F4B08603D490A603A49196021
:1008F000531C0365481C1065012008653B48344AB9
:1009000039A1784400F008FA20B9384878440A3808
:1009100000F0A7FA37482F4A35A1784400F0FCF9D7
:1009200020B9344878440A3800F09BFA32482A4A01
:100930002FA1784400F0F0F920B92F4878440A3804
:1009400000F08FFA40232248DC000021224600F00C
:10095000BFF920B125487844543800F082FA1D4888
:1009600022464023002100F0B3F920B12148784409
:10097000543800F076FA184822461023002100F07F
:10098000A7F9002806D01C487844BDE81040563826
:1009900000F067BA10BD104870B5006D20F001047A
:1009A0000B4800F02FFA0B4800F02CFA0A4800F030
:1009B00029FA09E0206D20F00105204600F022FA16
:1009C000204600F073F82C46002CF3D170BD0000D7
:1009D0000C7C0024607C0024B47C0024684A002441
:1009E0006C4A0024704A002472000000EEC100002E
:1009F00077000000DAC10000C6C100000EB5CDE9E5
:100A00000001FFF7F9FD029069460120ABBE0EBD63
:100A100008B5694600900220ABBE08BD1FB58DE841
:100A2000070069460520ABBE04B010BD1FB58DE8B8
:100A30000F0069460620ABBEF6E708B56946009090
:100A40000920ABBE08BD1CB5CDE9000169460A20EE
:100A5000ABBE1CBD704708B5694600900C20ABBE0C
:100A600008BD7546FFF70EFFAE46050069465346C2
:100A700020F00700854618B020B5FFF7B9FCBDE8A7
:100A800020404FF000064FF000074FF000084FF0F5
:100A9000000B21F00701AC46ACE8C009ACE8C00986
:100AA000ACE8C009ACE8C0098D46704770B5044693
:100AB000051F00F0DFF90068002C14BF446870BD0A
:100AC000002C18BFAC423CBF20466468F8D30168D4
:100AD0000A18AA4218BF456003D12A680546114486
:100AE000016028684119A1421CBF6C6070BD61683B
:100AF000696021680844286070BD2DE9F04705460B
:100B00000C46C86820F4201040F48000C8608006BD
:100B100002D5084600F0FBFAE06841F282014FF08E
:100B2000FF390140022903D0204600F099FAB5E0D0
:100B300000F42041B1F5004F0FD1C00306D5616824
:100B4000E06A884200D80846606006E02069E062FA
:100B500060606069FFF77FFFA061A0680022EEB2CD
:100B600000280DDAE1688B050AD4C043A06041F487
:100B700090302260E0606068411C61600670A5E012
:100B8000E0689046226040F40050E060206968BB55
:100B90006069FFF752FF012704F12405A0B1A08985
:100BA00010F4407F08D0E06900F0AFF9206118B17F
:100BB000E06840F4006016E0E7612561E06820F439
:100BC000407040F480600EE0E06900F09EF900287B
:100BD0002061F1D0E06840F4006010F4407FE060F4
:100BE00002D140F48070E06020696060E0682569AF
:100BF0006FF0010AC1051FD56168E06A884200D81C
:100C00000846411B04D02246284600F033FAF0BBC8
:100C1000E068010203D5E562C4E9015854E0691CAB
:100C2000E1626160E16940F48030491EC4E902106C
:100C300030462E70BDE8F087010202D500F4803204
:100C40000AE06068411C61600670E0680A2E40F4AA
:100C50008030E06006D00022E16A6068814203D9FA
:100C60000B4602E00122F7E70346A7895B1B7F05DD
:100C700003D4E7699F4200DDE2B1814200D801461A
:100C8000E5620F1AC4E90158002B09DD00E005E018
:100C900022461946284600F0EDF908B14846C9E752
:100CA00047B1A069E5626560C01BA061E06840F0E3
:100CB0001000E060E068000208D56168A069E562A4
:100CC000491B08446560A0615046B3E73046B1E770
:100CD00070B5C468A50713D0650211D4B2F5807F42
:100CE00009D0B2F5007F06D0B2F5806F08D101239C
:100CF00000F1240106E05D1E6FF07F46B54201D38E
:100D0000012070BD0161C361416024F47061114331
:100D1000C160002070BD00002DE9F0410C4607467F
:100D20001646104600F06EF82078611C61280AD043
:100D3000722802D077283CD102E00125002405E08A
:100D40000225042402E0082448F2020511F8010BF0
:100D50002B2806D0622809D011F8010C74280AD07B
:100D60000BE045F0030544F00204EFE745F004050D
:100D700044F00104EAE744F0100438462146FFF746
:100D80003DFE411C15D00021316171604FF40071AE
:100D9000F560F1617061200704D530460222002120
:100DA00000F0E2F8306D40F0010030653046BDE8FB
:100DB000F0810020FBE72DE9F0410D460646104C7E
:100DC000206DC10704D0410804D020F00104F7E7EA
:100DD00022460EE0542000F098F807000ED0206D57
:100DE00047F001010843542120653846FFF768FCAD
:100DF0003A4629463046BDE8F0418DE70020D6E767
:100E00000C7C00242DE9F04704464FF000094FF018
:100E1000FF37C568D4E90486A80707D0204600F04C
:100E200053F93046FFF7F4FD002802DA3846BDE8F2
:100E3000F087280502D54046FFF738FE4C212046B2
:100E4000FFF73EFC206D20F0010020654846EEE7EC
:100E500010B50446AFF300802046BDE81040FFF710
:100E600096BA10B500F07AF9BDE8104000F070B9FC
:100E70007047000000487047107D0024704770479D
:100E80007047704738B504460A4600206946AFF3FC
:100E90000080002808BF38BD02460099204600F0B7
:100EA0008CF9012038BD012000F072B9F8B5AFF31C
:100EB0000080054600200C46102000BF0646A819F9
:100EC000A0420DD9324669460020AFF300800700EA
:100ED00008BF00F05DF90098A04218BF0546C4198C
:100EE000FFF7C8FF05600746F01D20F00700461910
:100EF000284600F05BF9B44208BFF8BDA21B31469A
:100F00003868BDE8F84000F058B970B50646FFF7FC
:100F1000B1FF056806F10B0020F00704B4429CBF46
:100F2000002070BD2B466A68BAB11068A04210D389
:100F300004F1080188423CBF5068586007D35168EB
:100F4000101941601168091B016058601460101D80
:100F500070BD13465268002AE7D121462846FFF7A4
:100F600091FF0028DED170BD2DE9F0410446164600
:100F70000D464769007B80072ED03846FFF75DFDA0
:100F800050BB3EB3012E02D0022E25D104E02046F4
:100F900000F02DF905441DE03846FFF75CFDE168DF
:100FA000002841F01001E16005DA204600F058F811
:100FB0000120BDE8F081C9030BD56268E16A914266
:100FC00000D81146A26911442269891A814200DDC4
:100FD00008460544002D01DA0220EAE7E16A60686C
:100FE000E268814206D29103E06203D522F4003127
:100FF00041F01002A6690027AE4213DCE16A81428B
:1010000001D90B4600E0034603EB060C2369ACEB69
:10101000030CAC4506DD814201D98C4600E08446D4
:101020009C4505D1A760276042F02000A5620DE035
:10103000AD1BE669AE1B8142A66000D90846C01A06
:10104000281A20605819606022F0200003490840E7
:10105000E060002084F84870ABE70000BFCFD7FF06
:10106000C16821F4001141F08001C160002181605C
:10107000016070472DE9F047814614460E464FF057
:10108000FF383248D5685769054209D03846A1690A
:10109000FFF7D9FC002811DB2C48C0430540E56070
:1010A0002B46324649463846FFF7B8FCA16920F086
:1010B0000042B21A11440028A16103D02046FFF774
:1010C000CFFF4046BDE8F08770B504460569C06AA9
:1010D0006168884200D80846E16821F42011E16087
:1010E000C90312D5A84208D02246411B2846FFF763
:1010F000C1FF10B14FF0FF3070BD0020E562C4E9C0
:101100000150E06820F48030E060002070BD10B530
:101110000446C06820F02000E060A16AA06988420F
:101120000DD02046FFF7D0FFE06820F4405040F09B
:101130001000E060A06AA0612069E062606044F293
:101140004001E0688843E06010BD0000100002002C
:10115000002801D000F024B87047000010B5014607
:1011600002A000F065F8012010BD0000534947526D
:10117000545245443A2052656469726563743A205A
:1011800063616E2774206F70656E3A200000000066
:1011900010B500F067F8BDE81040FFF7D9BF0000B8
:1011A00001491820ABBEFEE72600020000210160C5
:1011B000C0E90110704710207047034640688C4614
:1011C000002818BF88423CBF03464068F8D318681F
:1011D0001844884207D00CF1030020F00700001DDE
:1011E000411A521A0146081D0A60FFF75FBC10B58C
:1011F0000146C268900703D0900607D5886A0AE0C6
:10120000FFF788FA01210160881E10BD8B694868CC
:1012100018440B69C01A91F848301BB191F8491075
:10122000401A10BD1103FCD50028FADD401E10BD88
:1012300070B505460C460A2000E06D1C00F03AF837
:1012400035B128780028F8D102E0641C00F032F8AB
:1012500014B120780028F8D1BDE870400A2000F0D1
:1012600029B8000010B5012805D0002103A0FFF720
:10127000DFFF012010BD09A1F8E7000053494752E4
:10128000544D454D3A204F7574206F662068656156
:1012900070206D656D6F7279000000003A2048651E
:1012A0006170206D656D6F727920636F72727570F9
:1012B0007465640008B569468DF800000320ABBE74
:1012C00008BDFEE7704770B5A2B0064600244FF493
:1012D000C36001258DF80F5002238DF81D4069036E
:1012E0008DF80E5009948DF81F400D9020208DF838
:1012F00004508DF8325042028DF8605006914FF044
:1013000040518DF8384002948DF861408DF81C40B2
:101310008DF828408DF862408DF80C400B948DF8C4
:101320001E500F948DF8115012948DF840408DF896
:1013300031408DF8124014948DF856401790304685
:1013400016938DF8205005928DF854408DF830405A
:101350008DF81050009169468DF80D408DF855407C
:1013600011948DF84C5000F04DFA1B9568058DF8DE
:1013700071404FF406718DF8685019948DF88040D3
:101380008DF870401F908DF878401D9030468DF894
:101390008140219119A900F0DBF922B070BD002035
:1013A000704701F0E9B80000024810B500F088FE6F
:1013B000002010BD984A002413460A4601460448FE
:1013C00010B500F01BFE002801D04FF0FF3010BD1B
:1013D000984A002413460A460146044810B500F016
:1013E00077FF002801D04FF0FF3010BD984A00244D
:1013F0002DE9F04F836A00F1180593468C680027A9
:101400001E46B94655F82320D2F80CC0BCF1000F97
:101410007EDB05EB830CDCF814C0BCF1000F77D148
:1014200091F800C05FEA4C7C43D5D2F80CC0D1F8EB
:1014300024806FF30F0C4CEA080CC2F80CC0D2F8F1
:101440000CC04CF4803CC2F80CC0D0F800C0DCF8F2
:10145000608048F48018CCF8608091F800C05FEAA2
:101460000C7C26D5B1F82C80D2F808C068F31F4C4C
:10147000C2F808C0D2F80CC04CF4003CC2F80CC052
:10148000D2F80CC0D1F830802CF4402C4CEA080C77
:10149000C2F80CC0D0F800C0DCF8648048F48018B2
:1014A000CCF864800068D0F850C04CF0806CC0F874
:1014B00050C00878C0060BD59068D1F818C06FF3FB
:1014C0000D0040EA0C009060D06840F08060D06071
:1014D000087810F0140F1ED0D06840F08040D06023
:1014E000BFF35F8FD0685B1C042B40F00040D060DE
:1014F00000D31B1F012755F82320D06800280ADAE3
:1015000055F82600BFF35F8FC16821F0004100E06D
:10151000A3E0C160A1E0206810609068D4F804C026
:101520006FF30D0040EA0C009060DFF820827F1C12
:10153000A0684FF0000A50B1044600685060D2F82D
:1015400008C0A0880CEA080C4CEA004004E0C2F88D
:1015500004A0906800EA080090600878C006D0688F
:1015600012D5B1F820C020F4F00040EACC40D060A1
:10157000D068D1F81CC06FF3110040EA0C00D060B5
:10158000D06840F480201BE0D1F804C06FF30E0057
:1015900040EA0C00D0600878C00707D0D068D1F8C6
:1015A00014C020F4403040EA0C00D0600878800677
:1015B00007D5D068D1F810C020F0406040EA0C0098
:1015C000D0600878400707D59068D1F828C020F48B
:1015D000404040EA0C009060D06840F00050D0607D
:1015E000D06820F08040D060BFF35F8FD06840F0BB
:1015F0000040D060087880077ED5D068D1F80CC054
:1016000020F0607040EA0C007AE0D0685B1C042B8C
:1016100020F08050D06000D31B1F55F82320D068E5
:1016200020F00050D060D068002803DB05EB830079
:101630004069A8B155F8261000200CE0BFF35F8F79
:10164000CA68761C042E22F00042CA6000D3361FFE
:10165000401C55F82610B842F0D30220BDE8F08FA8
:10166000A468206810609068D4F804C06FF30D007F
:1016700040EA0C009060A0687F1C58B104460068E6
:101680005060D2F808C0A0880CEA080C4CEA004070
:10169000906007E0C2F804A0D2F808C00CEA080C79
:1016A000C2F808C00878C006D0680AD5D1F81CC0B6
:1016B0006FF3110040EA0C00D060D06840F4802045
:1016C00010E0D1F804C06FF30E0040EA0C00D060C7
:1016D0000878C00707D0D068D1F814C020F4403093
:1016E00040EA0C00D06009F10109BFF35F8FD068B8
:1016F00040F00040D06000E003E0D06820F080407F
:10170000D060A068002880D19068BBF1000F02D0A3
:1017100040F0004001E020F000409060D06840F0D0
:101720008050D06005EB8300696A4161EFF310805F
:10173000012181F310882B6109F10101AA6A11448A
:1017400080F310880020A96288E70000FFFF00C036
:10175000F0B5026847F6020E274E4DF2010702F57A
:101760008052264DD1F800C01368254C23EA0E03A1
:1017700043EA0C0313600B79026891F80CE002F560
:101780008052D1F808C01B0343EACE3343EA0C036E
:10179000D2F804C02CEA070C4CEA030CC2F804C0CF
:1017A00002684F7B02F580520B6A43EA0747D2F882
:1017B000003133403B43C2F8003102680B7D02F533
:1017C000805291F81DC00F69D2F804611B0143EAF1
:1017D0000C332E403B431E43C2F8046100680B7F6C
:1017E00000F580508A69D0F8081142EAC37221409E
:1017F0001143C0F80811F0BD00C0FEFFEFEFC0FFBD
:10180000FFFFC07FF0B50B790C7B0F688A68DB06A1
:101810004D7B43EAC4533A438E7B1A43CF7B91F806
:1018200010C042EA855242EA4652BCF1000F42EA39
:1018300007537CD000224C7C002C43EAC24278D073
:1018400000238E7C0D7F42EA43428F7FD1E905342D
:1018500042EA06424E7F1A43224342EA0532002FF3
:1018600042EAC62466D00022CD7F91F8203044EAB7
:101870008222002B42EA45227ED0002504684B6A72
:1018800042EA052291F82870464D1A43CE6A236831
:1018900042EA071232432B401343236091F83C2065
:1018A00091F8383091F8305091F83140520642EAC0
:1018B000036291F8326042EA854242EA4444BEB390
:1018C00000220368384E4F6B44EA02425C683A4398
:1018D00040F20F15344014435C60036891F8406097
:1018E0004C6CDA6844EA0624AA432243DA6091F891
:1018F00054300A6D91F84C4042EA4302ECB30024A4
:101900000368B1F848504FF60D76E7011C6F47EABF
:1019100005452A43344014431C67026891F8563049
:1019200091F8555052F8904F43EA450303E02BE0FD
:1019300032E02BE02CE024F003041C431460026826
:101940008C6DD2F8003D23F072032343C2F8003DB2
:1019500091F86020CC6D1AB35FF00003026891F833
:10196000615091F8621044EA8310D2F8303D2C01A6
:1019700044EAC101084301E00CE00FE023F07B01E1
:101980000143C2F8301DF0BD012254E7012358E79E
:10199000012269E7012571E7012292E70124AFE7FF
:1019A0000123DBE7838004000080F8C02DE9F84FB5
:1019B00004464FF00108002000904FF04149D4E95F
:1019C0001A574FF0014A04EB8500866C1CE0306921
:1019D00030B9684600F044FB009840B13061306097
:1019E000B8F1000F10D0A06D20B1484603E04FF0D1
:1019F000000809E05046F0606D1C042D00D32D1F37
:101A00007F1E04EB8500866C17B1B8F1000FDED1A4
:101A1000E06EB84210D0E81C00F00300BFF35F8F07
:101A2000216800EB4000226901F5805102EBC00003
:101A3000C1F82801C4E91A57BDE8F88F72B6FEE76D
:101A4000054805490839026842F002020260086848
:101A50008004FCD5704700000C480258F0B50446DD
:101A6000C8074FF0000010D01E23012603F01F0707
:101A700006FA07F50D4201D15B1EF7D27AB1082AAA
:101A80000BD0102A06D0182A01D00120F0BD072B58
:101A9000FBD204E0082BF8D201E0102BF5D223682A
:101AA000596121688B6823F0180313438B60F0BDE4
:101AB00010B5040010D0607F20B9002020772046A8
:101AC00000F032F821790220607739B1D4E90212AE
:101AD0002046FFF7C3FF48B1012010BD216811481F
:101AE00048612068816821F0180181606079A0B1A7
:101AF000216820690861012220686369816821F0FA
:101B00006001194381602068A369816821F0800128
:101B1000194381606277002010BD21684FF0FF30CB
:101B2000E8E70000B71DC10408B50068064988420F
:101B300008D10648016841F400210160006800F402
:101B40000020009008BD0000004C0258E0440258FC
:101B500070B5044600F010FD0546601C02D0044834
:101B60000078044400F008FD401BA042FAD370BD89
:101B70008449002400297DD00268126802F00C021A
:101B8000CA6202681268C2F3001281F82820026853
:101B9000126802F060024A620268126842F3002290
:101BA000521C81F8202002681268C2F34022CA77D2
:101BB0000268126842F38022521C8A770268126817
:101BC000C2F3C0224A7702681268C2F300320A7771
:101BD0000268126802F400528A610268126802F414
:101BE00080424A6102681268C2F300428A74026845
:101BF000126842F34042521C4A740268126842F36F
:101C0000C042521C0A7402681268C2F30052CA73BE
:101C100002681268C2F340528A7302681268C2F303
:101C200080524A7302681268C2F3C0520A73026893
:101C3000126802F0E0628A6002681268C2F3C06251
:101C40000A710268126802F0E0420A600268526893
:101C5000C2F30D024A630268526842F30042521C0A
:101C600081F8322002685268C2F3404281F8312084
:101C7000026800E062E05268C2F3804281F83020DE
:101C800002685268C2F3006281F838200268526824
:101C9000C2F34462CA630268D268C2F3002281F8C8
:101CA00040200268D26802F00F024A640268126F94
:101CB000C2F3400281F854200268126F42F3C0124E
:101CC000521C81F84C200268126F02F070020A6503
:101CD0000268126F120C8A640268D2F8902002F037
:101CE000010281F856200268D2F89020C2F3400227
:101CF00081F855200268D2F8002D02F072028A6540
:101D00000268D2F8302D02F02302CA650268D2F8C8
:101D1000302DC2F3C00281F862200268D2F8302D63
:101D2000C2F3001281F861200068D0F8300D40F352
:101D30008010401C81F8600000207047012070472F
:101D4000F8B5040003D0D4F8840010B107E00120F6
:101D5000F8BD2020C4F88400204600F0DBF8684875
:101D6000016841F002010160006800F0020000908B
:101D7000207A08B14FF4000001F00AFA61492068A6
:101D8000096800F58050016841F00101016000F030
:101D9000F3FBE02605464FF4FA7706E000F0ECFB93
:101DA000401BB84201D9042023E0206800F5805090
:101DB0000068C007F2D1204600F082F900F01EFE54
:101DC000514A2168B0FBF2F0401EC1F8DC00204609
:101DD000FFF779FA206800F58050D0F8001121F45F
:101DE000E01141F40021C0F800116169880705D0B5
:101DF0000120C4F88800C4F88460A8E7206847F68A
:101E0000FE7300F58050D0F808219A4342EA410160
:101E1000C0F8081100210846E26800EB400504EB19
:101E2000800302EBC502116051609160D160401CDB
:101E300004289A61F0D3A1620323206800F5805042
:101E4000C0F82C312068E26800F58050C0F81421F9
:101E50002068E26800F58050C0F820215FF00002A1
:101E6000206902EB420604EB820500EBC60001602C
:101E700041608160C160521C0161042A4161A86413
:101E8000EED3E1652166A166E166A165206800F5F3
:101E90008050C0F830312068226900F58050C0F8C9
:101EA0001C212268206902F580524830C2F82801BE
:101EB000D4E900208088C2F800036068276886782B
:101EC000C37802784578360442EA036046EA052280
:101ED0001043C7F8040320680C4BD0F80C271A43B2
:101EE000C0F80C2720680A4BD0F810271A43C0F816
:101EF00010271023C4F88810C4F884300020F8BDDF
:101F0000F44402580404005840420F006000020CE0
:101F100000C0200CF0B587B0044614216846FEF7D7
:101F2000CFFB3049206888425AD12F48016841F4DC
:101F300000410160016801F400410591016841F42C
:101F400080310160016801F480310591016841F43C
:101F500000310160006800F400300590224808302C
:101F6000016841F040010160016801F04001059104
:101F7000016841F004010160016801F0040105916C
:101F8000016841F001010160016801F00101059162
:101F9000016841F0020101600068032602246946DD
:101FA00000F00200059000250B2770038DE8F1007A
:101FB0000E4800F0BFF9322069468DE8F1000C4868
:101FC00000F0B8F9862069468DE8F100094800F074
:101FD000B1F9A00269468DE8F100074800F0AAF9BE
:101FE00007B0F0BD00800240D844025800180258E3
:101FF0000008025800000258000402582DE9F04180
:10200000044600681E46D0F80032DB0719D1D0F82C
:10201000003223F0787343EA415121F4F81141EA88
:10202000024141F00D01C0F8001200F0A5FA4FF492
:102030007A77054608E000BF00F09EFA401BB842E0
:1020400002D90120BDE8F0812068D0F80002C00765
:10205000F2D12068D0F8040280B230600020F1E7AD
:102060001CB504460D4804F0E9FA03000FD003F153
:10207000200020600A484FF4C061186141222068A6
:10208000CDE900010021084605F06AF81CBD054AAB
:1020900001210020117020601CBD0000ECC9000867
:1020A000C97700089849002410B519B1D0F88420E8
:1020B000102A01D0012010BDFFF7A4FB002010BDA5
:1020C00070B505460068D0F8000220F4706400F096
:1020D00095FC1049884202D244F4007416E00E497F
:1020E000884202D244F4407410E00C4988420DD377
:1020F0000B49884202D244F4807407E009498842BF
:1021000002D244F4806401E044F4A0642868C0F87A
:10211000004270BDC00E16020087930300E1F50572
:1021200080D1F00880B2E60E10B50446D0F88400E5
:10213000102801D0012010BD2021C4F884100420F3
:10214000E0662046FFF732FC20684021026842F03A
:10215000020202602068026842F001020260206808
:10216000D0F8002D42F00102C0F8002D206800F5E3
:102170008050D0F8042142F00102C0F80421206808
:1021800000F58050D0F8082142F00102C0F8082183
:10219000206800F58050D0F8602142F48172C0F8C8
:1021A0006021C4F88410002010BDD0F884104029AC
:1021B00001D0012070472021C0F88410102201684E
:1021C00001F58051D1F8043123F00103C1F8043145
:1021D000016801F58051D1F8083123F00103C1F8FD
:1021E000083101680B6823F001030B600168D1F826
:1021F000003D43F00103C1F8003D01680B6823F086
:1022000002030B60C0F88420002070472DE9F041E4
:102210001546044621B1D4F88400402805D055E085
:10222000D4F8880040F0010008E000222046FFF7C3
:10223000DFF830B1D4F8880040F00200C4F888001C
:1022400044E0BFF34F8FA06A04EB8001401C0428D8
:102250008E69A06201D3001FA0620146206804EBD2
:10226000810100F580508969C0F8201100F084F9DF
:1022700007461CE0206800F58050D0F86001C004DB
:102280000DD5D4F8880040F00800C4F88800206814
:1022900000F58050D0F86001C4F88C0016E0681C8E
:1022A00005D000F069F9C01BA84206D82DB1F0682E
:1022B0000028DFDB0020BDE8F081D4F888104FF063
:1022C000405041F00401C4F88810F0600120F2E7AA
:1022D00070B504460068D0F80052ED071FD1D0F861
:1022E00000029BB2124D20F07870C5F8043240EA2B
:1022F000415020F4F81040EA024020F00C00001D8C
:1023000040F00100C5F8000200F036F94FF47A768B
:10231000054606E000F030F9401BB04201D901202B
:1023200070BD2068D0F80002C007F3D170BD000076
:10233000008002402DE9F84F03247D4D00234FF02B
:1023400001094FF0B04B4FF00F0AE9E009FA03F72B
:102350003A4076D00E7906F00306012E01D0022E07
:1023600018D1D0F808C04FEA430ECE6804FA0EF830
:102370002CEA080C06FA0EF646EA0C068660D0F83F
:1023800004C00E792CEA070CC6F300169E4046EAFC
:102390000C0646600E79F643B6070BD0C6684FEAC6
:1023A00043088F6804FA08FC26EA0C0607FA08F7C7
:1023B0003743C7600E7906F00306022E12D1DE08FD
:1023C0000F694FEA437C00EB8606B646366A4FEA51
:1023D000DC6C0AFA0CF807FA0CF726EA0806374311
:1023E000CEF820700F7906684FEA430807F003071C
:1023F00004FA08FC07FA08F726EA0C0637430760D8
:102400004E6816F4403F1CD04A4E376847F002072A
:10241000376036689F0706F00206009623F0030631
:1024200006F1B046B6463F0FD6F80864DFF80881DB
:102430000AFA07FC404526EA0C0603D14FF0000CCF
:1024400041E06CE0DFF8F4C0604502D14FF0010CD0
:1024500039E0DFF8ECC0604502D14FF0020C32E009
:10246000DFF8E0C0604502D14FF0030C2BE0DFF84D
:10247000D8C0604502D14FF0040C24E0DFF8CCC096
:10248000604502D14FF0050C1DE0DFF8C4C0604587
:1024900002D14FF0060C16E0DFF8B8C0604502D15B
:1024A0004FF0070C0FE0DFF8B0C0604502D14FF0ED
:1024B000080C08E0DFF8A4C0604502D14FF0090C19
:1024C00001E04FF00A0C0CFA07FC4CEA060CCEF8BF
:1024D00008C44F68DBF80060FF0226EA020600D558
:1024E00016435F46CBF80060D1F804C0DBF8046007
:1024F0005FEA8C2C26EA020600D516437E606E68E1
:102500004F6826EA0206BF0300D516436E602E68A8
:102510004F6826EA0206FF0300D516432E605B1CB7
:102520000A6832FA03F67FF411AFBDE8F88F0000B5
:1025300080000058F4440258000002580004025879
:1025400000080258000C02580010025800140258EB
:1025500000180258001C025800200258002402589B
:102560000AB1816170470904FBE700000148006877
:10257000000C70470010005C014880687047000044
:1025800084490024024881680278114481607047C0
:1025900084490024032010B500F0C6F800F050FA7A
:1025A0000F4A104914681368C4F3032203F00F03A1
:1025B0008A5CC95C02F01F0201F01F01D0400A4A88
:1025C00020FA01F11160094908600F2000F010F8AD
:1025D00008B1012010BD00F079F8002010BD000006
:1025E00018440258DAC9000894490024904900248C
:1025F00070B50D4D04462878A0B14FF47A71B1FB47
:10260000F0F00A490968B1FBF0F000F0CBFD48B9E1
:10261000102C07D200222146501E00F065F8002041
:102620006C6070BD012070BD844900249049002475
:10263000154BF0B5083B427813491A600B680A1F26
:1026400023F001030B6043681360057BC67A827A2E
:10265000437B2D07847B45EA0665C77B90F809C05C
:10266000067A90F800E045EAC24040EA834040EA3A
:10267000444040EA074040EA0C2040EA460040EA75
:102680000E000860F0BD0000A0ED00E0BFF35F8F1A
:10269000044800210368034A23F480330360703246
:1026A0001160704724ED00E0074A40F00100064940
:1026B00070321060086840F480300860BFF34F8FBC
:1026C000BFF36F8F7047000024ED00E0054808B5A8
:1026D000016841F002010160006800F00200009012
:1026E00008BD0000F44402580E4BF0B41B680D46C0
:1026F000C3F30223C3F10706042E00D90426191DD3
:10270000072901D2002300E0DB1E012404FA06F1B0
:102710009C40491E2940641E994014402143F0BC4E
:1027200001F003B90CED00E0064900F0070210B516
:102730004FF6FF040868044B204040EA022018438B
:10274000086010BD0CED00E00000FA05134970B5FB
:102750000A68D243520705D5096801F00701814292
:1027600013D118E00A6822F0070202430A60FFF75B
:1027700003FF0A4D4FF47A760446083D07E000BF98
:10278000FFF7FAFE001BB04201D9012070BD286896
:10279000C0438004F4D4002070BD00000C480258EF
:1027A0002DE9F05F04000F467ED0DFF83882D8F8BC
:1027B000000000F00F00B8420CD2D8F8001021F051
:1027C0000F013943C8F80010D8F8000000F00F00DE
:1027D000B84269D12078844D40070AD5206929681C
:1027E00001F07001884204D9296821F07001014389
:1027F000296020787C4E361D00070AD56069316853
:1028000001F07001884204D9316821F07001014360
:1028100031602078C0060AD5A069316801F4E06112
:10282000884204D9316821F4E061014331602078A5
:10283000DFF8B4B180060BF1080B0CD5E1695846FE
:10284000DBF8002002F07002914204D9026822F005
:1028500070020A430260207880070AD5E068296880
:1028600001F00F01884204D9296821F00F010143CA
:1028700029602078C0073ED05B49A26828681839D3
:1028800020F47060104328606068022818D0032884
:1028900019D00968012819D0490700294ADADFF858
:1028A00048A1AAF1080A00E044E0DAF8002022F08A
:1028B00007020243CAF80020FFF75EFE814612E0DD
:1028C00009688903E9E709688901E6E7C905E4E7DA
:1028D000FFF752FEA0EB090141F28830814202D994
:1028E0000320BDE8F09F6168DAF8000000F03800CE
:1028F000B0EBC10FECD1207880070AD5E0682968D9
:1029000001F00F01884204D2296821F00F01014330
:102910002960D8F80010404601F00F01B9420BD9E8
:10292000016821F00F0139430160006800F00F00D9
:10293000B84201D00120D4E7207840070AD52069A9
:10294000296801F07001884204D2296821F07001E1
:1029500001432960207800070AD56069316801F0D9
:102960007001884204D2316821F070010143316066
:102970002078C0060AD5A069316801F4E061884278
:1029800004D2316821F4E06101433160207880068F
:102990000CD5E1695846DBF8002002F07002914244
:1029A00004D2026822F070020A43026000F048F884
:1029B0000E492A682B68C2F3032203F00F038A5CD6
:1029C000C95C02F01F0201F01F01D040084A20FA42
:1029D00001F111600749086007480068BDE8F05F31
:1029E000FFF706BE0020005218440258DAC900085A
:1029F00094490024904900248849002430B500F00F
:102A00001FF80B4A0B490C4B15681468C5F30322D9
:102A100004F00F048A5C095D02F01F0201F01F013F
:102A2000D040064A20FA01F119601060084630BD16
:102A300018440258DAC90008944900249049002437
:102A4000454970B545480968434B103B11F03802C1
:102A500008D00111082A03D0102A0BD0182A0BD055
:102A6000084670BD19688906FBD51968C1F3C10114
:102A7000C84070BD3A4870BD3749374D18310C1DFC
:102A800024350A68096826682D6802F0030406F0F8
:102A90000102C1F30511C5F3CC0515FB02F200EEEE
:102AA000102AB8EE400AE9B32F4ADFED2E0AB7EE3E
:102AB000001A6CB1DFED2D1A012C01D0022C43D08D
:102AC00002EE101A1068F8EE422A81EEA22A1EE0E9
:102AD0001C68A40611D51B6801EE901A1168C3F397
:102AE000C103F8EE612AD84001EE900AC1F3080054
:102AF000F8EE611A81EEA22A0BE001EE901ADFEDEA
:102B00001C2A00BFF8EE611A106882EEA12AC0F3F9
:102B1000080001EE900AF8EE611A40EE201A31EE3C
:102B2000810A00E015E022EE000A1068C0F346209A
:102B3000401C00EE900AF8EE600A80EE201ABCEE0F
:102B4000C10A10EE100A70BD01EE901ADFED092ADD
:102B5000D8E7002070BD0000104402580090D00358
:102B60008096980000000039304402580024744ACE
:102B70000024744C8096184BF0B50D461F49204C2C
:102B8000002887B016464FF000004FF002020F6891
:102B90004FF0030319D047F004070F60096801F0F4
:102BA0000401059111020091CDE90120CDE9033026
:102BB00014486946FFF7BEFB206845EAC61120F0BD
:102BC0007E400843206007B0F0BD47F001070F606A
:102BD000096801F0010105914FF480710091CDE980
:102BE0000120CDE9033008486946FFF7A3FB2068C0
:102BF000354320F0FE702843E4E70000E04402582B
:102C00001044025800080258000002582DE9F05FF5
:102C100004007DD0FF4F2078FE4D1837DFF8F49385
:102C2000103DC00748D0D9F80000396800F03800DE
:102C3000102815D0182803D101F0030002280FD066
:102C40006068B0F5803F12D010B1B0F5A02F18D059
:102C5000286820F480302860286820F4802009E06B
:102C60002868800328D560680028D2D024E028682E
:102C700040F480302860606888B1FFF77DFC06462C
:102C800009E0286840F480202860F0E7FFF774FC32
:102C9000801B64286FD828688003F7D50CE0FFF705
:102CA0006BFC064605E000BFFFF766FC801B64284E
:102CB000F0D828688003F7D4207841F20308D54E75
:102CC0000C3E800769D5D9F80000396810F038004B
:102CD0000ED0182801D188070AD0E06890B329687F
:102CE00021F0190101432960FFF746FC824631E0DB
:102CF0002868400702D5E06800288AD0E168286883
:102D000020F0190008432860FFF736FC824607E0F0
:102D1000DFE000BFFFF730FCA0EB0A000228B9D8C3
:102D200028684007F6D500BFFFF720FC40451BD8B8
:102D30002069402812D0316821F47C3141EA00300A
:102D400030602AE018E000BFFFF716FCA0EB0A0095
:102D500002289FD828684007F6D5E5E7306820F4B8
:102D60007C3040F40030EBE7207C316821F0FE41FC
:102D700041EA0060E4E70DE1286820F001002860E6
:102D8000FFF7FAFB824605E0FFF7F6FBA0EB0A002F
:102D900002288DD828684007F6D42078C0065DD573
:102DA000D9F80000DFF86CB2396800F03800ABF1F8
:102DB000040B082810D0182803D101F003000128C3
:102DC0000AD0E0690028286838D040F080002860E8
:102DD000FFF7D2FB824623E02868C00523D5E069CF
:102DE000802876D11FE0206A202821D0316821F088
:102DF000F84141EA8060306030E000BF94F8201074
:102E0000DBF8002022F07C5242EA0161CBF800108E
:102E100024E000BFFFF7B0FBA0EB0A00022898D81F
:102E20002868C005F6D5FFF7A1FB4045E6D8DAE7EC
:102E3000306820F0F84040F08040DCE720F080006F
:102E40002860FFF799FB064605E000BFFFF794FBFB
:102E5000801B02289DD82868C005F7D42078000779
:102E600029D56C486169643000298046016811D019
:102E700041F001010160FFF77FFB064605E000BF5E
:102E8000FFF77AFB801B0228C9D8D8F8000080071A
:102E9000F6D510E021F001010160FFF76DFB064659
:102EA00005E000BFFFF768FB801B022872D8D8F846
:102EB00000008007F6D42078800623D5A06900287A
:102EC000286810D040F480502860FFF755FB064674
:102ED00005E036E1FFF750FB801B02285AD828682E
:102EE0008004F7D50EE020F480502860FFF744FB03
:102EF000064604E0FFF740FB801B02284AD82868FA
:102F00008004F7D4207840074FD5DFF80C81D8F83B
:102F1000001041F48071C8F80010FFF72DFB064641
:102F200005E000BFFFF728FB801B642832D8D8F8E3
:102F30000000C005F6D5374EA068603601280AD0DB
:102F400008B1052813D0306820F0010030603068E7
:102F500020F0040002E0306840F001003060A0681A
:102F600041F2883A90B1FFF707FB80460AE03068EB
:102F700040F004003060EEE7FFF7FEFAA0EB080136
:102F8000514507D830688007F6D50EE0FFF7F4FA10
:102F9000804607E084E000BFFFF7EEFAA0EB0801EF
:102FA00051457DD830688007F6D4606AB0B3DFF849
:102FB0006480D9F8001008F120084FF6F87B08F17A
:102FC0000409C1F3C2010329A8F1040A69D0022847
:102FD000286820F08070286003D0FFF7CDFA0446FF
:102FE00084E0FFF7C9FA064605E000BFFFF7C4FA20
:102FF000801B022877D828688001F7D4E26A40F263
:10300000F331386854F8283F884340EA02101843E7
:10301000386004E01044025800480258B5E0217BB3
:10302000434622894FF4FE0C208A4FF0FE474902A6
:10303000267D521E401EA1F50071C2F308088AB217
:10304000761E0CEA004042EA08020243504607EAB4
:1030500006610A431A60DAF8002022F00102CAF879
:103060000020D9F80020266A22EA0B0242EAC602B2
:10307000C9F80020DAF80010A26921F00C01114310
:10308000CAF800100168E26921F0020111430160F1
:10309000016841F480310160016841F4003101E0D0
:1030A00021E027E00160016841F4802101600168AE
:1030B00041F001010160286840F080702860FFF74E
:1030C0005BFA044605E000BFFFF756FA001B022832
:1030D00009D828688001F7D557E000BFFFF74CFA00
:1030E000001B022802D90320BDE8F09F2868800158
:1030F000F4D44AE039680128D8F8000021D0A26A47
:1031000001F0030393421CD1E26AC1F305118A4224
:1031100017D1216BC0F30802491E8A4211D1616B9D
:10312000C0F34622491E91420BD1A16BC0F3064267
:10313000491E914205D1E16BC0F30660491E8142F0
:1031400001D00120D0E7A16C4E46D9F80000C0F3B1
:10315000CC00814219D0DAF80000554620F0010079
:10316000CAF80000FFF708FA4FEA0007FFF704FA71
:10317000B842FBD0A26C306820EA0B0040EAC200E3
:103180003060286840F0010028600020ACE70000B3
:1031900003490A6822F4600202430A607047000093
:1031A00004040058401EB0F1807F10B501D3012007
:1031B00010BD4FF0E02460610F21601700F0B5FBF7
:1031C0000020A0610721216110BDFEE738B504464B
:1031D0006A46002000900121636920689847002812
:1031E0006FF0040525DB6369012120686A46984772
:1031F00000281EDB0098400701D4012038BD636918
:10320000002120686A469847002812DB0098C10414
:1032100008D44FF4045181431CD081041CD4C00550
:103220001CD415E063691F2120686A46984700286E
:1032300001DA284638BD0098C10401D4062038BD03
:10324000C0F38200062805D0022805D0052805D045
:10325000052038BD022038BD032038BD042038BD0C
:10326000F8B505460020009004466868002610BBAB
:10327000A86800B18047202028606FF004076B69C0
:1032800012216A4620469847002801DA3E460AE0A5
:10329000009800F01F00A04205D11F2C4FF000063F
:1032A0002C6006D809E0641C1F2CE8D92C681F2C60
:1032B00002D96FF0020602E00EB9012068603046C4
:1032C000F8BD88B1CA687AB18A686AB10A695AB128
:1032D0000A6882604A68C260CA6842618A6802619C
:1032E00009698161002070474FF0FF30704700008E
:1032F0007FB500240094019402940394FFF7C6F96B
:1033000001258DF80C501F208DF8080087218DF8BD
:1033100009108DF80D5068468DF800508DF80A4060
:103320008DF80E408DF8014001948DF80B408DF81A
:103330000F40FFF77DF910218DF808108DF8094036
:10334000032211488DF80A508DF80150019068460B
:103350008DF80B208DF80D40FFF76AF90B4902201C
:1033600008228DF808208DF80D508DF80100684670
:1033700001918DF80A408DF80F50FFF759F904209C
:10338000FFF792F97FBD000000000230000004301A
:103390000A480021084B012210B5036001714171F8
:1033A000416102628161FEF783FB002803D0BDE822
:1033B0001040FEF743BB10BD004C0258744A002475
:1033C0002DE9F04F87B014216846FDF779F96E4872
:1033D000016841F010010160016801F010010591E0
:1033E000016841F040010160016801F04001059170
:1033F000016841F001010160016801F001010591DE
:10340000016841F008010160016801F008010591BF
:10341000016841F004010160016801F004010591B7
:10342000016841F480710160016801F480710591C7
:10343000016841F080010160016801F0800105919F
:10344000016841F00201016000680022DFF83C8160
:10345000302100F0020005904046FFF781F801227C
:10346000DFF82CA1560350463146FFF779F80122C8
:10347000DFF82091170248463946FFF771F800221D
:1034800050468021FFF76CF8DFF80CB100220C21C8
:103490005846FFF765F8414800228021FFF760F8A1
:1034A0003F4800220221FFF75BF80024694608200C
:1034B0000294CDE900043B48FEF73CFFB0000090C9
:1034C0004FF488106946CDE901043748FEF732FF12
:1034D0003020009001256946CDE90154404603940F
:1034E000FEF728FF00961126CDE901646946504693
:1034F0000394FEF71FFF00976946CDE90164484633
:103500000394FEF717FF6802009002266946CDE992
:103510000164504603940494FEF70CFF8027009743
:10352000CDE90154694650460394FEF703FF0C2091
:103530000090CDE90154694658460394FEF7FAFE1F
:1035400040200090CDE9016414486946CDE9034666
:10355000FEF7F0FE14486946CDE900540294FEF7E8
:10356000E9FE00976946CDE901540C480394FEF743
:10357000E1FE00966946CDE9015409480394FEF73F
:10358000D9FE07B0BDE8F08FE0440258000C0258A5
:10359000000802580020025800180258001C025867
:1035A0000004025800100258000002582DE9FE43A2
:1035B000544CC022A823DFF85081251D4FF0010C88
:1035C00002202270FF2163702E1DA0700027E07082
:1035D00029706970A9700421EF7032700022737035
:1035E000B070404686F803C0FEF7BAFF3220FEF7FF
:1035F000AFFA012240460421FEF7B2FF3220FEF767
:10360000A7FA02F093FB2088A178E27844BA3F4BF6
:1036100090FA90FC240490FA90F844EA01244FEACE
:103620000C4C4CEA012C14431FFA8CFC40BA4FEAB4
:103630000848240648EA0121C0B2114344EA0C2C90
:10364000334C4CEA002040EA1160A5F110010860FB
:103650002888A978EA7845BA90FA90FC2D0445EAC2
:1036600001254FEA0C4C15434CEA012C90FA90F8D6
:103670001FFA8CFC2D0645EA0C2540BA4FEA084C8F
:103680004CEA0121C0B2114345EA002040EA116032
:10369000A6F1100108603088B178F27845BA46BAD0
:1036A0002D0490FA90FC360445EA012546EA0126ED
:1036B000154340BAB6B24FEA0C4C2D064CEA012134
:1036C000C0B2114345EA062545EA002040EA1160F0
:1036D0000C49091F08600097CDE901430B460D48CE
:1036E0000A1F083902F0F0FF0A4803F001FA0948FE
:1036F00003F012FB03B008490648BDE8F04303F0AD
:1037000051BA0000C44900240018025801460008BC
:1037100035480008A04B002439470008FEE7FEE7C3
:10372000704700000D4A30B5101D11680B4C21F494
:103730007C310B4B41F42045084910341560283981
:103740002360026822F0C0020260026842F0200298
:103750000260086840F08060086030BD284402586C
:10376000950201137047FEF70DBF000070B59CB0C5
:103770004C216846FCF7A4FF202113A8FCF7A0FF0A
:103780000220FEF7E3FF2749002427480A6822F0B9
:1037900001020A600968016841F440410160016862
:1037A00001F440411B9101688904FCD54FF4A0232A
:1037B0000DF1280C0220099004219E128CE8430090
:1037C00008250FAE0122CDE90D0586E81300CDE9ED
:1037D000002368461294FFF719FA08B172B6FEE7A3
:1037E00040201A903F210301CDE916500322CDE974
:1037F000180313AB13A883E816000221FEF7D0FFCD
:1038000008B172B6FEE70948016841F40021016081
:1038100001204FF440224FF00051FFF7ADF91CB0EA
:1038200070BD00002C040058184802582C4402585F
:103830003348F0B5334A016841F470010160106803
:1038400000F00F00072804D2106820F00F00C01D00
:1038500010602D4900202C4C10340B682B4D43F088
:1038600001030B6020600B682B400B60136803F0B2
:103870000F03072B04D9136823F00F03DB1D13601C
:10388000214C234A1834234B261D371D20601E4C23
:10389000214D28343060261D3860371D23603B1DC4
:1038A00035601C1D3A60251D2E1D1860331D2260D9
:1038B0002860326018600A68134B184C22F480228A
:1038C00060330A60186020686FF30F00B0F1005F8A
:1038D00003D213490120C1F808010B48D430016814
:1038E000C9040BD4026843F2D2010E4B42F4805259
:1038F00002601960016821F480510160F0BD000090
:1039000088ED00E000200052004402587FEDF6EA06
:1039100080020101000202020000FF010010005CB1
:103920000080005100400052FEE7090700284FEADE
:10393000116104DB00F1E02080F80014704700F012
:103940000F0000F1E02080F8141D704770B50C46A0
:103950000546880706D006A34FF4B67210A118A03A
:10396000FCF75AFDA86800682060A868046070BD74
:103970002E2E2F4D6964646C6577617265732F54C8
:10398000686972645F50617274792F4C7749502F67
:103990007372632F636F72652F6D656D702E630098
:1039A0006D656D705F667265653A206D656D20703E
:1039B000726F7065726C7920616C69676E65640006
:1039C000417373657274696F6E20222573222066BD
:1039D00061696C6564206174206C696E6520256482
:1039E00020696E2025730A0010B580680468002CD9
:1039F0000CD02168A207016006D005A34FF48C7299
:103A00000FA118A0FCF708FD204610BD002010BD36
:103A10002E2E2F4D6964646C6577617265732F5427
:103A2000686972645F50617274792F4C7749502FC6
:103A30007372632F636F72652F6D656D702E6300F7
:103A40006D656D705F6D616C6C6F633A206D656D57
:103A5000702070726F7065726C7920616C69676E2E
:103A600065640000417373657274696F6E2022256E
:103A70007322206661696C6564206174206C696ED4
:103A80006520256420696E2025730A0070B5094DF4
:103A90000024064604EB440005EBC000017D29B17B
:103AA0008068B04202D1204600F034F9641C0A2C30
:103AB000F0DB70BD387A00242DE9F74F84B04FF069
:103AC0000A0B00240646DA465F46D9460294019462
:103AD000009404EB440050490A2F039001EBC00806
:103AE00098F814501DD0002D2AD0012D08D0022D99
:103AF00006D24AA340F2231256A166A0FCF78CFC22
:103B00009EB13168D8F8040081420ED1069820B1E8
:103B1000D8F808100698814207D1204607B0BDE8C2
:103B2000F08F002DE1D127460AE0012D16D0022D9D
:103B300006D3B8F812000099884201D3A24600903B
:103B4000641C24B20A2CC4DB059881074FF0FF30B7
:103B5000E4D40A2F16D018DA3C463EE02E490398EA
:103B600051F830000028B8F8120005D002998842B8
:103B7000E6D3A1460290E3E701998842E0D3A34649
:103B80000190DDE70599C907C8D0BAF10A0F51467F
:103B90000EDA0C46204801EB440150F8310080B1A8
:103BA0001EA340F26D1245A13AA0FCF735FC08E0D7
:103BB000BBF10A0F594603DBB9F10A0F4946ADDAEA
:103BC0000C460A2C06DB15A340F27F1241A131A05E
:103BD000FCF722FC204600F09DF80A2C06DB0FA320
:103BE00040F283123BA12BA0FCF716FC0A4804EB21
:103BF000440100EBC105287D30B108A34FF4C27227
:103C000039A124A0FCF708FC0EB1306868600021DF
:103C10000698A860698280E7387A00242E2E2F4DFE
:103C20006964646C6577617265732F546869726446
:103C30005F50617274792F4C7749502F7372632FE4
:103C4000636F72652F697076342F65746861727066
:103C50002E6300007374617465203D3D2045544817
:103C60004152505F53544154455F50454E44494E74
:103C700047207C7C207374617465203E3D20455450
:103C8000484152505F53544154455F535441424C54
:103C900045000000417373657274696F6E202225C0
:103CA0007322206661696C6564206174206C696EA2
:103CB0006520256420696E2025730A006172705F9B
:103CC0007461626C655B695D2E71203D3D204E55CF
:103CD0004C4C000069203C204152505F5441424C02
:103CE000455F53495A4500006172705F7461626CB0
:103CF000655B695D2E7374617465203D3D2045549C
:103D0000484152505F53544154455F454D505459BA
:103D10000000000070B5074C00EB4005002654F889
:103D2000350018B103F0A6FC44F8356004EBC5007B
:103D3000067570BD387A00242DE9F0430D00074662
:103D400085B009D07C684FF480782088404539D10F
:103D50002079062836D109E01CA340F28A2229A145
:103D60002CA0FCF759FB05B0BDE8F083607904286E
:103D700028D16088082825D1D4F80E0004906868FE
:103D8000A16920B1814202D10126334601E000261B
:103D90000223284604F1080204A9914600F0A2FB80
:103DA000E08840450ED16EB10222284604AB291DA1
:103DB000CDE90232CDE9001905F126034A4619463C
:103DC00000F090FA384603F055FCCCE72E2E2F4D2C
:103DD0006964646C6577617265732F546869726495
:103DE0005F50617274792F4C7749502F7372632F33
:103DF000636F72652F697076342F657468617270B5
:103E00002E6300006E6574696620213D204E554C7E
:103E10004C000000417373657274696F6E20222537
:103E20007322206661696C6564206174206C696E20
:103E30006520256420696E2025730A00FEB5040004
:103E400015460E4606D143A340F21E324FA153A0A1
:103E5000FCF7E2FA36B93FA340F21F3259A14FA056
:103E6000FCF7DAFA35B93BA34FF4487258A14BA0DE
:103E7000FCF7D2FA2868214600F0F3FE08B1584B4F
:103E80003EE02868C0F303110E2924D0D4E90121B3
:103E90000A400140914208D080B2A0F57E41A93984
:103EA00003D0E068B0B304F10C054E4B4E481A78CD
:103EB00002EB420100EBC1010F7D022F2ED38F6870
:103EC000A7422BD12F6849688F4227D1314620461F
:103ED00000F08CF8FEBD01228DF8042000208DF842
:103EE00005005E218DF80610687801AB00F07F00B8
:103EF0008DF80700A8788DF80800E8788DF809009B
:103F00004FF4006004F1260231460090204600F094
:103F100015FCFEBDFFE76FF00300FAE75FF000025B
:103F200002EB420100EBC1010F7D022F08D38F6825
:103F3000A74205D12F6849688F4201D11A70C5E7A1
:103F4000521CD2B20A2AEBD332462946204600F050
:103F5000D5F8DEE72E2E2F4D6964646C65776172AB
:103F600065732F54686972645F50617274792F4C65
:103F70007749502F7372632F636F72652F69707664
:103F8000342F6574686172702E6300006E65746909
:103F90006620213D204E554C4C0000004173736556
:103FA0007274696F6E2022257322206661696C65C8
:103FB00064206174206C696E6520256420696E2020
:103FC00025730A007120213D204E554C4C00000005
:103FD00069706164647220213D204E554C4C000094
:103FE000F8C900085C4A0024387A00242DE9F84317
:103FF0001546884606461C4802EB450100EBC10405
:10400000207D022806D219A340F2EE2225A131A07C
:10401000FCF702FA144A05EB4501207D02EBC105CD
:104020000C35022813D1608A0327B0F58E7F04D99E
:10403000211D304600F010FA07E0B0F5877F06D367
:10404000211D2A46304600F00DFA00B927754FF4BD
:10405000006006F126022B4641460090304600F0F3
:104060006DFBBDE8F8830000387A00242E2E2F4D1A
:104070006964646C6577617265732F5468697264F2
:104080005F50617274792F4C7749502F7372632F90
:10409000636F72652F697076342F65746861727012
:1040A0002E6300006172705F7461626C655B6172A7
:1040B000705F6964785D2E7374617465203E3D2085
:1040C0004554484152505F53544154455F53544105
:1040D000424C4500417373657274696F6E202225EE
:1040E0007322206661696C6564206174206C696E5E
:1040F0006520256420696E2025730A002DE9FC5F88
:10410000824614462630019008680E464FF0FF376D
:104110004FF0000B514600F0A4FD80B93068C0F3A9
:1041200003110E290BD056B148B101215246304639
:10413000FFF7C2FC050005D540B2BDE8FC9F6FF05B
:104140000F00FAE77F2D06D337A340F2C13244A116
:1041500047A0FCF761F905F0FF094F4909EB490851
:1041600001EBC805287D00280ED0012808D00228C0
:1041700006D22DA340F2CD3248A13DA0FCF74CF968
:10418000BBF1000F06D104E0C5F808A00121297594
:1041900000E034B93146504600F05EF9002C074685
:1041A000CBD0287D3C4E02280ED346494FF4006206
:1041B00005F10C03504681F8009021460092019AC7
:1041C00000F0BCFA07462DE001282BD1254640F22D
:1041D000F13768892989884207D1286828B112A354
:1041E0003A4639A122A0FCF717F9287B400607D5EB
:1041F0000E2022464FF4207103F070F8044605E0CB
:104200002D68002DE5D1204603F0A0FB44B156F8FF
:10421000380008B103F02EFA002746F8384001E0D4
:104220004FF0FF37384688E72E2E2F4D6964646CB7
:104230006577617265732F54686972645F5061724B
:1042400074792F4C7749502F7372632F636F7265A7
:104250002F697076342F6574686172702E63000068
:1042600074797065206F766572666C6F77000000F8
:10427000417373657274696F6E2022257322206604
:1042800061696C6564206174206C696E65202564C9
:1042900020696E2025730A00387A00246172705FED
:1042A0007461626C655B695D2E7374617465203D39
:1042B0003D2050454E44494E47206F722053544193
:1042C000424C45005C4A00246E6F207061636B6550
:1042D000742071756575657320616C6C6F776564AA
:1042E000210000002DE9FF4F81B0984606004FF0F5
:1042F0000007DDE90FA9DDF838B006D12CA340F2A4
:10430000574239A13CA0FCF787F81C210E204FF43E
:10431000207202F0B5FD050046D068891C2806D23F
:1043200023A340F262423EA133A0FCF775F86C680B
:10433000119801F0F9FCE08096F82C00062806D0D0
:1043400044491BA32CA040F26942FCF765F8D8F859
:1043500000100623A1604FF48071B8F80400A0811A
:10436000DAF80020C4F812200822BAF80400E0822B
:10437000DBF80000C4F80E00D9F80000A0610420AA
:10438000218040F606016280237160713046DDE9CC
:1043900002230091294600F0D1F9284603F06AF97A
:1043A000384605B0BDE8F08F4FF0FF30F9E7000068
:1043B0002E2E2F4D6964646C6577617265732F547E
:1043C000686972645F50617274792F4C7749502F1D
:1043D0007372632F636F72652F697076342F657403
:1043E000686172702E6300006E6574696620213DFD
:1043F000204E554C4C000000417373657274696F18
:104400006E2022257322206661696C6564206174C8
:10441000206C696E6520256420696E2025730A0072
:10442000636865636B207468617420666972737475
:1044300020706275662063616E20686F6C64207303
:104440007472756374206574686172705F686472F9
:1044500000000000D0CB0008014A00F003B80000C3
:10446000F8C900087FB5064D0124031DCDE90214EB
:10447000CDE9003522331946FFF734FF04B070BD93
:10448000FEC9000870B5164D5FF0000404EB44004F
:1044900005EBC0010A7DF2B1488A401C80B2488217
:1044A000B0F5967F0AD2012A06D0032A0AD0042A40
:1044B0000AD0012A0BD00EE0052808D32046FFF7CA
:1044C00029FC08E0042000E00220087503E0886869
:1044D000091DFFF7C1FF641C0A2CD7DB70BD00006B
:1044E000387A0024F8B5044690F82C001F4615468B
:1044F00006280E4606D020A340F2A9122CA135A012
:10450000FBF78AFF9EB1306888B1214600F0A9FB15
:1045100068B93078C0F303100E2808D02246394617
:104520003046FFF7C9FA002804DA40B2F8BD6FF050
:104530000F00F8BD314A00EB4001022302EBC1003D
:104540000375002384602E68C660AE8806824382AD
:1045500052F8316076B142F831304FF400602B46AA
:1045600004F1260231460090204600F0E7F830467C
:1045700003F080F80020F8BD2E2E2F4D6964646C86
:104580006577617265732F54686972645F506172F8
:1045900074792F4C7749502F7372632F636F726554
:1045A0002F697076342F6574686172702E63000015
:1045B0006E657469662D3E6877616464725F6C65D0
:1045C0006E203D3D204554485F4857414444525F6A
:1045D0004C454E00417373657274696F6E202225DD
:1045E0007322206661696C6564206174206C696E59
:1045F0006520256420696E2025730A00387A00241E
:104600002DE9F041044640890E270D460E283CD97D
:10461000E07B18B995F83000401CE07360680178C1
:104620008689CA0714D0012905D01D490622FBF747
:10463000B7FF48B10CE0417851B980785E2807D1C6
:10464000607B40F0100002E0607B40F00800607387
:10465000082E03D0B6F5C16F17D10DE095F82D00E7
:10466000000712D53946204603F0B6F968B9294645
:10467000204600F041FC10E095F82D00000704D51D
:104680003946204603F0A8F918B1204602F0F2FF9F
:1046900003E029462046FFF74FFB0020BDE8F081EC
:1046A000F8C9000870B59AB0064664216846FCF760
:1046B00007F800251F482C46FEF788FD96F82D10B8
:1046C00049070DD5012809DC1A48E838FDF76DFDCA
:1046D000304602F013FA304602F068FA1AB070BDA4
:1046E0000128FBDD02284FF400514FF4804206D030
:1046F000032805D0042805D00528EFD103E00C4697
:10470000154600E00C460B486946E838FDF732FADA
:1047100008486946CDE90554E838FDF7C5FC054869
:10472000E838FDF701FD304602F0F6FA304602F0B7
:1047300093FAD3E7804B0024704700002DE9F04145
:104740001F4690460E460446069801F0EDFA0E21EB
:104750000546304602F030FB18B16FF00100BDE8AD
:10476000F0817068858139680160B9888180D8F8E6
:104770000020C0F80620B8F80410418194F82C00FD
:10478000062806D006A34FF4997213A11FA0FBF7C9
:1047900043FEA26931462046BDE8F04110470000C3
:1047A0002E2E2F4D6964646C6577617265732F548A
:1047B000686972645F50617274792F4C7749502F29
:1047C0007372632F6E657469662F65746865726EA7
:1047D00065742E63000000006E657469662D3E6886
:1047E00077616464725F6C656E206D7573742062AE
:1047F00065203620666F722065746865726E657418
:104800005F6F7574707574210000000041737365EB
:104810007274696F6E2022257322206661696C654F
:1048200064206174206C696E6520256420696E20A7
:1048300025730A0010B5040006D10BA340F28B12B9
:1048400010A114A0FBF7E8FD1C49732061611C490D
:10485000A161742184F82E00204684F82F1001F005
:104860008DF9002010BD00002E2E2F4C5749502FDF
:104870005461726765742F65746865726E657469DA
:10488000662E63006E6574696620213D204E554C8E
:104890004C000000417373657274696F6E202225AD
:1048A0007322206661696C6564206174206C696E96
:1048B0006520256420696E2025730A003D3E0008AE
:1048C000795C00088A68002A01DCFCF716B9521EE0
:1048D0008A604A68C0B2531C4B60107070470A4629
:1048E000032100F001B900002DE9FE4F8A464A4934
:1048F0000446D1F8088098F800000007850E142DB2
:1049000050D360890428FBD36068007800287ED0EB
:1049100008287CD1486901F11407C0F303120E2A5C
:1049200075D08946096800F09CF900286FD120896C
:1049300008286CD3204600F06FF9002867D105F1F4
:104940000E0120460E4602F037FA002830D02089AA
:10495000411989B288425AD80E204FF4207202F0D1
:104960008FFA060053D0718905F10800814216D3F1
:1049700070682A464146FBF75EFE2946304603F042
:104980002BF8002806D0B62224A332A13FA0FBF7C3
:1049900043FD04E02146304602F0EEFC18B13046FB
:1049A00002F068FE33E0204602F064FE34460BE07D
:1049B0003146204603F010F830B1C72217A33DA1BD
:1049C00032A0FBF729FD22E066682946204602F066
:1049D000F3F9E0B96168002238684FF6F773C860F0
:1049E000D9F81000086132707088984201D90930F6
:1049F00000E008307080FF20087201234A818DE8B2
:104A00000C04002203463946204600F03FFB2046B6
:104A1000BDE8FE4F02F02EBED44B00242E2E2F4DAB
:104A20006964646C6577617265732F546869726438
:104A30005F50617274792F4C7749502F7372632FD6
:104A4000636F72652F697076342F69636D702E63A2
:104A50000000000069636D705F696E7075743A20C4
:104A60006D6F76696E6720722D3E7061796C6F6133
:104A70006420746F2069636D70206865616465727D
:104A8000206661696C65640A00000000417373650B
:104A90007274696F6E2022257322206661696C65CD
:104AA00064206174206C696E6520256420696E2025
:104AB00025730A0069636D705F696E7075743A20C2
:104AC000726573746F72696E67206F726967696E61
:104AD000616C20702D3E7061796C6F61642066613D
:104AE000696C65640A0000002DE9FF47924689461B
:104AF0002421064622204FF4207202F0C1F905005D
:104B000037D06889242806D21BA34FF4B47228A199
:104B100032A0FBF781FC6C684FF0000877681C221C
:104B200084F8009084F801A0A4F80480A4F806801A
:104B3000686871680830FBF77EFDF868039003A889
:104B400000F0B4FC060011D0A4F802804746698941
:104B5000204600F05BF8608001210097FF23CDE93B
:104B600001160021284603AA00F090FA284602F018
:104B700081FDBDE8FF8700002E2E2F4D6964646C17
:104B80006577617265732F54686972645F506172F2
:104B900074792F4C7749502F7372632F636F72654E
:104BA0002F697076342F69636D702E6300000000EA
:104BB000636865636B2074686174206669727374DE
:104BC00020706275662063616E20686F6C64206976
:104BD000636D70206D657373616765004173736504
:104BE0007274696F6E2022257322206661696C657C
:104BF00064206174206C696E6520256420696E20D4
:104C000025730A000A460B21FFF76EBF00B501F0BD
:104C10009BF8C04380B200BD70B5002605463446FF
:104C200012E06989686801F08FF82044A97A020CC3
:104C300012FA80F4C90706D08EB10026E0B2C4F3A0
:104C4000072141EA00242D68002DEAD126B1E0B207
:104C5000C4F3072141EA0024E04380B270BD01267D
:104C6000ECE7421C12D088B191F82D2092070BD5A9
:104C70004A68824208D089680A4000EA01039342E8
:104C800002D10143491C01D0002070470120704728
:104C90002DE9F74F88B004460025AF1F0998142668
:104CA000808C1438C11700EB5170C0F3CF00039013
:104CB00060680690017801F00F01052903D038469D
:104CC0000BB0BDE8F08F6189142907D25DA34FF4C2
:104CD0003F726BA171A0FBF79FFBF0E7C08801F06A
:104CE00023F82189C0F30C02029200F40050143919
:104CF00007901FFA81F89EE003994FF6FF7000EAD3
:104D0000C1004146404500D90846049014210E20B8
:104D10004FF4207202F0B4F85FEA000A5ED0BAF8ED
:104D20000A00142806D247A34FF4497265A15BA07C
:104D3000FBF772FBDAF8040014220699FBF77BFC00
:104D4000DAF80400049F059035E06089811B8DB27C
:104D5000B04206D23BA340F22D3262A14FA0FBF736
:104D60005BFBAF4200D23D461DB3042001F014FCB2
:104D70005FEA00092FD0606841224B462946304443
:104D8000CDE90005002002F0EBF95FEA000B28D026
:104D9000204602F0DBFD57495046C9E90414594644
:104DA00002F0FAF9781B07043F0C06D024680026AD
:104DB000CBE724680026002FC7D1099871198EB25D
:104DC000808C1438404510DB079800280298C0F307
:104DD0000C000DD10EE0504602F04CFC4FF0FF30BD
:104DE0006EE7484600F092FBF5E70298C0F30C002E
:104DF00040F4005000F098FF01460598C1800498E7
:104E0000143080B200F090FF05990022488051468E
:104E10000598428109980A9A43699847504602F0DA
:104E200029FC0498A8EB0002DDE902101FFA82F8C1
:104E3000014488B20290B8F1000F7FF45DAF00200A
:104E40003EE700002E2E2F4D6964646C6577617219
:104E500065732F54686972645F50617274792F4C66
:104E60007749502F7372632F636F72652F69707665
:104E7000342F6970345F667261672E630000000032
:104E80006970345F6672616728293A2070627566BE
:104E900020746F6F2073686F7274000041737365C4
:104EA0007274696F6E2022257322206661696C65B9
:104EB00064206174206C696E6520256420696E2011
:104EC00025730A0074686973206E656564732061D8
:104ED000207062756620696E206F6E65207069654E
:104EE00063652100702D3E6C656E203E3D20706F25
:104EF00066660000E55A00082DE9F0474568074658
:104F00000E4604212878B1EB101F03D0384602F07A
:104F1000B1FB75E000074FEA9068688800F004FF75
:104F200004463889A04203D92146384602F074FC71
:104F300079894145EAD33889A042E7D3B8F1140F03
:104F4000E4D3DFF814912969C9F81410C1F30312EE
:104F5000E9680E2AC9F8101005D0304600F080F834
:104F600050B1344619E096F82D00C00702D07068A1
:104F70000028F6D1002410E099F8140000247F28BE
:104F80000BD03648046806E0B44203D0204600F057
:104F900067F810B92468002CF6D1D9F81000314612
:104FA000FFF75FFE0028B1D199F81000C0F303109D
:104FB0000E28ABD0002CA9D0E88830F0C00005D076
:104FC000384600F02FF907001AD07D683846C9F836
:104FD0000850C9E9004629780907890EA9F80C107C
:104FE000414602F0F9FC687A012811D006280AD05F
:104FF000D9F814004D462146FFF733FE68B119E099
:105000000020BDE8F0873146384603F0ABFD14E0E0
:1050100031463846FFF768FC0FE0287DC0F30310E7
:105020000E2807D04146384602F0DEFB0221384602
:10503000FFF755FC384602F01DFB0021C9F80010AF
:10504000C9F80410C9F80810A9F80C10C9F8101014
:10505000C9F81410D4E70000D44B0024004A0024FF
:1050600010B590F82D10C9070CD0416851B1064A0F
:1050700052698A4204D001461046FFF7F2FD08B19A
:10508000012010BD002010BDD44B0024FEB5DDE989
:105090000954089E1AB109B10F6807B9211D00967D
:1050A000CDE9015400F002F8FEBD00002DE9F84FF3
:1050B000DDE90BA80546807BDDF828B01F460128F6
:1050C0001646894606D02FA34FF455723AA13DA04B
:1050D000FBF7A2F9002E6FF0010436D01421284608
:1050E00001F06AFE002833D168896C68142806D262
:1050F00024A34FF462723DA132A0FBF78DF9277211
:10510000452084F809A031682161207084F801B03D
:10511000288900F009FE414F4FF0000A6080A4F892
:1051200006A0388800F000FEA080B9F1000F388892
:1051300000F10100388005D0D9F80000E060A4F843
:105140000AA00CE036480068F8E76889142802D203
:105150002046BDE8F88F68686E4600690090B8F890
:10516000240040B12989814205D93246414628466A
:10517000FFF78EFDEDE7D8F8143040463246294659
:105180009847E6E72E2E2F4D6964646C657761724F
:1051900065732F54686972645F50617274792F4C23
:1051A0007749502F7372632F636F72652F69707622
:1051B000342F6970342E6300702D3E726566203D79
:1051C0003D203100417373657274696F6E20222532
:1051D0007322206661696C6564206174206C696E5D
:1051E0006520256420696E2025730A006368656365
:1051F0006B207468617420666972737420706275C4
:10520000662063616E20686F6C64207374727563CE
:10521000742069705F686472000000005E4A0024B8
:10522000F0CA00082DE9F05F45688346287800F051
:105230000F0005287DD1E88800F076FDC004070C3A
:10524000688800F071FD29780907890E814270D8BD
:10525000401A1FFA80F8584602F036F86A4C0646A3
:10526000208830440A2809D93146284600F0E4FB5A
:1052700000285ED0208830440A28E8D8A146646817
:105280004FF0000A0CE06069E968884207D1A06924
:105290002969884203D1A089A988884203D024685B
:1052A000002CF0D106E02CB1E88800F03DFDC004F0
:1052B0001BD025E0032001F06FF904000AD131462C
:1052C000284600F0B9FBB04233DB032001F064F95B
:1052D0000400CED02021FBF7F3F90F21E177D9F8B4
:1052E00004102160C9F8044004E0E08900F01CFDCE
:1052F000C00405D01422294604F10800FBF79BF9ED
:10530000A87940F340156D1C08D007EB080080B267
:10531000B84264D34FF6EB71884260D82A465946AA
:10532000204600F03BF9411C59D0B9F80020324426
:1053300000E065E0A9F8002035B1A27F07EB080185
:10534000A18342F00102A277012846D161681422AC
:10535000A08B14304D6887B204F1080128462E68EE
:10536000FBF769F9384600F0DFFC01466980A5F8D3
:1053700006A0A5F80AA0656809E077681421304600
:1053800002F02AFB3146284601F006FF3E68002E57
:10539000F3D1D9F804104E468C4205D1002105E026
:1053A0000868A04202D001460029F9D1204600F049
:1053B00019FA284601F088FF04463088A04206D238
:1053C00012A340F29B2220A126A0FBF725F83088EB
:1053D000001B30802846BDE8F09F0020FBE7606896
:1053E00070B9D9F80400844206D008A340F2AB2279
:1053F00026A11CA0FBF710F80021204600F0F2F9CE
:10540000584602F037F9E8E7604A00242E2E2F4D67
:105410006964646C6577617265732F54686972643E
:105420005F50617274792F4C7749502F7372632FDC
:10543000636F72652F697076342F6970345F66729E
:1054400061672E630000000069705F7265617373AD
:105450005F70627566636F756E74203E3D20636C8D
:10546000656E0000417373657274696F6E2022254A
:105470007322206661696C6564206174206C696EBA
:105480006520256420696E2025730A006E6F7420E4
:105490006669727374616C74686F756768206A7589
:1054A000737420656E7175657565640070B501462D
:1054B000144813E090F82D20D3070FD053070DD5D3
:1054C00043685BB184680D68234005EA04069E4288
:1054D00016D0920702D4C268954211D00068002805
:1054E000E8D10948006850B190F82D20D30706D0C4
:1054F000520704D5426812B109787F2900D10020F3
:1055000070BD0000004A0024044A002410B50400C5
:1055100006D106A34FF4317213A116A0FAF77CFF4F
:105520002146BDE81040042000F07EBF2E2E2F4DF6
:105530006964646C6577617265732F54686972641D
:105540005F50617274792F4C7749502F7372632FBB
:10555000636F72652F697076342F6970345F66727D
:1055600061672E63000000007020213D204E554CE5
:105570004C000000417373657274696F6E202225C0
:105580007322206661696C6564206174206C696EA9
:105590006520256420696E2025730A002DE9F05FDF
:1055A0004C68002593460F4606464FF00108608878
:1055B00000F0BAFB21784FF0FF3A0907890E8142CB
:1055C00031D8A0EB0109E08800F0AEFB7C68C10493
:1055D0000020090C01EB0902206093B2A1808B42EC
:1055E000E38020D3726829E05068B0F804C06145B8
:1055F00015D222606DB1B5F806C0614513D380881D
:10560000834210D82F60A088844506D04FF0000850
:1056100003E08088834206D877608AB12EE002D00A
:10562000C288914202D25046BDE8F09F25B1EA8877
:10563000624501D04FF0000802680546002AD3D128
:1056400095B1E888A188884206D92AA34FF4DB7275
:1056500037A13FA0FAF7E0FE2F60E888A1888842D2
:105660000CD04FF0000809E0706830B121A34FF46E
:10567000DF7241A136A0FAF7CFFE7760BBF1000FD1
:1056800002D1B07FC007CFD0B8F1000F30D0726820
:10569000002A2DD050688088002829D12068214612
:1056A00028B14468C888A1888842F7D020E0B8F1C2
:1056B000000F1DD032B90FA340F2DF123CA124A08D
:1056C000FAF7AAFE70684068A04206D109A34FF419
:1056D000F07237A11EA0FAF79FFE206830B105A333
:1056E0004FF4F17236A11AA0FAF796FE01209BE75B
:1056F000002099E72E2E2F4D6964646C65776172E6
:1057000065732F54686972645F50617274792F4CAD
:105710007749502F7372632F636F72652F697076AC
:10572000342F6970345F667261672E630000000079
:10573000636865636B20667261676D656E74732064
:10574000646F6E2774206F7665726C617000000064
:10575000417373657274696F6E202225732220660F
:1057600061696C6564206174206C696E65202564D4
:1057700020696E2025730A006E6F2070726576694D
:105780006F757320667261676D656E742C20746826
:105790006973206D75737420626520746865206676
:1057A0006972737420667261676D656E74210000A2
:1057B00073616E69747920636865636B0000000033
:1057C00076616C69646174655F646174616772615C
:1057D0006D3A6E6578745F70627566213D4E554C0A
:1057E0004C00000070B504460C480D464168A142CB
:1057F00002D1216841600AE0002D06D108A340F2E1
:10580000451216A11CA0FAF707FE20682860214661
:10581000BDE87040032000F007BE0000604A00248D
:105820002E2E2F4D6964646C6577617265732F54F9
:10583000686972645F50617274792F4C7749502F98
:105840007372632F636F72652F697076342F69707E
:10585000345F667261672E630000000073616E69D9
:10586000747920636865636B206C696E6B65642076
:105870006C69737400000000417373657274696F22
:105880006E2022257322206661696C656420617434
:10589000206C696E6520256420696E2025730A00DE
:1058A0002DE9F04705460F46A9424FF0000405D107
:1058B000AB222EA33CA13FA0FAF7AEFD002F08D0EB
:1058C0003868A84205D0AD2228A344A139A0FAF730
:1058D000A3FD6E684FF480387068818800291AD162
:1058E00000681422686005F108017068FAF7A3FEE9
:1058F00001213046FFF786F9304601F0E5FC4045CE
:10590000044605D3BC2219A339A12AA0FAF784FDC5
:10591000304601F0AFFE6E6812E07068B14606686E
:10592000484601F0D1FC0444444505D3CC220FA3E2
:105930002FA120A0FAF770FDA4B2484601F09AFE0C
:10594000002EEAD139462846FFF74CFF304D288813
:10595000A04205D2D22205A32EA116A0FAF75CFD23
:105960002888001B28802046BDE8F0872E2E2F4D6A
:105970006964646C6577617265732F5468697264D9
:105980005F50617274792F4C7749502F7372632F77
:10599000636F72652F697076342F6970345F667239
:1059A00061672E63000000007072657620213D2043
:1059B00069707200417373657274696F6E2022257D
:1059C0007322206661696C6564206174206C696E65
:1059D0006520256420696E2025730A007072657643
:1059E0002D3E6E657874203D3D2069707200000088
:1059F00070627566735F6672656564202B20636CE8
:105A0000656E203C3D2030786666666600000000CA
:105A1000604A002469705F72656173735F706275BC
:105A200066636F756E74203E3D2070627566735FAD
:105A300066726565640000002DE9F0471D4F002483
:105A4000894606460022134611467868154622E02C
:105A5000D0F814C0D6F80C80C4450BD1D0F818C0CB
:105A6000D6F81080C44505D1B0F80CC0B6F8048053
:105A7000C44509D06D1C2AB190F81FC092F81F8050
:105A8000C44501D802461946D0F800C0BCF1000F49
:105A900000D0034660460028DAD11AB11046FFF75D
:105AA000FFFE04444C4501DA012DCBDC2046BDE865
:105AB000F0870000604A0024094870B5002544685A
:105AC0000BE0E07F20B1401EE0772546246804E02B
:105AD000204624682946FFF7E3FE002CF1D170BD73
