:020000040800F2
:100000001061032489030008493900083F330008C0
:1000100047390008C50900083D40000800000000FD
:10002000000000000000000000000000BD3D0008CE
:10003000310B0008000000004B390008BF3D0008EC
:10004000A3030008A3030008A3030008A3030008F8
:10005000A3030008A3030008A3030008A3030008E8
:10006000A3030008A3030008A3030008A3030008D8
:10007000A3030008A3030008A3030008A3030008C8
:10008000A3030008A3030008A3030008A3030008B8
:10009000A3030008A3030008A3030008A3030008A8
:1000A000A3030008A3030008A3030008A303000898
:1000B000A3030008A3030008A3030008A303000888
:1000C000A3030008A3030008A3030008A303000878
:1000D000A3030008A3030008A3030008A303000868
:1000E000A3030008A303000800000000A303000806
:1000F000A3030008A3030008A3030008A303000848
:10010000A3030008A3030008A3030008A303000837
:10011000A3030008A3030008A3030008A303000827
:10012000A3030008A3030008A3030008A303000817
:10013000A3030008A3030008A3030008A303000807
:1001400000000000000000000000000000000000AF
:10015000A3030008A3030008A3030008A3030008E7
:10016000A3030008A3030008A3030008A3030008D7
:10017000A3030008A3030008A3030008A3030008C7
:10018000A3030008A3030008A3030008A3030008B7
:10019000A3030008A3030008A3030008A3030008A7
:1001A00071330008A3030008010B0008A303000833
:1001B000A3030008A3030008A3030008A303000887
:1001C000A3030008A3030008A3030008A303000877
:1001D000A3030008A3030008A3030008A303000867
:1001E000A3030008A3030008A3030008A303000857
:1001F000A3030008A3030008A3030008A303000847
:10020000A3030008A3030008A3030008A303000836
:10021000A3030008A3030008613F0008A30300082C
:10022000A3030008A3030008A303000800000000C4
:10023000A3030008A303000800000000A3030008B4
:10024000A3030008A3030008A3030008A3030008F6
:10025000A3030008A3030008A3030008A3030008E6
:10026000A3030008A3030008A3030008A3030008D6
:10027000A3030008A3030008A30300080000000074
:10028000A3030008A3030008A30300080000000064
:1002900000000000A303000800F002F800F065F879
:1002A0000AA090E8000C82448344AAF10107DA45D1
:1002B00001D100F05AF8AFF2090EBAE80F0013F0BE
:1002C000010F18BFFB1A43F001031847E8DB0000D9
:1002D00008DC00000A444FF0000C10F8013B13F05A
:1002E000070408BF10F8014B1D1108BF10F8015B8F
:1002F000641E05D010F8016B641E01F8016BF9D182
:1003000013F0080F1EBF10F8014BAD1C0C1B09D1D8
:100310006D1E58BF01F801CBFAD505E014F8016B4A
:1003200001F8016B6D1EF9D59142D6D370470000DC
:100330000023002400250026103A28BF78C1FBD8EE
:10034000520728BF30C148BF0B6070471FB50CF083
:100350001DFB9DE8030000F0EBF900F025F91FBD3F
:1003600010B5002000F092F910BD00F04DFA1146D2
:10037000FFF7ECFF0BF08AFE00F085FA03B4FFF7FD
:10038000EFFF03BC00F022F9094880470948004705
:10039000FEE7FEE7FEE7FEE7FEE7FEE7FEE7FEE735
:1003A000FEE7FEE704480549054A064B7047000092
:1003B000853E0008990200081031032410610324CF
:1003C000104103241041032410B5002000F07FF9F0
:1003D000FFF7C6FFBDE81040012000F0F7B82DE997
:1003E000F041074615460E46102000F0F9F80400CB
:1003F0000AD06760C4E9026500F0EEF80168216088
:1004000004600020BDE8F0810120FBE740EA010321
:1004100010B59B070FD1042A0DD310C808C9121FAD
:100420009C42F8D020BA19BA884201D9012010BDE7
:100430004FF0FF3010BD1AB1D30703D0521C07E0B4
:10044000002010BD10F8013B11F8014B1B1B07D118
:1004500010F8013B11F8014B1B1B01D1921EF1D189
:10046000184610BD032A40F2308010F0030C00F053
:10047000158011F8013BBCF1020F624498BF11F8DE
:1004800001CB00F8013B38BF11F8013BA2F1040297
:1004900098BF00F801CB38BF00F8013B11F003030F
:1004A00000F02580083AC0F0088051F8043B083A73
:1004B00051F804CBA0E80810F5E7121D5CBF51F815
:1004C000043B40F8043BAFF30080D20724BF11F88F
:1004D000013B11F801CB48BF11F8012B24BF00F8F4
:1004E000013B00F801CB48BF00F8012B704710B565
:1004F000203AC0F00B80B1E81850203AA0E818501C
:10050000B1E81850A0E81850BFF4F5AF5FEA027CDC
:1005100024BFB1E81850A0E8185044BF18C918C04B
:10052000BDE810405FEA827C24BF51F8043B40F8EC
:10053000043B08BF7047D20728BF31F8023B48BFD1
:1005400011F8012B28BF20F8023B48BF00F8012B0F
:1005500070474FF0000200B5134694469646203986
:1005600022BFA0E80C50A0E80C50B1F12001BFF46C
:10057000F7AF090728BFA0E80C5048BF0CC05DF8D2
:1005800004EB890028BF40F8042B08BF704748BF20
:1005900020F8022B11F0804F18BF00F8012B704794
:1005A000704770477047000070B5064C7C44064D9C
:1005B0007D4403E0206820448047241DAC42F9D1EB
:1005C00070BD000078D9000084D9000001491820CE
:1005D000ABBEFEE72600020000487047842D0324CE
:1005E00070B5064600F088F8056806F10B0020F0AB
:1005F0000704B4429CBF002070BD2B466A68BAB1A4
:100600001068A04210D304F1080188423CBF506832
:10061000586007D35168101941601168091B0160C7
:1006200058601460101D70BD13465268002AE7D14F
:100630002146284600F068F80028DED170BD70B56C
:100640000446051F00F058F80068002C14BF4468E9
:1006500070BD002C18BFAC423CBF20466468F8D384
:1006600001680A18AA4218BF456003D12A680546E6
:100670001144016028684119A1421CBF6C6070BD23
:100680006168696021680844286070BD2DE9F04107
:100690000646FFF7A1FF8046454613E016B1E06825
:1006A000B0420ED120682860D4E90101D8F800706A
:1006B00088472046FFF7C3FFD8F80000B842EBD1C7
:1006C00000E025462C68002CE8D1BDE8F08110B58B
:1006D00000F06AF8BDE8104000F060B810B500F016
:1006E0007BF8BDE8104000F059B8000000487047A2
:1006F0004C2D03247047000000487047542D0324FC
:10070000704770477047704738B504460A46002066
:100710006946AFF30080002808BF38BD0246009943
:10072000204600F096F8012038BD012000F0CDB839
:10073000F8B5AFF30080054600200C46102000BF3E
:100740000646A819A0420DD9324669460020AFF3EB
:100750000080070008BF00F0B8F80098A04218BF5A
:100760000546C419FFF7C8FF05600746F01D20F0D5
:1007700007004619284600F00AF8B44208BFF8BD41
:10078000A21B31463868BDE8F84000F062B800218D
:100790000160C0E90110704710207047002801D0A7
:1007A000FFF714BF7047000010B5002102A000F051
:1007B00073F8012010BD0000534947414252543A9A
:1007C0002041626E6F726D616C207465726D696E2E
:1007D0006174696F6E00000010B5002102A000F086
:1007E0005BF8012010BD00005349475056464E3A71
:1007F0002050757265207669727475616C20666E22
:100800002063616C6C6564007546FFF76FFFAE4650
:1008100005006946534620F00700854618B020B50C
:10082000FFF7C0FDBDE820404FF000064FF0000785
:100830004FF000084FF0000B21F00701AC46ACE888
:10084000C009ACE8C009ACE8C009ACE8C0098D46F5
:100850007047034640688C46002818BF88423CBF5A
:1008600003464068F8D318681844884207D00CF152
:10087000030020F00700001D411A521A0146081D0E
:100880000A60FFF7DCBE10B50446AFF300802046D7
:10089000BDE81040FFF772BD70B505460C460A2052
:1008A00000E06D1C00F018F835B128780028F8D168
:1008B00002E0641C00F010F814B120780028F8D190
:1008C000BDE870400A2000F007B810B500F00CF841
:1008D000BDE81040FFF762BF08B569468DF800001B
:1008E0000320ABBE08BD000010B5012805D00021D3
:1008F00003A0FFF7D1FF012010BD09A1F8E7000018
:1009000053494752544D454D3A204F7574206F66F8
:100910002068656170206D656D6F72790000000060
:100920003A2048656170206D656D6F727920636F44
:1009300072727570746564002DE9F843204C1027BD
:1009400000254FF6FF780126009521468146C4E92F
:100950000067C4E9026501F11000424602F0A2FB03
:10096000012000F029FB02202146C4E90007C4E968
:10097000026501F11000424602F094FB0321424659
:10098000C4E9001708202146C4E9020501F110005E
:1009900002F088FB4FF40870009004214246C4E93D
:1009A0000260C4E90017214601F1100002F07AFB51
:1009B00004F110004946BDE8F84302F05BBB0000BB
:1009C00044110324FEE700002E4B002270B51C6882
:1009D00024F001041C602C4C2368C3F30B15012385
:1009E000A5F54066243E0ED02568C5F30B15A5F588
:1009F0004066273E07D02468C4F30B14A4F5506565
:100A0000223D2BD017E0214A1268A2B9204A14686F
:100A10004FF08A45B5EB045F18D01468C4F30B049B
:100A2000A4F58065833D11D01268C2F30B02A2F5D4
:100A30008064853C0AD0174A93609368002BFCD1F0
:100A40001060106888421BD0002070BD124A1360ED
:100A50001368002BFCD1104A083AF1E70F4C2468C8
:100A6000C4F30B04A4F58065863D01D0104670BD2B
:100A70000B4A13601368002BFCD1094A083ADFE7E0
:100A8000012070BD002000E000ED00E0002004E047
:100A90000010005C00300240084C0258F08F004605
:100AA000084C0246F0B591B04FF480774FF44063A4
:100AB000EB2601967A0104920020CDE90773FF240A
:100AC0009A031D010995CDE90A2004230E90CDE972
:100AD000020401210C900D900FAA10900F90CDE907
:100AE0000513064801A900F0BDFF10B1012011B0A7
:100AF000F0BD642000F060FA0020F8E73012032413
:100B00000948416889070ED5016889050BD5026837
:100B1000022122F40072026081600448006840688B
:100B20000168496908477047001000525C030024BF
:100B3000704772B6FEE7F0B5D1E90843CD690A689F
:100B4000C2B10268254322F4F84213431D430560F5
:100B5000D1E90125D1E903364C692A43456833437D
:100B600089691A43EB0B2243DB030A431A434260B1
:100B70000020F0BDD1E9012ED1E9036CD1E9057166
:100B800042EA0E0246EA0C0632433A430A4301683F
:100B90002A4322431A436FF30E010A430260E7E738
:100BA000426943F6FE739A4342EA410141610020E3
:100BB000704770B591E81C00C9686FF01F050669A1
:100BC0001A4305EB441444EA41210A4306EA45432B
:100BD0001A430261002070BD2DE9F04F8B8A6FF03F
:100BE0000F05264C4FF07F4BD1F80C9004EB0353CC
:100BF0006FF0FF044FEA042A1AB386684FEA0932FD
:100C00001F4FA2F580521A433E4032438260D1E921
:100C100000278E68521E05EB07150F8A2A43C56808
:100C200004EB06240E7E0AEB074322431A430BEB28
:100C300006610A4305F070431A43C2600020BDE814
:100C4000F08F91E804110F4E521E0F8A05EB081524
:100C50002A4304EB0C2C06EB09350E7E42EA0C020B
:100C60002A4385680AEB074422431A430BEB0661CB
:100C70000A4305F070431A438260DFE70000F0FF8B
:100C8000FF0F0FFF00F0FFFF134A0021084610B5C9
:100C9000135C401CC0B21944B828C9B2F8D3C84389
:100CA00048F24704401C82F8B8000B4ABA2120469B
:100CB0000BF0A1F80A2000F07FF9084ABA2120467B
:100CC0000BF050F80449F03948700020401CC0B2C5
:100CD000BA28FBD310BD0000540100241C230324B8
:100CE0007FB502F033FB0BF0AFF800246A46102109
:100CF00000940194CD020294284603940BF032F83C
:100D00000D4A102128460BF02DF80A2268460BA147
:100D1000FFF77CFB0028084800F11C0009D00121E6
:100D2000017309480BF054F8FFF7AEFF04B0002040
:100D300070BD0473F5E70000F0220324474F4F44D1
:100D400049585F47543900006E000024F0B504464E
:100D5000C8074FF0000010D01E23012603F01F0724
:100D600006FA07F50D4201D15B1EF7D27AB1082AC7
:100D70000BD0102A06D0182A01D00120F0BD072B75
:100D8000FBD204E0082BF8D201E0102BF5D2236847
:100D9000596121688B6823F0180313438B60F0BD01
:100DA00010B5040010D0607F20B9002020772046C5
:100DB00000F032F821790220607739B1D4E90212CB
:100DC0002046FFF7C3FF48B1012010BD216811483C
:100DD00048612068816821F0180181606079A0B1C4
:100DE000216820690861012220686369816821F017
:100DF0006001194381602068A369816821F0800146
:100E0000194381606277002010BD21684FF0FF30E8
:100E1000E8E70000B71DC10408B50068064988422C
:100E200008D10648016841F400210160006800F41F
:100E30000020009008BD0000004C0258E044025819
:100E4000F0B590F86020012A22D0C1EBC102012741
:100E500080F86070022380F8613000EB8202284D38
:100E6000138F168EB2F83CC0D46A1B05283244EAB0
:100E7000064643EA4C530A2C46EA03060AD0092CDC
:100E800008D0137B46EA036349B10B2C1AD01DE04E
:100E90000220F0BDD36803F07F433343F4E70168D9
:100EA0004C6AAC431C434C62016813688B61516807
:100EB0000A2901D009291BD1D168026821F07F419C
:100EC000916215E0118B0F4D43EA81430168CC69B3
:100ED000AC431C43CC61016813680B6151680A295B
:100EE00001D0092904D1D168026821F07F41116243
:100EF000002180F8617080F860100846F0BD0000A5
:100F00000F0033FF0F003FFF2DE9F041040004D034
:100F100094F86100002518B107E00120BDE8F081D8
:100F2000204684F8605000F033F8184E022084F810
:100F300061000123D4E90010D4F81CC040F207126C
:100F40000F6840EA0C003740384308602068A76902
:100F5000A168466B39439643314341632068E26898
:100F6000016C6FF30F01114301642068218AA28A8A
:100F7000466B090541EA425126F440121143416390
:100F8000656684F861300020C8E70000BFFFF8FF05
:100F900008B500680649884208D10648016841F052
:100FA00010010160006800F01000009008BD000012
:100FB00000100052D444025870B5044600F0A2F963
:100FC0000546601C02D004480078044400F09AF9F9
:100FD000401BA042FAD370BD18000024F0B5B7B092
:100FE000142130A8FFF7B5FA2948016800294DD12E
:100FF00001240460C0216846FFF7ABFA0020129478
:101000002106CDE90010684600F0FCFD08B1FFF7AD
:1010100090FD2048016841F480510160006830A9CA
:10102000022400F48050359000254FF6837003268B
:101030000C2781E8F100184800F03AF830A948F28E
:10104000331081E8F100154800F032F830A94CF275
:10105000037081E8F100124800F02AF830A940F24C
:10106000FF6081E8F1000F4800F022F830A94FF648
:101070002C7081E8F1000C4800F01AF830A94FF606
:101080003F0081E8F100094800F012F837B0F0BDE8
:1010900004000024D44402580010025800180258DA
:1010A000000C025800200258001C0258001402587C
:1010B0002DE9F84F03247D4D00234FF001094FF037
:1010C000B04B4FF00F0AE9E009FA03F73A4076D047
:1010D0000E7906F00306012E01D0022E18D1D0F8A9
:1010E00008C04FEA430ECE6804FA0EF82CEA080C4A
:1010F00006FA0EF646EA0C068660D0F804C00E79B1
:101100002CEA070CC6F300169E4046EA0C06466021
:101110000E79F643B6070BD0C6684FEA43088F68CE
:1011200004FA08FC26EA0C0607FA08F73743C760FA
:101130000E7906F00306022E12D1DE080F694FEA7F
:10114000437C00EB8606B646366A4FEADC6C0AFA48
:101150000CF807FA0CF726EA08063743CEF8207099
:101160000F7906684FEA430807F0030704FA08FC02
:1011700007FA08F726EA0C06374307604E6816F4AC
:10118000403F1CD04A4E376847F002073760366848
:101190009F0706F00206009623F0030606F1B0460C
:1011A000B6463F0FD6F80864DFF808810AFA07FC54
:1011B000404526EA0C0603D14FF0000C41E06CE0FC
:1011C000DFF8F4C0604502D14FF0010C39E0DFF8E0
:1011D000ECC0604502D14FF0020C32E0DFF8E0C015
:1011E000604502D14FF0030C2BE0DFF8D8C060451A
:1011F00002D14FF0040C24E0DFF8CCC0604502D1EE
:101200004FF0050C1DE0DFF8C4C0604502D14FF07F
:10121000060C16E0DFF8B8C0604502D14FF0070CAD
:101220000FE0DFF8B0C0604502D14FF0080C08E0D5
:10123000DFF8A4C0604502D14FF0090C01E04FF087
:101240000A0C0CFA07FC4CEA060CCEF808C44F68EE
:10125000DBF80060FF0226EA020600D516435F466F
:10126000CBF80060D1F804C0DBF804605FEA8C2C96
:1012700026EA020600D516437E606E684F6826EAAD
:101280000206BF0300D516436E602E684F6826EA3B
:101290000206FF0300D516432E605B1C0A6832FA73
:1012A00003F67FF411AFBDE8F88F0000800000580E
:1012B000F444025800000258000402580008025882
:1012C000000C02580010025800140258001802586E
:1012D000001C02580020025800240258426921EAEA
:1012E00002030A4043EA0241816170470AB1816109
:1012F00070470904FBE7000001480068000C7047D4
:101300000010005C0148806870470000180000244D
:1013100002488168027811448160704718000024F7
:10132000032010B500F00CFB01F0D2FA0F4A10496F
:1013300014681368C4F3032203F00F038A5CC95CCA
:1013400002F01F0201F01F01D0400A4A20FA01F109
:101350001160094908600F2000F010F808B1012061
:1013600010BD00F0B1FA002010BD00001844025872
:1013700096C90008280000242400002410B5102875
:1013800004468AB02AD200220146762000F0B8FA3C
:10139000762000F0A7FA154804601548016841F46A
:1013A00080210160006808A900F480200990684647
:1013B00001F02CFA01F07AFA0E49400000220E4C9E
:1013C000B0FBF1F10D4840F2E7330460C0E90332AD
:1013D000491EC0E9011201F086FE10B101200AB0D9
:1013E00010BD064801F0B2FEF9E700001C00002421
:1013F000F044025840420F00004801407C12032490
:101400002DE9F041044690F8A00016460F46012849
:101410001DD0012584F8A050022084F8A10006EB1D
:10142000860000EBC600342204EB80003830FFF762
:101430005EF832463946204601F0A0FF21680020C0
:101440004D6284F8A15084F8A000BDE8F08102202C
:10145000FBE770472DE9F0410446006800274FF094
:101460000408856B466B690715D5710713D5426B68
:1014700022F0040242632068C0F83C80D4F8A40043
:1014800040F00100C4F8A40084F8A180204684F84C
:10149000A070FFF7DEFFA80716D5B00714D52068A7
:1014A0000222436B23F0020343632068C263D4F833
:1014B000A40040F00200C4F8A40084F8A1802046F3
:1014C00084F8A070FFF7C5FF05EA06004FF0010899
:1014D000C0070ED021684A6B22F001024A632168DE
:1014E000C1F83C8084F8A180204684F8A07000F008
:1014F00091F8280710D530070ED520680822436BD5
:1015000023F0080343632068C26384F8A180204667
:1015100084F8A07000F0D6F9BDE8F0812DE9F04123
:10152000040004D094F8A100002518B107E00120C0
:10153000BDE8F081204684F8A05000F09BF83448C4
:10154000022184F8A110012202CC8B6923F07043A0
:101550008B6194E84A001943E3681E4354F8043D44
:1015600031439E693143996121688B6803408B60E8
:101570002168A68AA7698B683B4343EA06438B60D0
:101580002168CB680340CB602168A38B276ACE68B3
:101590003E4346EA0346CE6021680B6903400B6177
:1015A0002368A68CA76A1969394341EA0641196183
:1015B00021684B6903404B612068A38D266B41690C
:1015C000314341EA03414161236894F8351094F8AE
:1015D0003600DE6A000406F07F46DE62236840EAD9
:1015E000012094F83460D96A31430143D9622068FC
:1015F000416B41F0060141632068816941F00101BE
:101600008161C4F8A45084F8A120002090E7000074
:1016100000F800F010B5144C2168002923D01349BC
:10162000134A0B6C11888B4212D1518800F028F9B3
:10163000206890F86A10491C80F86A1003F0ACFB2F
:10164000206805F063FCBDE81040002006F027BDCF
:1016500000F016F920680168096A8847BDE8104063
:10166000002006F01EBD10BD5C03002400100050D9
:10167000380000242DE9F047B6B00446142168462E
:10168000FEF767FFC02106A8FEF763FF72492068D6
:1016900088427DD100224FF00A0C410414464FF4D9
:1016A0008068CDE9158278261792CDE9061212A935
:1016B000042302250527CDE9103681E8A01006A8ED
:1016C00000F0A0FA08B1FFF734FA6448016841F06D
:1016D00008010160006800F0080005905F48001FE5
:1016E000016841F002010160016801F00201059109
:1016F000016841F040010160016801F0400105917D
:10170000016841F008010160016801F008010591DC
:10171000016841F480710160016801F480710591F4
:10172000016841F001010160016801F001010591CA
:10173000016841F080010160016801F080010591BC
:10174000016841F004010160016801F004010591A4
:10175000016841F02001016000680E26DFF800A159
:10176000694600F020000590F0010090CDE9015499
:10177000CDE903465046FFF79BFCDFF8E8904FF4B5
:10178000A05000900927CDE901546946484600E081
:101790005EE0CDE90347FFF78BFC4FF40C6000904F
:1017A000CDE90154CDE9034669464846FFF780FC80
:1017B00008200090CDE901542B486946CDE9034645
:1017C000FFF776FC4FF400600090CDE90154274804
:1017D0006946CDE90347FFF76BFC4FF4BC700090FE
:1017E000CDE9015422486946CDE90346FFF760FC84
:1017F00010200090CDE901541E486946CDE9034709
:10180000FFF756FC41200090CDE901541A48694683
:10181000CDE90346FFF74CFCCDF800806946CDE9E1
:1018200001541648CDE90346FFF742FC0120009021
:10183000CDE90154CDE9034769465046FFF738FC2E
:1018400000225820114600F05BF8582000F04AF8BA
:1018500036B0BDE8F087000000100050E4440258A4
:101860000004025800180258000C025800200258C8
:1018700000000258001C02580008025800140258C8
:1018800070B590F8A020012A18D00D4D012380F8E2
:10189000A030022280F8A120002450F8A02B566B23
:1018A00026F001065663296450F8A01C4A6B42F0EA
:1018B00001024A6343700470204670BD022070BD6F
:1018C0000010005070470000054808B5016841F05D
:1018D00002010160006800F00200009008BD0000F5
:1018E000F4440258002809DB410900F01F02890076
:1018F000012001F1E0219040C1F800017047000093
:101900000E4BF0B41B680D46C3F30223C3F1070668
:10191000042E00D90426191D072901D2002300E056
:10192000DB1E012404FA06F19C40491E2940641E76
:10193000994014402143F0BC0AF050B90CED00E08E
:10194000064900F0070210B54FF6FF040868044B83
:10195000204040EA02201843086010BD0CED00E072
:101960000000FA05134970B50A68D243520705D53D
:10197000096801F00701814213D118E00A6822F0DA
:10198000070202430A60FFF7BDFC0A4D4FF47A7666
:101990000446083D07E000BFFFF7B4FC001BB0425F
:1019A00001D9012070BD2868C0438004F4D4002010
:1019B00070BD00000C480258F8B50446FFF7A2FCC1
:1019C00005461CB194F8410010B107E00120F8BDB4
:1019D000204600F08DF841F28830A06420686FF056
:1019E000FF02A168036802EB012223F4F8511143BE
:1019F0000160A06C002220212B460090204602F0BE
:101A000099F80028E3D12268D4E907352679E168FE
:101A1000176845EA0665DFF844C01943104B2943AF
:101A20000025012607EA0C07394311602268D4E932
:101A30000517B4F810C0D2F804E039430EEA030EDB
:101A40004EEA0C431943516021680A6842F00102D2
:101A50000A60656484F84160F8BD00002FFFFF0054
:101A6000FEF8E0FF2DE9F843164688460446FFF7E6
:101A700049FC034694F8400001280ED0012084F868
:101A80004000002794F84100012808D05FF00205CB
:101A900084F840702846BDE8F8830220FBE7A06C7C
:101AA0008221676484F841100022202100902046A2
:101AB00002F040F80500EBD120687268016821F05F
:101AC000080111430160706808280AD122681021BA
:101AD000306810632068C1602068016841F480119B
:101AE00001604FF040624146204601F04FFFCFE7D2
:101AF0002DE9F04FB7B00446142130A8FEF729FDB8
:101B0000C0216846FEF725FD3949206888426BD11F
:101B1000002013904FF000710446CDE90010684694
:101B200000F070F808B1FFF704F83248016841F49A
:101B300080410160006800F4804035902D480C30F1
:101B4000016841F010010160016801F01001359158
:101B5000016841F002010160016801F00201359164
:101B6000016841F020010160006809274FF0040876
:101B7000CDF8C08000F02000022503263396CDE981
:101B800034701D4830A9CDE93154FFF791FA32AADB
:101B90004FF00A0ADFF864B04FF0400930A982E83C
:101BA0005004CDE930955846FFF782FACDE93095DB
:101BB00032AADFF84C9030A9484682E8D000FFF7FF
:101BC00077FA3102484632AACDE9301530A982E8C9
:101BD0005004FFF76DFA32AA584630A982E8D000C7
:101BE000CDE93085FFF764FA37B0BDE8F08F00002B
:101BF00000500052D4440258001002580004025809
:101C0000001402582DE9FE4F0546DFF8E48350F832
:101C1000081B0024F64FC943019005F12800264611
:101C200008F12408009008011DD4A86E50B1B0F549
:101C3000801F0CD0B0F5001F0ED0B0F5401F1ED095
:101C400001240FE0386840F40030386017E0019854
:101C5000022101F093FF03E00098022102F01EF838
:101C600004000CD026462888C043C00523D4A86DA4
:101C700005281ED2DFE800F00C11161B1B00AA6E0F
:101C8000D8F8001021F440111143C8F80010EAE719
:101C9000386840F40030386009E00198002101F014
:101CA0006DFF03E00098002101F0F8FF044674B1D5
:101CB00000E0012426462888C043800528D4E86D2A
:101CC00080281ED00CDC90B140280ED114E0AA6D03
:101CD000D8F8001021F007011143C8F80010EAE716
:101CE000C02813D0B0F5807F10D001240FE03868F1
:101CF00040F40030386009E00198002101F03EFF17
:101D000003E00098002101F0C9FF04469CB126467B
:101D10002888DFF8DC92C04309F12C0940052CD457
:101D2000D5F8A800B0F5800F20D00DDCA0B1B0F53B
:101D3000001F0FD115E0EA6DD8F8001021F4E07112
:101D40001143C8F80010E3E7B0F5C00F13D0B0F5A9
:101D5000000F10D001240FE0386840F400303860E4
:101D600009E00198002101F009FF03E0009800213B
:101D700001F094FF04467CB126462888C043000544
:101D80002DD4D5F8AC00B0F1007F21D00EDCA8B185
:101D9000B0F1807F10D116E0D5F8A820D9F8001056
:101DA00021F460011143C9F80010E6E7B0F1407F6B
:101DB00013D0B0F1806F10D001240FE0386840F4E8
:101DC0000030386009E00198002101F0D7FE03E0FF
:101DD0000098002101F062FF044674B1264628688D
:101DE000C04380011FD4E86CD8B110280FD0202840
:101DF00012D0302815D0012414E0D5F8AC20D9F841
:101E0000001021F0E0611143C9F80010E7E73868DD
:101E100040F40030386004E00198022101F0AEFE89
:101E2000044674B126462888C043C0042BD4286ECB
:101E3000B0F5005F20D00DDCA0B1B0F5805F0FD110
:101E400015E06B48EA6C2030016821F03001114345
:101E50000160E8E7B0F5405F13D0B0F5804F10D0D7
:101E600001240FE0386840F40030386009E0019840
:101E7000002101F083FE03E00098002101F00EFF35
:101E800004468CB126462888C043800429D4686E55
:101E9000B0F5403F23D010DC08B3B0F5803F14D03C
:101EA000B0F5003F0FD115E02A6ED8F8001021F4EC
:101EB000E0411143C8F80010E5E7B0F5802F0ED0DF
:101EC000B0F5A02F0BD001240AE00198012101F008
:101ED00055FE03E00098012101F0E0FE044694B1B4
:101EE00026462888C04340042AD4D5F8B000B0F173
:101EF000405F23D010DC08B3B0F1805F14D0B0F1A4
:101F0000005F0FD115E06A6ED8F8001021F4E021CF
:101F10001143C8F80010E4E7B0F1804F0ED0B0F1E3
:101F2000A04F0BD001240AE00198012101F026FE08
:101F300003E00098012101F0B1FE044674B1264689
:101F40002888C04300041FD4286FD8B1B0F1805F47
:101F50000ED0B0F1005F10D0012414E0D5F8B0200D
:101F6000D9F8001021F0E0411143C9F80010E7E76B
:101F7000386840F40030386004E00198012101F035
:101F8000FDFD044674B126462868C043C0011ED436
:101F9000A86CD0B101280ED0022811D0032814D08B
:101FA000012413E02A6FD8F8001021F040511143AA
:101FB000C8F80010E8E7386840F40030386004E002
:101FC0000198022101F0DAFD0446ACB126462868EA
:101FD000DFF81CB0C043ABF11C0B400252D40548E3
:101FE000016841F480710160FFF78CF9824611E0CD
:101FF0002C44025800480258FA48AA6C016821F0A3
:10200000030111430160E2E7FFF77CF9A0EB0A004E
:10201000642835D8F4480068C005F5D58CBBDFF8D6
:10202000C4A3B5F8B4100AF1240ADAF8000001F4E8
:10203000407100F44070884211D0DAF80010DAF8EC
:10204000002021F4407142F48032CAF80020DAF80E
:10205000002022F48032CAF80020CAF80010D5F817
:10206000B400B0F5807F1AD1FFF74CF9029012E06E
:10207000FFF748F90299411A41F2883081420AD9A2
:10208000032426462878DFF85CA3C0430AF1080A37
:10209000C00721D03CE0DAF800008007E8D5D5F889
:1020A000B410C1F30120032858460DD0016821F473
:1020B0007C510160B5F8B420DAF80010C2F30B02CD
:1020C0001143CAF80010DDE7C84A036802EA11129A
:1020D00023F47C511143ECE7E86F182816D005DC97
:1020E000A0B1082808D0102804D10AE020280DD07B
:1020F00028280BD001240AE00198012101F03EFDBF
:1021000003E00098012101F0C9FD044664B12646B0
:102110002878C04380071ED4A86F062819D2DFE8AC
:1021200000F0160C11161616EA6FDAF8001021F0FE
:1021300038011143CAF80010EAE70198012101F0C3
:102140001DFD03E00098012101F0A8FD04467CB1CB
:1021500000E0012426462878C04340071FD4D5F864
:102160009400062819D2DFE800F0160C1116161696
:10217000AA6FDAF8001021F007011143CAF8001025
:10218000E9E70198012101F0F9FC03E00098012141
:1021900001F084FD0446A4B100E00124264628781D
:1021A000C04380062BD4D5F89000B0F1405F24D016
:1021B00011DC10B3B0F1805F15D0B0F1005F10D129
:1021C00016E0D5F89420D9F8001021F0070111434A
:1021D000C9F80010E3E7B0F1804F0ED0B0F1A04F86
:1021E0000BD001240AE00198002101F0C7FC03E0B4
:1021F0000098022101F052FD044694B12646287849
:10220000C04340062BD4D5F89C00B0F5406F24D0D5
:1022100011DC10B3B0F5806F15D0B0F5006F10D1A0
:1022200016E0D5F89020DAF8001021F0E0411143D3
:10223000CAF80010E3E7B0F5805F0ED0B0F5A05FFC
:102240000BD001240AE00198002101F097FC03E083
:102250000098022101F022FD044694B12646287818
:10226000C04300062BD4D5F8A000B0F5C04F24D051
:1022700011DC10B3B0F5005F15D0B0F5804F10D170
:1022800016E0D5F89C20D9F8001021F4E051114354
:10229000C9F80010E3E7B0F5004F0ED0B0F5204FBD
:1022A0000BD001240AE00198002101F067FC03E053
:1022B0000098022101F0F2FC044654B12646287829
:1022C000C04300071ED4D5F88400B0F5805F0AD063
:1022D0000FE0D5F8A020D9F8001021F46041114397
:1022E000C9F80010EBE70098022101F0D7FC00B11B
:1022F0000126D5F88420DAF8001021F4405111436A
:10230000CAF800102878C043C00613D4D5F8980046
:10231000B0F5807F05D10098022101F0BFFC00B12B
:102320000126D5F89820D9F8001021F44071114306
:10233000C9F800102868C043000316D4D5F8A400DB
:1023400038B1B0F5803F09D0B0F5003F0BD0012483
:102350000AE00198002101F011FC03E0009802213D
:1023600001F09CFC04468CB126462868C04340031B
:1023700022D4D5F88800B0F5801F11D0B0F5001F29
:1023800013D0B0F5401F15D0012414E0D5F8A420D7
:10239000D9F8001021F440311143C9F80010E4E7E6
:1023A000386840F40030386004E00098012101F002
:1023B00075FC04465CB126462868C043C00323D49C
:1023C000286DA8B1B0F5803F17D001241BE0D5F8E7
:1023D0008820DAF8001021F440111143CAF80010E7
:1023E000EAE700004C44025800480258CFFFFF00C3
:1023F000386840F40030386004E00198022101F0B0
:10240000BDFB0446E4B126462868C043800005D4DD
:102410000098022101F042FC00B101262868C04367
:1024200080031BD4D5F88000B0B1B0F5807F0FD009
:10243000B0F5007F10D0B0F5407F0DD001240CE046
:102440005A482A6D016821F4803111430160DBE7AD
:10245000386840F400303860ECB326462868C04342
:10246000C00207D46A6FD8F8001021F00041114370
:10247000C8F800102868C043C00008D4D5F8B820B8
:10248000DBF8001021F480411143CBF800102868DC
:10249000C043800207D4EA6ED8F8001021F08071A2
:1024A0001143C8F800102868C04340000CD4DBF882
:1024B000001021F40041CBF80010DBF80010D5F833
:1024C000BC201143CBF800102868C04308D437481B
:1024D0006A6D016800E018E021F04051114301608D
:1024E0002868C043000208D4D5F88C20DAF8001020
:1024F00021F440011143CAF8001028790024C04398
:1025000000F0010020430AD00FE0D5F88020DAF86F
:10251000001021F440711143CAF800109EE70198A1
:10252000002101F02BFB00B106462879C04300F0E2
:102530000200204305D10198012101F01FFB00B1E9
:1025400006462879C04300F00400204305D10198D5
:10255000022101F013FB00B106462879C04300F0C8
:102560000800204305D10098002101F097FB00B13D
:1025700006462879C04300F01000204305D100989A
:10258000012101F08BFB00B106462879C04300F021
:102590002000044304D10098022101F07FFB00B920
:1025A00016B10120BDE8FE8F0020FBE74C44025825
:1025B0002DE9F05F04000F467ED0DFF83882D8F8AE
:1025C000000000F00F00B8420CD2D8F8001021F043
:1025D0000F013943C8F80010D8F8000000F00F00D0
:1025E000B84269D12078844D40070AD5206929680E
:1025F00001F07001884204D9296821F0700101437B
:10260000296020787C4E361D00070AD56069316844
:1026100001F07001884204D9316821F07001014352
:1026200031602078C0060AD5A069316801F4E06104
:10263000884204D9316821F4E06101433160207897
:10264000DFF8B4B180060BF1080B0CD5E1695846F0
:10265000DBF8002002F07002914204D9026822F0F7
:1026600070020A430260207880070AD5E068296872
:1026700001F00F01884204D9296821F00F010143BC
:1026800029602078C0073ED05B49A26828681839C5
:1026900020F47060104328606068022818D0032876
:1026A00019D00968012819D0490700294ADADFF84A
:1026B00048A1AAF1080A00E044E0DAF8002022F07C
:1026C00007020243CAF80020FEF71CFE814612E012
:1026D00009688903E9E709688901E6E7C905E4E7CC
:1026E000FEF710FEA0EB090141F28830814202D9C9
:1026F0000320BDE8F09F6168DAF8000000F03800C0
:10270000B0EBC10FECD1207880070AD5E0682968CA
:1027100001F00F01884204D2296821F00F01014322
:102720002960D8F80010404601F00F01B9420BD9DA
:10273000016821F00F0139430160006800F00F00CB
:10274000B84201D00120D4E7207840070AD520699B
:10275000296801F07001884204D2296821F07001D3
:1027600001432960207800070AD56069316801F0CB
:102770007001884204D2316821F070010143316058
:102780002078C0060AD5A069316801F4E06188426A
:1027900004D2316821F4E061014331602078800681
:1027A0000CD5E1695846DBF8002002F07002914236
:1027B00004D2026822F070020A43026000F088F836
:1027C0000E492A682B68C2F3032203F00F038A5CC8
:1027D000C95C02F01F0201F01F01D040084A20FA34
:1027E00001F111600749086007480068BDE8F05F23
:1027F000FEF7C4BD002000521844025896C90008D4
:1028000028000024240000241C00002470B5144C6F
:102810003F220260124A24680832131D114D04F051
:102820000704446016681C1D06F47066866016680E
:1028300006F00F06C660126802F0700202611A68A4
:1028400002F0700242611A6802F4E062826122685A
:1028500002F07002C261286800F00F00086070BDCD
:10286000104402580020005230B500F031F80B4AF5
:102870000B490C4B15681468C5F3032204F00F04D0
:102880008A5C095D02F01F0201F01F01D040064A78
:1028900020FA01F119601060084630BD1844025852
:1028A00096C90008280000242400002400B5FFF782
:1028B000DBFF05490968054AC1F30221515C01F0BB
:1028C0001F01C84000BD00001C44025896C9000802
:1028D000454970B545480968434B103B11F0380233
:1028E00008D00111082A03D0102A0BD0182A0BD0C7
:1028F000084670BD19688906FBD51968C1F3C10186
:10290000C84070BD3A4870BD3749374D18310C1D6D
:1029100024350A68096826682D6802F0030406F069
:102920000102C1F30511C5F3CC0515FB02F200EE5F
:10293000102AB8EE400AE9B32F4ADFED2E0AB7EEAF
:10294000001A6CB1DFED2D1A012C01D0022C43D0FE
:1029500002EE101A1068F8EE422A81EEA22A1EE05A
:102960001C68A40611D51B6801EE901A1168C3F308
:10297000C103F8EE612AD84001EE900AC1F30800C5
:10298000F8EE611A81EEA22A0BE001EE901ADFED5B
:102990001C2A00BFF8EE611A106882EEA12AC0F36B
:1029A000080001EE900AF8EE611A40EE201A31EEAE
:1029B000810A00E015E022EE000A1068C0F346200C
:1029C000401C00EE900AF8EE600A80EE201ABCEE81
:1029D000C10A10EE100A70BD01EE901ADFED092A4F
:1029E000D8E7002070BD0000104402580090D003CA
:1029F0008096980000000039304402580024744A40
:102A00000024744C8096184BF0B50D461F49204C9D
:102A1000002887B016464FF000004FF002020F6802
:102A20004FF0030319D047F004070F60096801F065
:102A30000401059111020091CDE90120CDE9033097
:102A400014486946FEF734FB206845EAC61120F0B9
:102A50007E400843206007B0F0BD47F001070F60DB
:102A6000096801F0010105914FF480710091CDE9F1
:102A70000120CDE9033008486946FEF719FB2068BC
:102A8000354320F0FE702843E4E70000E04402589C
:102A90001044025800080258000002582DE9F05F67
:102AA00004007DD0FF4F2078FE4D1837DFF8F493F7
:102AB000103DC00748D0D9F80000396800F0380050
:102AC000102815D0182803D101F0030002280FD0D8
:102AD0006068B0F5803F12D010B1B0F5A02F18D0CB
:102AE000286820F480302860286820F4802009E0DD
:102AF0002868800328D560680028D2D024E02868A0
:102B000040F480302860606888B1FEF7FBFB064621
:102B100009E0286840F480202860F0E7FEF7F2FB27
:102B2000801B64286FD828688003F7D50CE0FEF777
:102B3000E9FB064605E000BFFEF7E4FB801B6428C6
:102B4000F0D828688003F7D4207841F20308D54EE6
:102B50000C3E800769D5D9F80000396810F03800BC
:102B60000ED0182801D188070AD0E06890B32968F0
:102B700021F0190101432960FEF7C4FB824631E0D0
:102B80002868400702D5E06800288AD0E1682868F4
:102B900020F0190008432860FEF7B4FB824607E0E6
:102BA000DFE000BFFEF7AEFBA0EB0A000228B9D8B9
:102BB00028684007F6D500BFFEF79EFB40451BD8AE
:102BC0002069402812D0316821F47C3141EA00307C
:102BD00030602AE018E000BFFEF794FBA0EB0A008B
:102BE00002289FD828684007F6D5E5E7306820F42A
:102BF0007C3040F40030EBE7207C316821F0FE416E
:102C000041EA0060E4E70DE1286820F00100286057
:102C1000FEF778FB824605E0FEF774FBA0EB0A00A6
:102C200002288DD828684007F6D42078C0065DD5E4
:102C3000D9F80000DFF86CB2396800F03800ABF169
:102C4000040B082810D0182803D101F00300012834
:102C50000AD0E0690028286838D040F08000286059
:102C6000FEF750FB824623E02868C00523D5E069C3
:102C7000802876D11FE0206A202821D0316821F0F9
:102C8000F84141EA8060306030E000BF94F82010E5
:102C9000DBF8002022F07C5242EA0161CBF8001000
:102CA00024E000BFFEF72EFBA0EB0A00022898D814
:102CB0002868C005F6D5FEF71FFB4045E6D8DAE7E1
:102CC000306820F0F84040F08040DCE720F08000E1
:102CD0002860FEF717FB064605E000BFFEF712FB73
:102CE000801B02289DD82868C005F7D420780007EB
:102CF00029D56C486169643000298046016811D08B
:102D000041F001010160FEF7FDFA064605E000BF53
:102D1000FEF7F8FA801B0228C9D8D8F8000080070F
:102D2000F6D510E021F001010160FEF7EBFA06464E
:102D300005E000BFFEF7E6FA801B022872D8D8F83B
:102D400000008007F6D42078800623D5A0690028EB
:102D5000286810D040F480502860FEF7D3FA064669
:102D600005E036E1FEF7CEFA801B02285AD8286823
:102D70008004F7D50EE020F480502860FEF7C2FAF8
:102D8000064604E0FEF7BEFA801B02284AD82868EF
:102D90008004F7D4207840074FD5DFF80C81D8F8AD
:102DA000001041F48071C8F80010FEF7ABFA064637
:102DB00005E000BFFEF7A6FA801B642832D8D8F8D9
:102DC0000000C005F6D5374EA068603601280AD04D
:102DD00008B1052813D0306820F001003060306859
:102DE00020F0040002E0306840F001003060A0688C
:102DF00041F2883A90B1FEF785FA80460AE03068E1
:102E000040F004003060EEE7FEF77CFAA0EB08012A
:102E1000514507D830688007F6D50EE0FEF772FA04
:102E2000804607E084E000BFFEF76CFAA0EB0801E3
:102E300051457DD830688007F6D4606AB0B3DFF8BA
:102E40006480D9F8001008F120084FF6F87B08F1EB
:102E50000409C1F3C2010329A8F1040A69D00228B8
:102E6000286820F08070286003D0FEF74BFA0446F3
:102E700084E0FEF747FA064605E000BFFEF742FA97
:102E8000801B022877D828688001F7D4E26A40F2D4
:102E9000F331386854F8283F884340EA0210184359
:102EA000386004E01044025800480258B5E0217B25
:102EB000434622894FF4FE0C208A4FF0FE47490218
:102EC000267D521E401EA1F50071C2F308088AB289
:102ED000761E0CEA004042EA08020243504607EA26
:102EE00006610A431A60DAF8002022F00102CAF8EB
:102EF0000020D9F80020266A22EA0B0242EAC60224
:102F0000C9F80020DAF80010A26921F00C01114381
:102F1000CAF800100168E26921F002011143016062
:102F2000016841F480310160016841F4003101E041
:102F300021E027E00160016841F48021016001681F
:102F400041F001010160286840F080702860FEF7C0
:102F5000D9F9044605E000BFFEF7D4F9001B0228AA
:102F600009D828688001F7D557E000BFFEF7CAF9F5
:102F7000001B022802D90320BDE8F09F28688001C9
:102F8000F4D44AE039680128D8F8000021D0A26AB8
:102F900001F0030393421CD1E26AC1F305118A4296
:102FA00017D1216BC0F30802491E8A4211D1616B0F
:102FB000C0F34622491E91420BD1A16BC0F30642D9
:102FC000491E914205D1E16BC0F30660491E814262
:102FD00001D00120D0E7A16C4E46D9F80000C0F323
:102FE000CC00814219D0DAF80000554620F00100EB
:102FF000CAF80000FEF786F94FEA0007FEF782F9EB
:10300000B842FBD0A26C306820EA0B0040EAC20054
:103010003060286840F0010028600020ACE7000024
:1030200070B504000D4603D094F82C0010B107E0F1
:10303000012070BD002084F82D00204600F018F813
:10304000022084F82C002068211DFDF774FDD4E9CE
:1030500000022946FDF7C0FD04480121026842F044
:103060000042026084F82C10002070BD0040005225
:10307000FDF7B4BF10B5044690F82C00022804D028
:1030800094F82C00012801D0012010BD022084F802
:103090002C002068FDF784FD012084F82C0000201E
:1030A00010BD000070B5044690F82C000D460228B3
:1030B00004D0012803D0052801D0012070BD0220D2
:1030C00084F82C002068FDF774FD2868022805D0DC
:1030D0005FF0010084F82C00002070BD0520F9E7A6
:1030E00070477047704710B5040003D094F83D0056
:1030F00010B107E0012010BD002084F83C002046FC
:1031000000F022F8022084F83D002068211D00F024
:103110002DFF012084F8480084F83E0084F83F0029
:1031200084F8400084F8410084F8420084F84300A9
:1031300084F8440084F8450084F8460084F8470089
:1031400084F83D00002010BD7047000090F83D104D
:10315000012901D001207047174A022180F83D1053
:103160000168CB6843F00103CB600068904214D043
:10317000B0F1804F11D0114988420ED010498842D9
:103180000BD01049884208D00F49884205D00F491A
:10319000884202D00E49884207D181680D4A114009
:1031A000062906D0B1F5803F03D0016841F0010146
:1031B0000160002070470000000001400004004052
:1031C00000080040000C00400004014000180040CE
:1031D000004001400700010070472DE9F04104461E
:1031E00000680027C6680569A90713D5B10711D57E
:1031F000FA1E02610121217720688069800720463C
:1032000002D0FFF7E9FF04E000F08BF8204600F061
:1032100089F82777680716D5700714D52268022029
:103220006FF00401116120772068806910F4407FFD
:10323000204602D0FFF7D0FF04E000F072F82046ED
:1032400000F070F82777280715D5300713D52268C6
:1032500004206FF00801116120772068C0698007A1
:10326000204602D0FFF7B8FF04E000F05AF82046ED
:1032700000F058F82777E80616D5F00614D522682E
:1032800008206FF01001116120772068C06910F4E8
:10329000407F204602D0FFF79FFF04E000F041F896
:1032A000204600F03FF82777E80708D0F00706D05F
:1032B00021686FF001000861204600F035F828060B
:1032C00001D4A80408D5300606D521686FF4025051
:1032D00008612046FFF705FFE80508D5300606D54A
:1032E00021686FF4807008612046FFF7F9FE6806D8
:1032F00008D5700606D521686FF0400008612046A9
:1033000000F01CF8A8060AD5B00608D521686FF0B1
:10331000200008612046BDE8F041FFF7E3BEBDE8AC
:10332000F08170477047000000680349884201D16E
:10333000FDF7EEBF70470000004801407047FEE710
:103340004FF44860401EFDD27047000000B585B0C4
:103350000121002203234FF400408DE80F000348B1
:103360006946FDF7A5FE05B000BD0000000002584B
:103370000148FEF76FB80000881103242DE9FE4FC5
:1033800081460068882493468D888C2204EBCB17F5
:103390008A46C3689421BE46C459C3F30B432B44E9
:1033A00004F470441F04019702EBCB1240F80E4066
:1033B00001EBCB13DAF800709C214FF0AC0C01EB61
:1033C000CB1440F2077102910CEBCB11D9F800C07D
:1033D00098250020CDF800C0A02605EBCB15DCF821
:1033E0000CC006EBCB16CCF30B4C0CF1010C07EB2D
:1033F0000C08DDF800C0019F48EA07084CF80E8071
:10340000D9F80070BAF80CC0B846FF68C7F30A07CD
:1034100067444FEA074E58F8027007F4704C48F8BA
:1034200002C0D9F800C0DAF80870DCF80C80C8F3E4
:103430000A0808F10108B84448EA0E084CF802806E
:10344000D9F80020D75827F00707D750D9F80070CF
:10345000DAF81020FA509AF831209AF818304FEA2A
:10346000022C9AF83220120442EA0362D9F80030A2
:103470001F5918519AF8303043EA0C031343D9F816
:1034800000201351D9F80020535923F0FF03535162
:10349000D9F80020DAF814305351D9F800209359A4
:1034A000029CA3439351D9F80030DAE90724224360
:1034B0009A51D9F8002053585050D9F80020DAF822
:1034C00024005050DAF81000C8B301283AD004287C
:1034D0003AD0022838D0032836D0072834D001202B
:1034E000D9F80030B02505EBCB11B42284245D5807
:1034F00002EBCB1205F0E0255D50DAE9003504EB74
:10350000CB14EB1ABAF8285043434543D9F80000CE
:10351000DB1D43EA05434350D9F8000081586FF39F
:103520000A018150D9F80000DAF82C108150D9F83E
:103530000000015941F001010151BDE8FE8FFFE794
:103540000420CDE70320CBE70220C9E70A48002189
:10355000084B012210B503600171417141610262A3
:103560008161FDF71DFC002803D0BDE81040FDF788
:10357000E0BA10BD004C0258B810032411480222D2
:1035800010B50F4C0021FF230460C0E90112C16097
:10359000C0E91112C0E9131341658165C165FDF7EA
:1035A000B3FC08B1FDF7C5FA06480121FDF748FC58
:1035B000002803D0BDE81040FDF7BBBA10BD0000E5
:1035C00000100052DC100324F0B587B01C216846BF
:1035D000FCF7BFFF19480021174D042200F1080E27
:1035E0004FF0200C4027C0E90051476195018EE85B
:1035F00006105602C0E90651C0E908618162022343
:1036000003246946CDE90032CDE90242CDE9044305
:103610000693FFF705FD08B1FDF78BFA40F26A50FB
:10362000FDF78AF90120FDF7C7FC08F0BFFD012076
:10363000FDF7C2FC07B0F0BD404100525411032415
:103640002DE9F04F87B014216846FCF782FF7548DA
:10365000016841F010010160016801F0100105915D
:10366000016841F002010160016801F00201059169
:10367000016841F001010160016801F0010105915B
:10368000016841F040010160016801F040010591CD
:10369000016841F008010160016801F0080105912D
:1036A000016841F480710160016801F48071059145
:1036B000016841F004010160016801F00401059115
:1036C000016841F080010160016801F0800105910D
:1036D000016841F0200101600068012243F22001ED
:1036E00000F0200005905048FDF700FE0122DFF8B1
:1036F0003C91560348463146FDF7F8FD0122DFF8BC
:103700003081170240463946FDF7F0FD4648002259
:103710001021FDF7EBFD002248468021FDF7E6FD74
:10372000DFF810A100220C215046FDF7DFFDDFF885
:1037300008B10022C0215846FDF7D8FD3F480022BD
:103740000221FDF7D3FD0024694608200294CDE94B
:1037500000043B48FDF7ACFC01256946E8038DE811
:1037600031003848FDF7A4FC30200090CDE9015429
:103770002D4869460394FDF79BFC00961126CDE980
:103780000164694648460394FDF792FC0097694638
:10379000CDE9016440460394FDF78AFC022769469F
:1037A00068020090CDE90174484603940494FDF743
:1037B0007FFC80200090CDE901546946484603947F
:1037C000FDF776FC0C200090CDE901546946504687
:1037D0000394FDF76DFCC0200090CDE901546946CB
:1037E00058460394FDF764FC03214FF44050CDE9A3
:1037F0000006CDE902510C486946FDF759FC114815
:103800006946CDE900540294FDF752FC00976946E1
:10381000CDE9015409480394FDF74AFC07B0BDE81F
:10382000F08F0000E0440258000C025800080258D3
:103830000020025800180258001C025800040258C8
:103840000010025800000258F0B58DB034216846CF
:10385000FCF77FFE254800242349172200F11C0EA7
:1038600040F24E334FF4846740F2F71601602E2188
:10387000446040F20D2C8460FF25C4600461446103
:1038800084618EE8CE1080F8344080F8354080F8AE
:103890003650FDF743FE08B1FDF74BF94FF4487081
:1038A0004FF4F0710222CDE9004006945302CDE9B5
:1038B0000A0107A805264F06CDE90241CDE90425F6
:1038C00080E8C8008DF8304000228DF8314069460C
:1038D00006488DF83240FDF793FD002801D0FDF732
:1038E00028F90DB0F0BD000000100050881103242D
:1038F0000F48002170B516250C4AC0E904518161BA
:103900000223C16104241026016280E85C00FEF7F6
:1039100053F808B1FDF70DF9FDF7C4F8002803D0FE
:10392000BDE87040FDF705B970BD000000500052C1
:103930003012032410B508F067FCBDE8104008F011
:1039400065BC08F09FBCFEE7FEE770470D4A30B546
:10395000101D11680B4C21F47C310B4B41F42045B8
:1039600008491034156028392360026822F0C0022B
:103970000260026842F020020260086840F0806045
:10398000086030BD28440258950201132DE9F04328
:103990004B6A4FF040652BB1AA4203D004688B6A92
:1039A0005B1E23618B69002B68D00C6AB4B303687B
:1039B0008C68DC61CC69FCB1D1E90B38D1F824C04A
:1039C0004E6B8F8A43EA080346EA0C0633430E6ABD
:1039D00043EA8743D1E9037C43EA0C0333438E690E
:1039E0003B430F682343046833433B4365E000686F
:1039F00049688161BDE8F083D1E90B364F6A4C6BB1
:103A00008D8A33433C430E6923430C6A43EA854362
:103A10008D693343096823432B4362E0FFE7CC6998
:103A2000B4F1000918D0D1E90B484F6A4E6BB1F8D8
:103A300014C044EA08043E430F683443CE6844EAA5
:103A40008C44344344EA09041C4303683C43144354
:103A5000AA425C61CBD1CDE7D1E90B464F6A4D6BF1
:103A6000B1F814C034433D4300682C43096844EA6C
:103A70008C441C430C4314434461BBE70B6AABB357
:103A800003688C68DC61CC69E4B1D1E90B38D1F80A
:103A900024C04E6B8F8A43EA080346EA0C06334380
:103AA0000E6A43EA8743D1E9037C43EA0C033343BC
:103AB0008E693B432343046833431343AA42636143
:103AC00095D197E7D1E90B364F6A4C6B8D8A33431A
:103AD0003C430E6923430C6A43EA854389693343B7
:103AE000234300680B431343436183E7FFE7CC693B
:103AF00084B1D1E90B384F6A4E6BB1F814C043EA78
:103B000008033E433343CE6843EA8C4333432343A5
:103B10000468D2E74C6A002C9DD0D1E90B368F8A1D
:103B20004D6B0168334325432B4343EA87401043E1
:103B300048615FE72DE9F041984616460F46044676
:103B4000069D08E0681C06D0FDF7DCFBA0EB080032
:103B5000A8420AD84DB120688068384000D00120C2
:103B6000B042EFD10020BDE8F081042084F841008C
:103B7000606C40F0010060640120F4E72DE9F0473B
:103B8000454D044689464FF0000A2868C043800727
:103B90000AD0414E283E306820F080603060FDF74A
:103BA000B1FB0746B04608E00120BDE8F08700BF42
:103BB000FDF7A8FBC01B022867D8D8F80000000159
:103BC000F6D4206829684FF4FE0721F47C313E02C8
:103BD00041EA00302860207AA389B4F804C040028A
:103BE0002D4D2D495B1E227CACF1010C1035091DB9
:103BF000A0F5007080B2521ECCF3080C07EA034314
:103C000040EA0C00184306EA026210432860086884
:103C1000626920F0C000104308600A68A06922F0C1
:103C2000200202430A60281D0A6822F010020A607E
:103C300002684FF6F873E4699A4342EAC4020260EC
:103C40000868B9F1000F40F010020A6011D008684E
:103C5000B9F1010F11D040F400100860D8F800004D
:103C6000444640F08060C8F80000FDF74BFB054675
:103C70000DE0086840F40020EFE740F48010ECE726
:103C8000FDF740FB401B022801D903208DE7206887
:103C90000001F5D5504688E7284402582DE9F04741
:103CA000454D044689464FF0000A2868C043800706
:103CB0000AD0414E283E306820F080503060FDF739
:103CC00021FB0746B04608E00120BDE8F08700BFB1
:103CD000FDF718FBC01B022867D8D8F80000800049
:103CE000F6D4208829684FF4FE0721F07C713E024B
:103CF00041EA00502860207AA389B4F804C0400249
:103D00002D4D2D495B1E227CACF1010C1835091D8F
:103D1000A0F5007080B2521ECCF3080C07EA0343F2
:103D200040EA0C00184306EA026210432860086863
:103D3000626920F44060104308600A68A06922F4B8
:103D4000007202430A60281D0A6822F480720A6029
:103D500002684FF6F873E4699A4342EAC4020260CB
:103D60000868B9F1000F40F480720A6011D0086849
:103D7000B9F1010F11D040F080700860D8F8000050
:103D8000444640F08050C8F80000FDF7BBFA0546F5
:103D90000DE0086840F48000EFE740F40000ECE735
:103DA000FDF7B0FA401B022801D903208DE72068F7
:103DB0008000F5D5504688E7284402587047704780
:103DC00030B59DB04C216846FCF7C3FB202113A8F9
:103DD000FCF7BFFB0220FDF7C5FD2749002427485B
:103DE0000A6822F001020A600968016841F4404152
:103DF0000160016801F440411B9101688904FCD510
:103E00004FF4A02301930DF1280C0122009202200F
:103E1000099004219D1205228CE82300CDE90D02B2
:103E20000FAA82E8130068461294FEF737FE08B125
:103E300072B6FEE740201A9008230501CDE916303E
:103E400013ABCDE918053F21032283E816000221B8
:103E500013A8FEF7ADFB08B172B6FEE7084801688B
:103E600041F40021016001204FF440224FF0005145
:103E7000FEF7CAFD1DB030BD2C040058184802588A
:103E80002C4402582C48F0B52C4A016841F47001CA
:103E90000160106800F00F00072804D2106820F0BD
:103EA0000F00C01D106026490020254C10340B68FF
:103EB000244D43F001030B6020600B682B400B6026
:103EC000136803F00F03072B04D9136823F00F03C3
:103ED000DB1D13601A4C1C4A18341C4B261D371D61
:103EE0002060174C1A4D28343060261D3860371D6D
:103EF00023603B1D35601C1D3A60251D2E1D18607A
:103F0000331D22602860326018600A680C4B114C27
:103F100022F4802260330A60186020686FF30F007B
:103F2000B0F1005F03D20C490120C1F8080143F24F
:103F3000D2000A490860F0BD88ED00E00020005280
:103F4000004402587FEDF6EA8002010100020202FD
:103F50000000FF010010005C008000510040005292
:103F60000148FFF73AB900007C1203242DE9F0471D
:103F70002A4B4FF0804A2A4D02689842294E2A4F18
:103F80002A4C09D0504507D0A84205D0B04203D0F2
:103F9000B84201D0A04205D1D1F804C022F070028D
:103FA0004CEA0202DFF888C0DFF888809842DFF828
:103FB00088900FD050450DD0A8420BD0B04209D008
:103FC000B84207D0A04205D0604503D0404501D09B
:103FD000484503D1CD6822F440722A434D6922F04E
:103FE00080022A43026098428A68C2620A6882623A
:103FF00007D0A04205D0604503D0404501D04845D8
:1040000001D109690163012141610169C90703D037
:10401000016921F001010161BDE8F0870000014064
:104020000004004000080040000C00400004014073
:10403000004001400044014000480140FEE70028E4
:1040400009DB410900F01F028900012001F1E02194
:104050009040C1F80001704700280DDB410900F0D5
:104060001F028900012001F1E0219040C1F8800188
:10407000BFF34F8FBFF36F8F7047090700284FEAD8
:10408000116104DB00F1E02080F80014704700F0BB
:104090000F0000F1E02080F8141D7047164800B5AD
:1040A0008DB00078C00723D1134807F0BAFDF8B1EE
:1040B00000200A903F21099110490A230B90104AD1
:1040C0000C9005900690CDE907210422012104916E
:1040D000CDE90030CDE902020B480A46094902F059
:1040E00015FB0A4A0A49FCF77AF90348AFF3008046
:1040F0000DB0054800BD0000480000248CDE00081B
:10410000A8DE0008E0DD000870210324000000089C
:1041100055670008174810B58EB00078C00725D144
:10412000144807F07EFD08B30020134A0DF1140C6B
:10413000124B3F21099101210A900B90042408920F
:104140000A220C908CE80B00CDE9020401901420A7
:104150000491034600900A490A4802F0D7FA0A4A35
:104160000A49FCF73CF90348AFF300800EB005485C
:1041700010BD00004C00002490DE0008ACDE0008FA
:10418000F0DD00089C2103240000000855670008AA
:10419000164800B58DB00078C00723D1134807F04A
:1041A00040FDF8B100200A903F21099110492823D1
:1041B0000B90104A0C9005900690CDE9072104223F
:1041C00001210491CDE90030CDE902020B480A46F5
:1041D000094902F09BFA0A4A0A49FCF700F9034828
:1041E000AFF300800DB0054800BD00005000002472
:1041F000A4DE0008B0DE00087CDE0008C82103242D
:10420000000000085567000800F0FABA00F0FABA9A
:1042100000F042BB00F049BB00F049BB00F050BBCE
:1042200000F056BB00F060BB00F076BB00F07BBB3B
:104230007047000000F5017210B500F12C03836097
:1042400000F5DC7400F11401C0E90342114AC0E931
:104250000021084602F03AFC0F4940F8181B02F012
:1042600035FC0E49016000F5C67002F02FFC0C49C8
:1042700040F8481B00F013FCA0F5007000F5007139
:104280000246081D00F066FAA0F5017400F04EFB2E
:10429000204610BD10CB0008A8D9000874D900082A
:1042A000DCD90008094910B5016000F5017000F083
:1042B000EFFB4C3802F012FCA0F5C67002F00EFCC9
:1042C000183802F00BFC143810BD000010CB0008A9
:1042D00000F040B87047000010B500F047F8014901
:1042E000016010BD24CB000800F0D0B800F0DCB8AD
:1042F0007047000038B505460A480A210BA2B0F9FC
:10430000000000900848B0F9003005F5AE70044692
:1043100004F001FD05F58870C5F85841BDE8384046
:1043200006F0F2BF460000244400002425750A254B
:104330006400000010B500F0C3F80149016010BD31
:1043400058CB000800F0C4B900487047A8C900085D
:104350000120704770479830814210B505D100F0B8
:104360007DFDBDE8104000F01BBB10BD2DE9F843FA
:1043700004F092FA42490027C76340F8401B02F05C
:1043800015FD2C3002F012FD2C3008F027FA3D49C3
:10439000A0F1980400F178063B4A4FF448794FF4B5
:1043A000F0784B46D1E90001C6E90201C6E90024D4
:1043B0000022CDF8008004F140001146054604F0CB
:1043C000EEFD00221146104603F034FF2946A86294
:1043D000201D06F01FFB00224B4604F16C00114625
:1043E0000546CDF8008004F0DAFDFF2211461046A4
:1043F00003F020FF2946A862201D06F00BFB3520A4
:104400003A46009004F1CC007123114604F198055E
:10441000074604F0C4FD0520388699226621002055
:1044200003F008FFCC2207469921002003F002FF89
:10443000662280463321002003F0FCFE992281464B
:104440006621332003F0F6FEC5E91C90C5E91A7811
:104450002868D0F88C10284688473520C4F8C860F2
:10446000712340F2472161220090284604F097FD15
:10447000201D294606F0CEFA2046BDE8F88300004C
:104480008CCB0008DCC9000834D40008054910B5FD
:1044900040F8981B02F084FCBDE81040983803F007
:1044A000BDBE00008CCB000870479830814210B52B
:1044B00005D100F0D3FCBDE8104000F05DBA10BD9E
:1044C0002DE9F04F87B004F0E7F978490026C6637C
:1044D00040F8401B02F06AFC2C3002F067FC2C30E4
:1044E00008F07CF9783026210446FCF732F82046A3
:1044F00004F02AFA6F4F4FF6FF726D498762016030
:10450000FF2182850663868680F8361080F8376042
:1045100080F8386080F839603C3006F0D4F8A0F1BB
:104520003C046548664B4FF4487A4FF4F0792060BC
:10453000624844F8486FD0E9001204F11800A4F56D
:10454000AC748046C0E90212C0E900340022534630
:1045500004F1400011460546CDF8009004F01FFD1F
:1045600000221146104603F065FE2946A862204647
:1045700004F01CF80022534604F16C001146054675
:10458000CDF8009004F00BFDFF221146104603F019
:1045900051FE2946A862204604F008F8352032462C
:1045A000009004F1CC007123114604F19805814676
:1045B00004F0F5FC0521A9F83010992266210020AD
:1045C00003F038FECC2281469921002003F032FE10
:1045D000662282463321002003F02CFE9922834676
:1045E0006621332003F026FEC5E91CB0C5E91A9AFE
:1045F0002868D0F88C10284688473520C4F8C88031
:1046000071230090F0222846452104F0C8FC294679
:10461000204603F0CBFF33200090C9232D22212117
:1046200004F5887004F0BBFC002278351146104672
:1046300003F000FE28632946AE862868D0F884205F
:1046400003A8904703AB3C3593E8070085E80700D3
:104650001C4901A80197ADF80860096821B307F06B
:104660006DFA08B31848BDF80810006806F066FD3A
:10467000034604F5AE700A21054614A204F04BFB74
:10468000C4F85851012001A90197ADF8080004F5BC
:10469000887006F021F804F58871204603F086FF43
:1046A00007B02046BDE8F08FFBF78EFEC0CB0008B8
:1046B000D8D7000810DA0008C8D00008E4C90008FC
:1046C0004CD4000864030024680300242573000010
:1046D000074910B5016000F5887002F05BFB78387F
:1046E00002F05EFBBDE81040983803F09DBD00006D
:1046F000C0CB00080520704700487047F421032410
:1047000070477047044A0023836002F11803C160B8
:10471000C0E9002370470000F4CB000870477047E1
:1047200070470000044A0023836002F11803C1604F
:10473000C0E90023704700001CCC0008704710B58A
:104740000446D0F8580100F0A9F92046BDE8104011
:1047500001F0CCB910B500F05BF90149016010BD62
:1047600044CC00080D4B10B5B3F90000401C12D02A
:104770000B48B0F90040641C0DD0B0F900400C604B
:10478000B3F90010116000880649088018880649AE
:104790000880012010BD002010BD0000680000242A
:1047A0006A0000244400002446000024704770473B
:1047B000114870B50068C0031DD50F490020703145
:1047C0000860BFF34F8F081F43F6FF7300680B4D5F
:1047D000C0F34E31C0F3C90203EA4114104600BFD2
:1047E00044EA80762E60401EFAD2491EF4D2BFF30E
:1047F0004F8FBFF36F8F70BD14ED00E074EF00E0DA
:1048000002F0E8BA70B5044602F0F0FA00F026FBB8
:1048100001462068426E204690472068D0F88010FC
:10482000204688472068816F2046884720680023FB
:104830004FF04041034AD0F888502046AC46BDE8CE
:1048400070406047000020C0114870B50068C00388
:104850001DD50F49002070310860BFF34F8F081F2E
:1048600043F6FF7300680B4DC0F34E31C0F3C9022D
:1048700003EA4114104600BF44EA80762E60401ED1
:10488000FAD2491EF4D2BFF34F8FBFF36F8F70BDC2
:1048900014ED00E074EF00E05A2010B5FFF7CFFBF5
:1048A000BDE810405820FFF7CABB02F029BB5A20D0
:1048B00010B5FFF7D1FBBDE810405820FFF7CCBB87
:1048C00002480122C0F8AC1042627047001000504C
:1048D00009215A2010B5FFF7D0FB0921BDE810408F
:1048E0005820FFF7CABB000009480A49C268C2F352
:1048F0000A02521E92B20A800369C3F30A035B1EC6
:104900004B800264416B41F001014163704700003C
:10491000001000503800002410B502F03EFEBDE843
:10492000104000F047BA02F04ABE70477FB5044617
:1049300007482146D0E90223684607F0DBFF01461D
:1049400004F5A270054604F023FBC4F840517FBD76
:10495000BCC9000808B5D0F85811054B009100F506
:104960009E71D0F85421034807F0CEFD08BD000029
:10497000100300240C0300247FB504460748214699
:10498000D0E90023684607F0B5FF014604F5A270A0
:10499000054604F0FDFAC4F840517FBDBCC90008CB
:1049A0007FB5044607482146D0E90423684607F04E
:1049B000A1FF014604F5A270054604F0E9FAC4F827
:1049C00040517FBDBCC9000808B5D0F85811054B4F
:1049D000009100F59E71D0F85421034807F03AFD8C
:1049E00008BD0000100300240C03002408B5D0F813
:1049F0005811054B009100F59E71D0F854210348E1
:104A000007F0DCFD08BD0000100300240C030024A7
:104A100070B514460D4601F007F9174A0021174AF0
:104A20000646C0F83C11C0F840111060144A0260FC
:104A300000F5A270134AC0E90021134AD2E9061218
:104A4000C0E902121148C6E95545006801688A6844
:104A500000219047002003F005FC02F08FFB04F0DA
:104A6000E2FC02F08BFB04F017FD02F087FB04F080
:104A70009FFC304670BD000064CF00081403002482
:104A8000C4CC000864D40008BCC900085C0300243E
:104A90000149016070470000C4CC00087047002144
:104AA000016070470E4808B5016841F010010160CF
:104AB000006800F01000009009485838016841F083
:104AC00010010160016821F0100101600022052140
:104AD0005A20FCF715FFBDE808405A20FCF702BF3A
:104AE000D444025840F2EF30704700002DE9F04105
:104AF0000C46497F074600F0E8F8A17F0646384695
:104B000000F0E3F8A17F0546384600F0F2F8464988
:104B10000746628BA38A4548DFF814C1D21A0A649B
:104B2000628BA38AD21A8A61228BA38AD21A0A6163
:104B30004F6362694FEA32424A642269CA6362681B
:104B4000CA602268802A27D006DC042A5DD0202A89
:104B50005BD0402A06D158E0B2F5807F10D0B2F584
:104B6000007F10D0207F46EA006040F40030C8612A
:104B7000607FA27F904253D0C1F800C0BDE8F081B1
:104B8000227F2C4B02E02B4B227F5B1E03EB026249
:104B9000CA61E2680A623EE0A268131DCB62237F0D
:104BA00046EA036343F40033CB614D6223694B61F2
:104BB0006FF0FF0613784FF6107513F0FF074FF0F4
:104BC000010303D0012F08D0FBF7FEFB5488CA690C
:104BD000AA4306EB042422430BE0247FFF2C00D1E0
:104BE00000235488CA69AA4306EB0424224342F0F6
:104BF0001002CA61CA6942F02002CA61CA699206FB
:104C0000FCD410228A604BB9B6E7227F46EA0262E2
:104C100042F40032CA614D6222694A610860ADE720
:104C200042F20130FAE700000010005201230200B6
:104C3000012301000A00020070B50C46897F00F0D4
:104C400058F81C49486362694FEA32424A64226953
:104C5000CA63628BA38AD21A0A642268082A13D014
:104C60000022C8610A614FF47842E0684FF4FC63A7
:104C700002EA102203EA50131A43C0F3C4000243AD
:104C80000D488A63086070BD638BA58A0B4A5B1B65
:104C90008B61638BA58A5B1B0B614862207F02EBF3
:104CA0000060C861E0680862054822694A612269BB
:104CB000CA60E7E700100052012303000900010069
:104CC000012302000168896A084700200C2910B5F9
:104CD0000DD2DFE801F00806070C0C0C0C0A0A0ADA
:104CE0000A0A012010BD022010BD052010BDFBF7EF
:104CF0006BFB00200B2910B50BD2DFE801F0080692
:104D0000070A0A0A0A0606060600012010BD02204C
:104D100010BDFBF759FB000010B500F10C0141601C
:104D2000002202720B46427207496022016000F1C4
:104D30002001184601F01EFF04496023242214308C
:104D400006F05DFF203810BD18CD0008CD830008A7
:104D5000064A054901604FF08061C2F88011BFF337
:104D60004F8FBFF36F8F704718CD000808E000E049
:104D700030B5044C039D04600171C28003814581FC
:104D800030BD000068CD000802480021016041608C
:104D9000704700003C000024014901204860704732
:104DA0003C00002402484068002800D001207047E1
:104DB0003C00002401490020486070473C0000246A
:104DC00001490020086070473C0000240348016846
:104DD0000029FCD101210160704700003C00002443
:104DE00001490120086070473C000024014900206F
:104DF000086070473C00002410B500F02FF80168EF
:104E0000C96BBDE810400847704741607047704764
:104E1000704700000021024AC0E90021017270477A
:104E2000E4CD0008704700003EB504460948002262
:104E30001146008800B200900748008803B201A81C
:104E400003F09FF92068DDE90112036C20469847C2
:104E50003EBD000054030024520300240148C068F2
:104E6000704700000803002470B50446002004F1D8
:104E70008405A4F8A400B4F88000A4F8A6000BE010
:104E8000415D21B154F820000168096D8847B4F8EC
:104E9000A400401CA4F8A400B4F8A400B4F8A61020
:104EA0008842EDD370BD0022A0F88020114643183F
:104EB000491C202983F88420F9DB70472DE9F04153
:104EC00000221446134611461DE0451895F88460EB
:104ED00076B191420AD08EB250F8267096B240F860
:104EE0002670861895F8845086F88450521C09E084
:104EF000B0F8A4508D4200DB641CB0F8A6508D427F
:104F000000DD5B1C491CB0F880508D42DDDCB0F840
:104F1000A410091BA0F8A410B0F8A610C91AA0F894
:104F2000A6100EE05C1EA1B28B4201D8FBF74CFA32
:104F3000A3B2A0F880308B4203D950F8234040F848
:104F40002140B0F880309342ECDCBDE8F0810000F5
:104F500003484068002802D00268926A10477047F0
:104F6000080300242DE9F74F8146FF4884B00088EC
:104F700002B2FE48008801B205A803F094F805A823
:104F800006F05AF800287DD109F1AC05B9F8EC40DB
:104F90000AE0A0B205EBC00105A806F059F818B167
:104FA000A1B2284607F051FC641EF2D5B9F8EC60B6
:104FB0004FF0000AD046761E7ED4B0B205A905EBAC
:104FC000C004204606F06DF800287CD0BDF914001E
:104FD000B4F90010884232DB05A806F023F8074632
:104FE000204606F01FF8874229DCBDF91600B4F907
:104FF0000210884212DB204606F019F8BDF916208F
:10500000BDF81A10801A00B2091A09B2ADF81A10C8
:10501000002937DD1044ADF816004CE005A806F075
:1050200006F80746204606F002F8874207DC60884B
:10503000BDF81610401A00B2ADF81A0039E0BDF9FB
:105040001600B4F9021088423BDB05A805F0EFFF1B
:105050000746204605F0EBFF874232DCBDF914001D
:10506000B4F90010884214DB204605F0DBFFBDF9DF
:105070001420BDF81810801A00B2091A09B2ADF850
:10508000181000E080E000297EDD1044ADF8140027
:1050900011E005A805F0C6FF0746204605F0C2FF4F
:1050A00087420EDC2088BDF81410401A00B2ADF81B
:1050B0001800002868DD01E083E004E04FF00108FB
:1050C00001E04FF0010A761E7FF577AFB8F1000FCF
:1050D0007FF46CAFBAF1000F73D0B9F8EC604FF009
:1050E0000008761E6DD4B0B205A905EBC0042046B9
:1050F00005F0D7FF58B3BDF91400B4F90010884289
:1051000026DC05A805F08EFF0746204605F08AFF3D
:1051100087421DDBBDF91600B4F90210884205A8CC
:1051200008DC05F084FF6188401A01446180E18851
:10513000081A0BE005F07BFF0746204605F077FFD5
:10514000874205DBBDF816006188401AE08030E038
:10515000BDF91600B4F90210884228DC05A805F054
:1051600066FF0746204605F062FF87421FDBBDF958
:105170001400B4F90010884205A80ADC05F052FFBB
:105180002188401A014400E0E7E12180A188081A43
:105190000BE005F047FF0746204605F043FF874236
:1051A00005DBBDF814002188401AA08001E04FF013
:1051B0000108761E97D5B8F1000F8DD0B9F8EC60D4
:1051C00051E153E1B0B205EBC00405A8214605F05A
:1051D0003FFF18B1B1B2284607F037FB05A92046BA
:1051E00005F05FFF0028EBD0BDF91400B4F9001002
:1051F0008842BDF91600B4F902107DDD884233DD26
:10520000BDF816006188401A21880FFA80F8BDF8B1
:105210001400401A06B205A805F004FF0746204610
:1052200005F000FF391A05A801FB08FA05F0FFFE9A
:105230000746204605F0FBFE381A7043504508DC4F
:10524000A4F806802088ADF81400BDF8180030449A
:10525000D9E0A680BDF81A1001EB0800ADF81A00DD
:105260006088ADF8160091E605A805F0DBFE07465C
:10527000204605F0D7FE21888742BDF81400A0EB38
:1052800001000FFA80F8204625DD05F0D0FE064625
:1052900005A805F0CCFE301ABDF9161006B2B4F917
:1052A0000200411A05A801FB08FA05F0BBFE0746FB
:1052B000204605F0B7FE381A7043824508DC05A881
:1052C00005F0B5FE6080E6802088ADF8140096E019
:1052D000A4F8048063E005F0A5FE074605A805F0E4
:1052E000A1FE381A07B2B9F8EC0007280EDAD4F894
:1052F00000B0D4F804A000E01CE005A805F092FE80
:1053000052462080A78068F30F02A8E0B8450EDC63
:10531000BDF818102088ADF8140001EB0800ADF8B6
:10532000180005A805F07EFE2080A7802EE6A4F8D0
:1053300004802BE0884236DA204605F073FE0646EC
:1053400005A805F06FFE301A07B2204605F06FFE83
:10535000064605A805F06BFE301ABDF9161006B218
:10536000B4F90200411A03E054030024520300245C
:10537000B4F90000BDF914207943801A70438142CA
:1053800008DC05A8E68005F052FE6080BDF8180034
:10539000384438E005A8A78005F044FE2080BDF819
:1053A0001A0030447BE005A805F03CFE0746204685
:1053B00005F038FE874233DA204605F033FE064614
:1053C00005A805F02FFE301A61880FFA80F8BDF8A5
:1053D0001600401ABDF9141006B2B4F90000411AC3
:1053E00005A801FB06FA05F022FE0746204605F057
:1053F0001EFE381A00FB08F0504507DCE680BDF8B9
:10540000181001EB0800ADF81800BFE505A805F07D
:1054100009FE2080A4F804806088ADF81600BEE77D
:10542000BDF816006188401A0FFA80F8204605F092
:10543000FEFD074605A805F0FAFD381A07B2B9F8CF
:10544000EC00072815DAD4F800B005A8D4F804A0B9
:10545000E78005F0ECFD5246608068F31F42594634
:10546000284607F008FA761E7FF5ACAEB9F8EC6076
:1054700068E0B8450EDCBDF81A106088ADF816007B
:1054800001EB0800ADF81A0005A805F0D0FD60801A
:10549000E7807BE5A4F80680BDF81A003844ADF833
:1054A0001A0073E5B0B205EBC004BDF91600B4F9FB
:1054B000021088421ED1BDF91A00B4F906108842C4
:1054C00018D1204605F0AEFDBDF91410884203D175
:1054D0002088ADF8140006E005A805F0A3FDB4F996
:1054E000001088422ED1BDF81800A1880844ADF8FC
:1054F000180023E0BDF91400B4F90010884221D14E
:10550000BDF91800B4F9041088421BD1204605F0FB
:105510008EFDBDF91610884203D16088ADF81600E3
:1055200006E005A805F083FDB4F90210884209D110
:10553000BDF81A00E1880844ADF81A00B1B2284657
:1055400007F083F9761EADD5B9F8EC60082E07D2C6
:10555000DDE90512284607F08EF907B0BDE8F08FA7
:1055600000274FF0FF3A761E6FF0004B42D4B0B2E6
:10557000741E05EBC008B8F80410B8F8060011FB5B
:1055800000F002902EE0002C03DBA0B205EBC0017E
:1055900000E005A98888CA8810FB02F00390D8F8BB
:1055A00000200092D8F804000190684602F09EFDA9
:1055B000BDF80400BDF8061010FB01F1DDE9022082
:1055C0001044CA17081A01EB5271B0EBE10F02DA6E
:1055D0003746A2460BE0584503DA3746A24630B1BB
:1055E0008346641EB4F1FF3FCDDA761EBFD5BAF113
:1055F000000F06DAB8B205EBC00105A802F076FD8F
:1056000012E01FFA8AF005EBC004B8B2214605EBA0
:10561000C000064602F06AFD0598206006986060AA
:105620003168059170680690B9B2284607F00DF907
:10563000ACE400002DE9F04F9BB0044600F59870F3
:1056400005F0FAFC70B9206804F58075D4E94C12B5
:10565000036C20469847684602F09AFD016829636A
:1056600040686863B4F8EC0098B10020FB4F80F00C
:105670000105386920B107F1140005F0DDFC50B1D7
:10568000002D7DD001A807F005F93E8804F1AC0596
:105690001CE00120EAE7F148143001F03DFB2068EE
:1056A000D7E90512036C20469847684602F070FD62
:1056B000016879614068B861E4E705EBC6000168FC
:1056C000426801A807F0D7F8761CB6B2B4F8EC002F
:1056D000B042F2D8E148068804F1EE0018900AE0E2
:1056E000189800EBC600016842682068036C2046E9
:1056F0009847761CB6B2B4F82E01B042F0D8DFF865
:1057000060A3DAF8000090F84800012804D00228CD
:105710007CD0D2480688BCE1DFF840B30026BBF855
:1057200000700CE0B8B205EBC000804605F07FFCCD
:10573000B04203DD404605F07AFC06467F1CB4F813
:10574000EC00B842EEDCC74800880F2801D9C00839
:1057500000E00120814612A802F01AFDD0465DE06B
:10576000D1F89C108847074612A805F060FC484411
:10577000B8420DDDB7420BDA12A805F058FC00E084
:10578000A3E1B84243DD12A805F051FC00283EDD3C
:1057900012A805F04CFCB84201DCBE4200DA3746E4
:1057A00012A805F044FC3F1A12A805F040FC02467E
:1057B00038B20090AC480021008803B219A802F06A
:1057C000E0FC0168129140681390BBF8007018E08B
:1057D00005EBC70012A9026814924068159014A83E
:1057E00002F0DCFC149816901598179016A805F096
:1057F00023FC20B9206816A9826C204690477F1CA4
:10580000BFB2B4F8EC00B84208D9E1E711E0D8F82B
:1058100000000168D1F898200121904712A805F0F6
:1058200006FCB042D8F80000016899DB496A884755
:1058300033E18E480078012879D008E187484FF09D
:105840000008B5F900600088401C87B226E005EB2F
:10585000C000814605F0E6FB8246B9F906B005EBCB
:10586000C700814605F0DEFB5045514606DDB9F91B
:105870000060B846084656450ADB0DE00AD1B9F982
:105880000610594500DDB846B9F90000B04203DB07
:10589000064601E0B042FBDC7F1CBFB2B4F8EC006E
:1058A000B8421FFA88F0D2D805EBC00738681290CA
:1058B00078681390BDF94C00142801DABDF94860EE
:1058C00012A805F0AFFB801BADF84C0012A8ADF894
:1058D000486001F0C7F912A805F0AEFB38BBBDF96E
:1058E0004E00142800DD1420BDF84C3081B25C4815
:1058F000BDF84A2000680091BDF848100668D6F847
:105900009060B0470646ADF84E0012A801F004FAC8
:10591000206812A9826C20469047B888801B00B28C
:10592000B88020B91FFA88F1284606F08EFFB4F837
:10593000EC00002882D1B0E04FF00008284605F0C6
:1059400076FB064645480088401C87B225E005EBFB
:10595000C000B0F90290B0F9042005EBC700B0F91F
:105960000210494507DAB84605F061FB8145494612
:105970000CDA08460AE00BD1B0F90410914200DDC0
:10598000B84605F054FB864200DA3046064602E08F
:10599000B14200DA0E467F1CBFB2B4F8EC00B84248
:1059A0001FFA88F0D3D805EBC007B7F90600142812
:1059B00003DA384605F03BFB0646384605F03CFB6B
:1059C000F0BB12A802F0E4FB3888ADF84800B7F944
:1059D0000200ADF84A00B988301A1428ADF84C100E
:1059E00000DD142086B2384605F021FBBDF84A10D0
:1059F000401A80B2864200D230461949BDF84C3078
:105A0000BDF84A20D1F800C00090BDF84810DCF87D
:105A10000000D0F890606046B047ADF84E0012A983
:105A20002068826C204690477888BDF84E10084464
:105A30007880F888BDF84E10401A00B2F88000E077
:105A400005E020B91FFA88F1284606F0FEFEB4F8FA
:105A5000EC0000287FF470AF1FE000000803002472
:105A60005C03002454030024520300244C0300244C
:105A700005EBC600016812914068139012A805F06A
:105A8000DBFA20B9206812A9826C20469047761C68
:105A9000B6B2B4F8EC00B042EAD80D48007800285D
:105AA00013D00020A4F82E010A48048809E001A8B8
:105AB00000EBC40001684268189806F0DCFE641C24
:105AC000A4B2BDF84400A042F1D81BB0BDE8F08FED
:105AD0004D0300240803002403484068002802D036
